{
  "address": "0x640Ec55454887d9fA69CEFB95110e2B9717eE18a",
  "abi": [
    {
      "inputs": [],
      "stateMutability": "nonpayable",
      "type": "constructor"
    },
    {
      "anonymous": false,
      "inputs": [
        {
          "indexed": true,
          "internalType": "address",
          "name": "account",
          "type": "address"
        },
        {
          "indexed": true,
          "internalType": "address",
          "name": "operator",
          "type": "address"
        },
        {
          "indexed": false,
          "internalType": "bool",
          "name": "approved",
          "type": "bool"
        }
      ],
      "name": "ApprovalForAll",
      "type": "event"
    },
    {
      "anonymous": false,
      "inputs": [
        {
          "indexed": true,
          "internalType": "address",
          "name": "previousOwner",
          "type": "address"
        },
        {
          "indexed": true,
          "internalType": "address",
          "name": "newOwner",
          "type": "address"
        }
      ],
      "name": "OwnershipTransferred",
      "type": "event"
    },
    {
      "anonymous": false,
      "inputs": [
        {
          "indexed": false,
          "internalType": "address",
          "name": "account",
          "type": "address"
        }
      ],
      "name": "Paused",
      "type": "event"
    },
    {
      "anonymous": false,
      "inputs": [
        {
          "indexed": true,
          "internalType": "address",
          "name": "operator",
          "type": "address"
        },
        {
          "indexed": true,
          "internalType": "address",
          "name": "from",
          "type": "address"
        },
        {
          "indexed": true,
          "internalType": "address",
          "name": "to",
          "type": "address"
        },
        {
          "indexed": false,
          "internalType": "uint256[]",
          "name": "ids",
          "type": "uint256[]"
        },
        {
          "indexed": false,
          "internalType": "uint256[]",
          "name": "values",
          "type": "uint256[]"
        }
      ],
      "name": "TransferBatch",
      "type": "event"
    },
    {
      "anonymous": false,
      "inputs": [
        {
          "indexed": true,
          "internalType": "address",
          "name": "operator",
          "type": "address"
        },
        {
          "indexed": true,
          "internalType": "address",
          "name": "from",
          "type": "address"
        },
        {
          "indexed": true,
          "internalType": "address",
          "name": "to",
          "type": "address"
        },
        {
          "indexed": false,
          "internalType": "uint256",
          "name": "id",
          "type": "uint256"
        },
        {
          "indexed": false,
          "internalType": "uint256",
          "name": "value",
          "type": "uint256"
        }
      ],
      "name": "TransferSingle",
      "type": "event"
    },
    {
      "anonymous": false,
      "inputs": [
        {
          "indexed": false,
          "internalType": "string",
          "name": "value",
          "type": "string"
        },
        {
          "indexed": true,
          "internalType": "uint256",
          "name": "id",
          "type": "uint256"
        }
      ],
      "name": "URI",
      "type": "event"
    },
    {
      "anonymous": false,
      "inputs": [
        {
          "indexed": false,
          "internalType": "address",
          "name": "account",
          "type": "address"
        }
      ],
      "name": "Unpaused",
      "type": "event"
    },
    {
      "inputs": [],
      "name": "DOESNT_EXIST",
      "outputs": [
        {
          "internalType": "uint256",
          "name": "",
          "type": "uint256"
        }
      ],
      "stateMutability": "view",
      "type": "function"
    },
    {
      "inputs": [],
      "name": "EXISTS",
      "outputs": [
        {
          "internalType": "uint256",
          "name": "",
          "type": "uint256"
        }
      ],
      "stateMutability": "view",
      "type": "function"
    },
    {
      "inputs": [
        {
          "internalType": "string",
          "name": "_idCatastro",
          "type": "string"
        },
        {
          "internalType": "string",
          "name": "_hashJsonToken",
          "type": "string"
        }
      ],
      "name": "addREAT",
      "outputs": [
        {
          "internalType": "uint256",
          "name": "",
          "type": "uint256"
        }
      ],
      "stateMutability": "nonpayable",
      "type": "function"
    },
    {
      "inputs": [
        {
          "internalType": "address",
          "name": "account",
          "type": "address"
        },
        {
          "internalType": "uint256",
          "name": "id",
          "type": "uint256"
        }
      ],
      "name": "balanceOf",
      "outputs": [
        {
          "internalType": "uint256",
          "name": "",
          "type": "uint256"
        }
      ],
      "stateMutability": "view",
      "type": "function"
    },
    {
      "inputs": [
        {
          "internalType": "address[]",
          "name": "accounts",
          "type": "address[]"
        },
        {
          "internalType": "uint256[]",
          "name": "ids",
          "type": "uint256[]"
        }
      ],
      "name": "balanceOfBatch",
      "outputs": [
        {
          "internalType": "uint256[]",
          "name": "",
          "type": "uint256[]"
        }
      ],
      "stateMutability": "view",
      "type": "function"
    },
    {
      "inputs": [
        {
          "internalType": "uint256",
          "name": "_tokenId",
          "type": "uint256"
        }
      ],
      "name": "getUri",
      "outputs": [
        {
          "internalType": "string",
          "name": "",
          "type": "string"
        }
      ],
      "stateMutability": "view",
      "type": "function"
    },
    {
      "inputs": [
        {
          "internalType": "address",
          "name": "account",
          "type": "address"
        },
        {
          "internalType": "address",
          "name": "operator",
          "type": "address"
        }
      ],
      "name": "isApprovedForAll",
      "outputs": [
        {
          "internalType": "bool",
          "name": "",
          "type": "bool"
        }
      ],
      "stateMutability": "view",
      "type": "function"
    },
    {
      "inputs": [],
      "name": "owner",
      "outputs": [
        {
          "internalType": "address",
          "name": "",
          "type": "address"
        }
      ],
      "stateMutability": "view",
      "type": "function"
    },
    {
      "inputs": [],
      "name": "paused",
      "outputs": [
        {
          "internalType": "bool",
          "name": "",
          "type": "bool"
        }
      ],
      "stateMutability": "view",
      "type": "function"
    },
    {
      "inputs": [
        {
          "internalType": "uint256",
          "name": "",
          "type": "uint256"
        }
      ],
      "name": "reatdata",
      "outputs": [
        {
          "internalType": "uint256",
          "name": "REATid",
          "type": "uint256"
        },
        {
          "internalType": "string",
          "name": "idCatastro",
          "type": "string"
        },
        {
          "internalType": "string",
          "name": "hashJsonToken",
          "type": "string"
        },
        {
          "internalType": "uint256",
          "name": "hashJsonDoc",
          "type": "uint256"
        },
        {
          "internalType": "uint256",
          "name": "exists",
          "type": "uint256"
        }
      ],
      "stateMutability": "view",
      "type": "function"
    },
    {
      "inputs": [],
      "name": "renounceOwnership",
      "outputs": [],
      "stateMutability": "nonpayable",
      "type": "function"
    },
    {
      "inputs": [
        {
          "internalType": "address",
          "name": "from",
          "type": "address"
        },
        {
          "internalType": "address",
          "name": "to",
          "type": "address"
        },
        {
          "internalType": "uint256[]",
          "name": "ids",
          "type": "uint256[]"
        },
        {
          "internalType": "uint256[]",
          "name": "amounts",
          "type": "uint256[]"
        },
        {
          "internalType": "bytes",
          "name": "data",
          "type": "bytes"
        }
      ],
      "name": "safeBatchTransferFrom",
      "outputs": [],
      "stateMutability": "nonpayable",
      "type": "function"
    },
    {
      "inputs": [
        {
          "internalType": "address",
          "name": "from",
          "type": "address"
        },
        {
          "internalType": "address",
          "name": "to",
          "type": "address"
        },
        {
          "internalType": "uint256",
          "name": "id",
          "type": "uint256"
        },
        {
          "internalType": "uint256",
          "name": "amount",
          "type": "uint256"
        },
        {
          "internalType": "bytes",
          "name": "data",
          "type": "bytes"
        }
      ],
      "name": "safeTransferFrom",
      "outputs": [],
      "stateMutability": "nonpayable",
      "type": "function"
    },
    {
      "inputs": [
        {
          "internalType": "address",
          "name": "operator",
          "type": "address"
        },
        {
          "internalType": "bool",
          "name": "approved",
          "type": "bool"
        }
      ],
      "name": "setApprovalForAll",
      "outputs": [],
      "stateMutability": "nonpayable",
      "type": "function"
    },
    {
      "inputs": [
        {
          "internalType": "bytes4",
          "name": "interfaceId",
          "type": "bytes4"
        }
      ],
      "name": "supportsInterface",
      "outputs": [
        {
          "internalType": "bool",
          "name": "",
          "type": "bool"
        }
      ],
      "stateMutability": "view",
      "type": "function"
    },
    {
      "inputs": [
        {
          "internalType": "address",
          "name": "newOwner",
          "type": "address"
        }
      ],
      "name": "transferOwnership",
      "outputs": [],
      "stateMutability": "nonpayable",
      "type": "function"
    },
    {
      "inputs": [
        {
          "internalType": "uint256",
          "name": "_id",
          "type": "uint256"
        },
        {
          "internalType": "uint128",
          "name": "_newHashJsonDoc",
          "type": "uint128"
        }
      ],
      "name": "updateHashJsonDoc",
      "outputs": [],
      "stateMutability": "nonpayable",
      "type": "function"
    },
    {
      "inputs": [
        {
          "internalType": "string",
          "name": "uri_",
          "type": "string"
        }
      ],
      "name": "updateMasterUri",
      "outputs": [],
      "stateMutability": "nonpayable",
      "type": "function"
    },
    {
      "inputs": [
        {
          "internalType": "uint256",
          "name": "",
          "type": "uint256"
        }
      ],
      "name": "uri",
      "outputs": [
        {
          "internalType": "string",
          "name": "",
          "type": "string"
        }
      ],
      "stateMutability": "view",
      "type": "function"
    }
  ],
  "transactionHash": "0xcc841c74045d48d54eca9c1c13721c91354f1bddb50bbe2a7060ad27d3c83a5b",
  "args": [],
  "numDeployments": 3,
  "solcInputHash": "d1ee4287320f7a91da1e8e24d97ac521",
  "bytecode": "0x608060405260405180606001604052806028815260200162003d83602891396005908051906020019062000035929190620001e4565b5033600660006101000a81548173ffffffffffffffffffffffffffffffffffffffff021916908373ffffffffffffffffffffffffffffffffffffffff1602179055503480156200008457600080fd5b5060405180606001604052806031815260200162003dab60319139620000b081620000fa60201b60201c565b50620000d1620000c56200011660201b60201c565b6200011e60201b60201c565b6000600360146101000a81548160ff0219169083151502179055506001600481905550620002f9565b806002908051906020019062000112929190620001e4565b5050565b600033905090565b6000600360009054906101000a900473ffffffffffffffffffffffffffffffffffffffff16905081600360006101000a81548173ffffffffffffffffffffffffffffffffffffffff021916908373ffffffffffffffffffffffffffffffffffffffff1602179055508173ffffffffffffffffffffffffffffffffffffffff168173ffffffffffffffffffffffffffffffffffffffff167f8be0079c531659141344cd1fd0a4f28419497f9722a3daafe3b4186f6b6457e060405160405180910390a35050565b828054620001f290620002c3565b90600052602060002090601f01602090048101928262000216576000855562000262565b82601f106200023157805160ff191683800117855562000262565b8280016001018555821562000262579182015b828111156200026157825182559160200191906001019062000244565b5b50905062000271919062000275565b5090565b5b808211156200029057600081600090555060010162000276565b5090565b7f4e487b7100000000000000000000000000000000000000000000000000000000600052602260045260246000fd5b60006002820490506001821680620002dc57607f821691505b60208210811415620002f357620002f262000294565b5b50919050565b613a7a80620003096000396000f3fe608060405234801561001057600080fd5b50600436106101205760003560e01c80638da5cb5b116100ad578063c68fb65b11610071578063c68fb65b1461031f578063da0544aa1461033b578063e985e9c51461036b578063f242432a1461039b578063f2fde38b146103b757610120565b80638da5cb5b1461027b5780639005c749146102995780639dcbf876146102b7578063a22cb465146102d3578063acbe9dd6146102ef57610120565b80633d0873fc116100f45780633d0873fc146101d15780634e1273f4146101ef5780635c975abb1461021f5780635d9a8a451461023d578063715018a61461027157610120565b8062fdd58e1461012557806301ffc9a7146101555780630e89341c146101855780632eb2c2d6146101b5575b600080fd5b61013f600480360381019061013a919061216b565b6103d3565b60405161014c91906121ba565b60405180910390f35b61016f600480360381019061016a919061222d565b61049c565b60405161017c9190612275565b60405180910390f35b61019f600480360381019061019a9190612290565b61057e565b6040516101ac9190612356565b60405180910390f35b6101cf60048036038101906101ca9190612575565b610612565b005b6101d96106b3565b6040516101e691906121ba565b60405180910390f35b61020960048036038101906102049190612707565b6106b8565b604051610216919061283d565b60405180910390f35b6102276107d1565b6040516102349190612275565b60405180910390f35b61025760048036038101906102529190612290565b6107e8565b60405161026895949392919061285f565b60405180910390f35b61027961092e565b005b6102836109b6565b60405161029091906128cf565b60405180910390f35b6102a16109e0565b6040516102ae91906121ba565b60405180910390f35b6102d160048036038101906102cc919061298b565b6109e5565b005b6102ed60048036038101906102e89190612a00565b610ac3565b005b61030960048036038101906103049190612a9b565b610ad9565b60405161031691906121ba565b60405180910390f35b61033960048036038101906103349190612b64565b610d0c565b005b61035560048036038101906103509190612290565b610ddc565b6040516103629190612356565b60405180910390f35b61038560048036038101906103809190612ba4565b610e10565b6040516103929190612275565b60405180910390f35b6103b560048036038101906103b09190612be4565b610ea4565b005b6103d160048036038101906103cc9190612c7b565b610f45565b005b60008073ffffffffffffffffffffffffffffffffffffffff168373ffffffffffffffffffffffffffffffffffffffff161415610444576040517f08c379a000000000000000000000000000000000000000000000000000000000815260040161043b90612d1a565b60405180910390fd5b60008083815260200190815260200160002060008473ffffffffffffffffffffffffffffffffffffffff1673ffffffffffffffffffffffffffffffffffffffff16815260200190815260200160002054905092915050565b60007fd9b67a26000000000000000000000000000000000000000000000000000000007bffffffffffffffffffffffffffffffffffffffffffffffffffffffff1916827bffffffffffffffffffffffffffffffffffffffffffffffffffffffff1916148061056757507f0e89341c000000000000000000000000000000000000000000000000000000007bffffffffffffffffffffffffffffffffffffffffffffffffffffffff1916827bffffffffffffffffffffffffffffffffffffffffffffffffffffffff1916145b8061057757506105768261103d565b5b9050919050565b60606002805461058d90612d69565b80601f01602080910402602001604051908101604052809291908181526020018280546105b990612d69565b80156106065780601f106105db57610100808354040283529160200191610606565b820191906000526020600020905b8154815290600101906020018083116105e957829003601f168201915b50505050509050919050565b61061a6110a7565b73ffffffffffffffffffffffffffffffffffffffff168573ffffffffffffffffffffffffffffffffffffffff161480610660575061065f8561065a6110a7565b610e10565b5b61069f576040517f08c379a000000000000000000000000000000000000000000000000000000000815260040161069690612e0d565b60405180910390fd5b6106ac85858585856110af565b5050505050565b600181565b606081518351146106fe576040517f08c379a00000000000000000000000000000000000000000000000000000000081526004016106f590612e9f565b60405180910390fd5b6000835167ffffffffffffffff81111561071b5761071a61237d565b5b6040519080825280602002602001820160405280156107495781602001602082028036833780820191505090505b50905060005b84518110156107c65761079685828151811061076e5761076d612ebf565b5b602002602001015185838151811061078957610788612ebf565b5b60200260200101516103d3565b8282815181106107a9576107a8612ebf565b5b602002602001018181525050806107bf90612f1d565b905061074f565b508091505092915050565b6000600360149054906101000a900460ff16905090565b600860205280600052604060002060009150905080600001549080600101805461081190612d69565b80601f016020809104026020016040519081016040528092919081815260200182805461083d90612d69565b801561088a5780601f1061085f5761010080835404028352916020019161088a565b820191906000526020600020905b81548152906001019060200180831161086d57829003601f168201915b50505050509080600201805461089f90612d69565b80601f01602080910402602001604051908101604052809291908181526020018280546108cb90612d69565b80156109185780601f106108ed57610100808354040283529160200191610918565b820191906000526020600020905b8154815290600101906020018083116108fb57829003601f168201915b5050505050908060030154908060040154905085565b6109366110a7565b73ffffffffffffffffffffffffffffffffffffffff166109546109b6565b73ffffffffffffffffffffffffffffffffffffffff16146109aa576040517f08c379a00000000000000000000000000000000000000000000000000000000081526004016109a190612fb2565b60405180910390fd5b6109b460006113c3565b565b6000600360009054906101000a900473ffffffffffffffffffffffffffffffffffffffff16905090565b600281565b6109ed6110a7565b73ffffffffffffffffffffffffffffffffffffffff16610a0b6109b6565b73ffffffffffffffffffffffffffffffffffffffff1614610a61576040517f08c379a0000000000000000000000000000000000000000000000000000000008152600401610a5890612fb2565b60405180910390fd5b60026004541415610aa7576040517f08c379a0000000000000000000000000000000000000000000000000000000008152600401610a9e9061301e565b60405180910390fd5b6002600481905550610ab881611489565b600160048190555050565b610ad5610ace6110a7565b83836114a3565b5050565b6000610ae36110a7565b73ffffffffffffffffffffffffffffffffffffffff16610b016109b6565b73ffffffffffffffffffffffffffffffffffffffff1614610b57576040517f08c379a0000000000000000000000000000000000000000000000000000000008152600401610b4e90612fb2565b60405180910390fd5b60026004541415610b9d576040517f08c379a0000000000000000000000000000000000000000000000000000000008152600401610b949061301e565b60405180910390fd5b6002600481905550610baf6007611610565b6000610bbb6007611626565b9050610bd93382600160405180602001604052806000815250611634565b6040518060a0016040528082815260200187878080601f016020809104026020016040519081016040528093929190818152602001838380828437600081840152601f19601f82011690508083019250505050505050815260200185858080601f016020809104026020016040519081016040528093929190818152602001838380828437600081840152601f19601f82011690508083019250505050505050815260200160018152602001600281525060086000838152602001908152602001600020600082015181600001556020820151816001019080519060200190610cc3929190612020565b506040820151816002019080519060200190610ce0929190612020565b506060820151816003015560808201518160040155905050809150506001600481905550949350505050565b610d146110a7565b73ffffffffffffffffffffffffffffffffffffffff16610d326109b6565b73ffffffffffffffffffffffffffffffffffffffff1614610d88576040517f08c379a0000000000000000000000000000000000000000000000000000000008152600401610d7f90612fb2565b60405180910390fd5b6002600860008481526020019081526020016000206004015414610dab57600080fd5b806fffffffffffffffffffffffffffffffff1660086000848152602001908152602001600020600301819055505050565b60606005610de9836117ca565b604051602001610dfa92919061315a565b6040516020818303038152906040529050919050565b6000600160008473ffffffffffffffffffffffffffffffffffffffff1673ffffffffffffffffffffffffffffffffffffffff16815260200190815260200160002060008373ffffffffffffffffffffffffffffffffffffffff1673ffffffffffffffffffffffffffffffffffffffff16815260200190815260200160002060009054906101000a900460ff16905092915050565b610eac6110a7565b73ffffffffffffffffffffffffffffffffffffffff168573ffffffffffffffffffffffffffffffffffffffff161480610ef25750610ef185610eec6110a7565b610e10565b5b610f31576040517f08c379a0000000000000000000000000000000000000000000000000000000008152600401610f28906131fb565b60405180910390fd5b610f3e858585858561192b565b5050505050565b610f4d6110a7565b73ffffffffffffffffffffffffffffffffffffffff16610f6b6109b6565b73ffffffffffffffffffffffffffffffffffffffff1614610fc1576040517f08c379a0000000000000000000000000000000000000000000000000000000008152600401610fb890612fb2565b60405180910390fd5b600073ffffffffffffffffffffffffffffffffffffffff168173ffffffffffffffffffffffffffffffffffffffff161415611031576040517f08c379a00000000000000000000000000000000000000000000000000000000081526004016110289061328d565b60405180910390fd5b61103a816113c3565b50565b60007f01ffc9a7000000000000000000000000000000000000000000000000000000007bffffffffffffffffffffffffffffffffffffffffffffffffffffffff1916827bffffffffffffffffffffffffffffffffffffffffffffffffffffffff1916149050919050565b600033905090565b81518351146110f3576040517f08c379a00000000000000000000000000000000000000000000000000000000081526004016110ea9061331f565b60405180910390fd5b600073ffffffffffffffffffffffffffffffffffffffff168473ffffffffffffffffffffffffffffffffffffffff161415611163576040517f08c379a000000000000000000000000000000000000000000000000000000000815260040161115a906133b1565b60405180910390fd5b600061116d6110a7565b905061117d818787878787611bad565b60005b845181101561132e57600085828151811061119e5761119d612ebf565b5b6020026020010151905060008583815181106111bd576111bc612ebf565b5b60200260200101519050600080600084815260200190815260200160002060008b73ffffffffffffffffffffffffffffffffffffffff1673ffffffffffffffffffffffffffffffffffffffff1681526020019081526020016000205490508181101561125e576040517f08c379a000000000000000000000000000000000000000000000000000000000815260040161125590613443565b60405180910390fd5b81810360008085815260200190815260200160002060008c73ffffffffffffffffffffffffffffffffffffffff1673ffffffffffffffffffffffffffffffffffffffff168152602001908152602001600020819055508160008085815260200190815260200160002060008b73ffffffffffffffffffffffffffffffffffffffff1673ffffffffffffffffffffffffffffffffffffffff16815260200190815260200160002060008282546113139190613463565b925050819055505050508061132790612f1d565b9050611180565b508473ffffffffffffffffffffffffffffffffffffffff168673ffffffffffffffffffffffffffffffffffffffff168273ffffffffffffffffffffffffffffffffffffffff167f4a39dc06d4c0dbc64b70af90fd698a233a518aa5d07e595d983b8c0526c8f7fb87876040516113a59291906134b9565b60405180910390a46113bb818787878787611bb5565b505050505050565b6000600360009054906101000a900473ffffffffffffffffffffffffffffffffffffffff16905081600360006101000a81548173ffffffffffffffffffffffffffffffffffffffff021916908373ffffffffffffffffffffffffffffffffffffffff1602179055508173ffffffffffffffffffffffffffffffffffffffff168173ffffffffffffffffffffffffffffffffffffffff167f8be0079c531659141344cd1fd0a4f28419497f9722a3daafe3b4186f6b6457e060405160405180910390a35050565b806002908051906020019061149f929190612020565b5050565b8173ffffffffffffffffffffffffffffffffffffffff168373ffffffffffffffffffffffffffffffffffffffff161415611512576040517f08c379a000000000000000000000000000000000000000000000000000000000815260040161150990613562565b60405180910390fd5b80600160008573ffffffffffffffffffffffffffffffffffffffff1673ffffffffffffffffffffffffffffffffffffffff16815260200190815260200160002060008473ffffffffffffffffffffffffffffffffffffffff1673ffffffffffffffffffffffffffffffffffffffff16815260200190815260200160002060006101000a81548160ff0219169083151502179055508173ffffffffffffffffffffffffffffffffffffffff168373ffffffffffffffffffffffffffffffffffffffff167f17307eab39ab6107e8899845ad3d59bd9653f200f220920489ca2b5937696c31836040516116039190612275565b60405180910390a3505050565b6001816000016000828254019250508190555050565b600081600001549050919050565b600073ffffffffffffffffffffffffffffffffffffffff168473ffffffffffffffffffffffffffffffffffffffff1614156116a4576040517f08c379a000000000000000000000000000000000000000000000000000000000815260040161169b906135f4565b60405180910390fd5b60006116ae6110a7565b90506116cf816000876116c088611d9c565b6116c988611d9c565b87611bad565b8260008086815260200190815260200160002060008773ffffffffffffffffffffffffffffffffffffffff1673ffffffffffffffffffffffffffffffffffffffff168152602001908152602001600020600082825461172e9190613463565b925050819055508473ffffffffffffffffffffffffffffffffffffffff16600073ffffffffffffffffffffffffffffffffffffffff168273ffffffffffffffffffffffffffffffffffffffff167fc3d58168c5ae7397731d063d5bbf3d657854427343f4c083240f7aacaa2d0f6287876040516117ac929190613614565b60405180910390a46117c381600087878787611e16565b5050505050565b60606000821415611812576040518060400160405280600181526020017f30000000000000000000000000000000000000000000000000000000000000008152509050611926565b600082905060005b6000821461184457808061182d90612f1d565b915050600a8261183d919061366c565b915061181a565b60008167ffffffffffffffff8111156118605761185f61237d565b5b6040519080825280601f01601f1916602001820160405280156118925781602001600182028036833780820191505090505b5090505b6000851461191f576001826118ab919061369d565b9150600a856118ba91906136d1565b60306118c69190613463565b60f81b8183815181106118dc576118db612ebf565b5b60200101907effffffffffffffffffffffffffffffffffffffffffffffffffffffffffffff1916908160001a905350600a85611918919061366c565b9450611896565b8093505050505b919050565b600073ffffffffffffffffffffffffffffffffffffffff168473ffffffffffffffffffffffffffffffffffffffff16141561199b576040517f08c379a0000000000000000000000000000000000000000000000000000000008152600401611992906133b1565b60405180910390fd5b60006119a56110a7565b90506119c58187876119b688611d9c565b6119bf88611d9c565b87611bad565b600080600086815260200190815260200160002060008873ffffffffffffffffffffffffffffffffffffffff1673ffffffffffffffffffffffffffffffffffffffff16815260200190815260200160002054905083811015611a5c576040517f08c379a0000000000000000000000000000000000000000000000000000000008152600401611a5390613443565b60405180910390fd5b83810360008087815260200190815260200160002060008973ffffffffffffffffffffffffffffffffffffffff1673ffffffffffffffffffffffffffffffffffffffff168152602001908152602001600020819055508360008087815260200190815260200160002060008873ffffffffffffffffffffffffffffffffffffffff1673ffffffffffffffffffffffffffffffffffffffff1681526020019081526020016000206000828254611b119190613463565b925050819055508573ffffffffffffffffffffffffffffffffffffffff168773ffffffffffffffffffffffffffffffffffffffff168373ffffffffffffffffffffffffffffffffffffffff167fc3d58168c5ae7397731d063d5bbf3d657854427343f4c083240f7aacaa2d0f628888604051611b8e929190613614565b60405180910390a4611ba4828888888888611e16565b50505050505050565b505050505050565b611bd48473ffffffffffffffffffffffffffffffffffffffff16611ffd565b15611d94578373ffffffffffffffffffffffffffffffffffffffff1663bc197c8187878686866040518663ffffffff1660e01b8152600401611c1a959493929190613757565b602060405180830381600087803b158015611c3457600080fd5b505af1925050508015611c6557506040513d601f19601f82011682018060405250810190611c6291906137d4565b60015b611d0b57611c7161380e565b806308c379a01415611cce5750611c86613830565b80611c915750611cd0565b806040517f08c379a0000000000000000000000000000000000000000000000000000000008152600401611cc59190612356565b60405180910390fd5b505b6040517f08c379a0000000000000000000000000000000000000000000000000000000008152600401611d0290613938565b60405180910390fd5b63bc197c8160e01b7bffffffffffffffffffffffffffffffffffffffffffffffffffffffff1916817bffffffffffffffffffffffffffffffffffffffffffffffffffffffff191614611d92576040517f08c379a0000000000000000000000000000000000000000000000000000000008152600401611d89906139ca565b60405180910390fd5b505b505050505050565b60606000600167ffffffffffffffff811115611dbb57611dba61237d565b5b604051908082528060200260200182016040528015611de95781602001602082028036833780820191505090505b5090508281600081518110611e0157611e00612ebf565b5b60200260200101818152505080915050919050565b611e358473ffffffffffffffffffffffffffffffffffffffff16611ffd565b15611ff5578373ffffffffffffffffffffffffffffffffffffffff1663f23a6e6187878686866040518663ffffffff1660e01b8152600401611e7b9594939291906139ea565b602060405180830381600087803b158015611e9557600080fd5b505af1925050508015611ec657506040513d601f19601f82011682018060405250810190611ec391906137d4565b60015b611f6c57611ed261380e565b806308c379a01415611f2f5750611ee7613830565b80611ef25750611f31565b806040517f08c379a0000000000000000000000000000000000000000000000000000000008152600401611f269190612356565b60405180910390fd5b505b6040517f08c379a0000000000000000000000000000000000000000000000000000000008152600401611f6390613938565b60405180910390fd5b63f23a6e6160e01b7bffffffffffffffffffffffffffffffffffffffffffffffffffffffff1916817bffffffffffffffffffffffffffffffffffffffffffffffffffffffff191614611ff3576040517f08c379a0000000000000000000000000000000000000000000000000000000008152600401611fea906139ca565b60405180910390fd5b505b505050505050565b6000808273ffffffffffffffffffffffffffffffffffffffff163b119050919050565b82805461202c90612d69565b90600052602060002090601f01602090048101928261204e5760008555612095565b82601f1061206757805160ff1916838001178555612095565b82800160010185558215612095579182015b82811115612094578251825591602001919060010190612079565b5b5090506120a291906120a6565b5090565b5b808211156120bf5760008160009055506001016120a7565b5090565b6000604051905090565b600080fd5b600080fd5b600073ffffffffffffffffffffffffffffffffffffffff82169050919050565b6000612102826120d7565b9050919050565b612112816120f7565b811461211d57600080fd5b50565b60008135905061212f81612109565b92915050565b6000819050919050565b61214881612135565b811461215357600080fd5b50565b6000813590506121658161213f565b92915050565b60008060408385031215612182576121816120cd565b5b600061219085828601612120565b92505060206121a185828601612156565b9150509250929050565b6121b481612135565b82525050565b60006020820190506121cf60008301846121ab565b92915050565b60007fffffffff0000000000000000000000000000000000000000000000000000000082169050919050565b61220a816121d5565b811461221557600080fd5b50565b60008135905061222781612201565b92915050565b600060208284031215612243576122426120cd565b5b600061225184828501612218565b91505092915050565b60008115159050919050565b61226f8161225a565b82525050565b600060208201905061228a6000830184612266565b92915050565b6000602082840312156122a6576122a56120cd565b5b60006122b484828501612156565b91505092915050565b600081519050919050565b600082825260208201905092915050565b60005b838110156122f75780820151818401526020810190506122dc565b83811115612306576000848401525b50505050565b6000601f19601f8301169050919050565b6000612328826122bd565b61233281856122c8565b93506123428185602086016122d9565b61234b8161230c565b840191505092915050565b60006020820190508181036000830152612370818461231d565b905092915050565b600080fd5b7f4e487b7100000000000000000000000000000000000000000000000000000000600052604160045260246000fd5b6123b58261230c565b810181811067ffffffffffffffff821117156123d4576123d361237d565b5b80604052505050565b60006123e76120c3565b90506123f382826123ac565b919050565b600067ffffffffffffffff8211156124135761241261237d565b5b602082029050602081019050919050565b600080fd5b600061243c612437846123f8565b6123dd565b9050808382526020820190506020840283018581111561245f5761245e612424565b5b835b8181101561248857806124748882612156565b845260208401935050602081019050612461565b5050509392505050565b600082601f8301126124a7576124a6612378565b5b81356124b7848260208601612429565b91505092915050565b600080fd5b600067ffffffffffffffff8211156124e0576124df61237d565b5b6124e98261230c565b9050602081019050919050565b82818337600083830152505050565b6000612518612513846124c5565b6123dd565b905082815260208101848484011115612534576125336124c0565b5b61253f8482856124f6565b509392505050565b600082601f83011261255c5761255b612378565b5b813561256c848260208601612505565b91505092915050565b600080600080600060a08688031215612591576125906120cd565b5b600061259f88828901612120565b95505060206125b088828901612120565b945050604086013567ffffffffffffffff8111156125d1576125d06120d2565b5b6125dd88828901612492565b935050606086013567ffffffffffffffff8111156125fe576125fd6120d2565b5b61260a88828901612492565b925050608086013567ffffffffffffffff81111561262b5761262a6120d2565b5b61263788828901612547565b9150509295509295909350565b600067ffffffffffffffff82111561265f5761265e61237d565b5b602082029050602081019050919050565b600061268361267e84612644565b6123dd565b905080838252602082019050602084028301858111156126a6576126a5612424565b5b835b818110156126cf57806126bb8882612120565b8452602084019350506020810190506126a8565b5050509392505050565b600082601f8301126126ee576126ed612378565b5b81356126fe848260208601612670565b91505092915050565b6000806040838503121561271e5761271d6120cd565b5b600083013567ffffffffffffffff81111561273c5761273b6120d2565b5b612748858286016126d9565b925050602083013567ffffffffffffffff811115612769576127686120d2565b5b61277585828601612492565b9150509250929050565b600081519050919050565b600082825260208201905092915050565b6000819050602082019050919050565b6127b481612135565b82525050565b60006127c683836127ab565b60208301905092915050565b6000602082019050919050565b60006127ea8261277f565b6127f4818561278a565b93506127ff8361279b565b8060005b8381101561283057815161281788826127ba565b9750612822836127d2565b925050600181019050612803565b5085935050505092915050565b6000602082019050818103600083015261285781846127df565b905092915050565b600060a08201905061287460008301886121ab565b8181036020830152612886818761231d565b9050818103604083015261289a818661231d565b90506128a960608301856121ab565b6128b660808301846121ab565b9695505050505050565b6128c9816120f7565b82525050565b60006020820190506128e460008301846128c0565b92915050565b600067ffffffffffffffff8211156129055761290461237d565b5b61290e8261230c565b9050602081019050919050565b600061292e612929846128ea565b6123dd565b90508281526020810184848401111561294a576129496124c0565b5b6129558482856124f6565b509392505050565b600082601f83011261297257612971612378565b5b813561298284826020860161291b565b91505092915050565b6000602082840312156129a1576129a06120cd565b5b600082013567ffffffffffffffff8111156129bf576129be6120d2565b5b6129cb8482850161295d565b91505092915050565b6129dd8161225a565b81146129e857600080fd5b50565b6000813590506129fa816129d4565b92915050565b60008060408385031215612a1757612a166120cd565b5b6000612a2585828601612120565b9250506020612a36858286016129eb565b9150509250929050565b600080fd5b60008083601f840112612a5b57612a5a612378565b5b8235905067ffffffffffffffff811115612a7857612a77612a40565b5b602083019150836001820283011115612a9457612a93612424565b5b9250929050565b60008060008060408587031215612ab557612ab46120cd565b5b600085013567ffffffffffffffff811115612ad357612ad26120d2565b5b612adf87828801612a45565b9450945050602085013567ffffffffffffffff811115612b0257612b016120d2565b5b612b0e87828801612a45565b925092505092959194509250565b60006fffffffffffffffffffffffffffffffff82169050919050565b612b4181612b1c565b8114612b4c57600080fd5b50565b600081359050612b5e81612b38565b92915050565b60008060408385031215612b7b57612b7a6120cd565b5b6000612b8985828601612156565b9250506020612b9a85828601612b4f565b9150509250929050565b60008060408385031215612bbb57612bba6120cd565b5b6000612bc985828601612120565b9250506020612bda85828601612120565b9150509250929050565b600080600080600060a08688031215612c0057612bff6120cd565b5b6000612c0e88828901612120565b9550506020612c1f88828901612120565b9450506040612c3088828901612156565b9350506060612c4188828901612156565b925050608086013567ffffffffffffffff811115612c6257612c616120d2565b5b612c6e88828901612547565b9150509295509295909350565b600060208284031215612c9157612c906120cd565b5b6000612c9f84828501612120565b91505092915050565b7f455243313135353a2062616c616e636520717565727920666f7220746865207a60008201527f65726f2061646472657373000000000000000000000000000000000000000000602082015250565b6000612d04602b836122c8565b9150612d0f82612ca8565b604082019050919050565b60006020820190508181036000830152612d3381612cf7565b9050919050565b7f4e487b7100000000000000000000000000000000000000000000000000000000600052602260045260246000fd5b60006002820490506001821680612d8157607f821691505b60208210811415612d9557612d94612d3a565b5b50919050565b7f455243313135353a207472616e736665722063616c6c6572206973206e6f742060008201527f6f776e6572206e6f7220617070726f7665640000000000000000000000000000602082015250565b6000612df76032836122c8565b9150612e0282612d9b565b604082019050919050565b60006020820190508181036000830152612e2681612dea565b9050919050565b7f455243313135353a206163636f756e747320616e6420696473206c656e67746860008201527f206d69736d617463680000000000000000000000000000000000000000000000602082015250565b6000612e896029836122c8565b9150612e9482612e2d565b604082019050919050565b60006020820190508181036000830152612eb881612e7c565b9050919050565b7f4e487b7100000000000000000000000000000000000000000000000000000000600052603260045260246000fd5b7f4e487b7100000000000000000000000000000000000000000000000000000000600052601160045260246000fd5b6000612f2882612135565b91507fffffffffffffffffffffffffffffffffffffffffffffffffffffffffffffffff821415612f5b57612f5a612eee565b5b600182019050919050565b7f4f776e61626c653a2063616c6c6572206973206e6f7420746865206f776e6572600082015250565b6000612f9c6020836122c8565b9150612fa782612f66565b602082019050919050565b60006020820190508181036000830152612fcb81612f8f565b9050919050565b7f5265656e7472616e637947756172643a207265656e7472616e742063616c6c00600082015250565b6000613008601f836122c8565b915061301382612fd2565b602082019050919050565b6000602082019050818103600083015261303781612ffb565b9050919050565b600081905092915050565b60008190508160005260206000209050919050565b6000815461306b81612d69565b613075818661303e565b9450600182166000811461309057600181146130a1576130d4565b60ff198316865281860193506130d4565b6130aa85613049565b60005b838110156130cc578154818901526001820191506020810190506130ad565b838801955050505b50505092915050565b60006130e8826122bd565b6130f2818561303e565b93506131028185602086016122d9565b80840191505092915050565b7f2e6a736f6e000000000000000000000000000000000000000000000000000000600082015250565b600061314460058361303e565b915061314f8261310e565b600582019050919050565b6000613166828561305e565b915061317282846130dd565b915061317d82613137565b91508190509392505050565b7f455243313135353a2063616c6c6572206973206e6f74206f776e6572206e6f7260008201527f20617070726f7665640000000000000000000000000000000000000000000000602082015250565b60006131e56029836122c8565b91506131f082613189565b604082019050919050565b60006020820190508181036000830152613214816131d8565b9050919050565b7f4f776e61626c653a206e6577206f776e657220697320746865207a65726f206160008201527f6464726573730000000000000000000000000000000000000000000000000000602082015250565b60006132776026836122c8565b91506132828261321b565b604082019050919050565b600060208201905081810360008301526132a68161326a565b9050919050565b7f455243313135353a2069647320616e6420616d6f756e7473206c656e6774682060008201527f6d69736d61746368000000000000000000000000000000000000000000000000602082015250565b60006133096028836122c8565b9150613314826132ad565b604082019050919050565b60006020820190508181036000830152613338816132fc565b9050919050565b7f455243313135353a207472616e7366657220746f20746865207a65726f20616460008201527f6472657373000000000000000000000000000000000000000000000000000000602082015250565b600061339b6025836122c8565b91506133a68261333f565b604082019050919050565b600060208201905081810360008301526133ca8161338e565b9050919050565b7f455243313135353a20696e73756666696369656e742062616c616e636520666f60008201527f72207472616e7366657200000000000000000000000000000000000000000000602082015250565b600061342d602a836122c8565b9150613438826133d1565b604082019050919050565b6000602082019050818103600083015261345c81613420565b9050919050565b600061346e82612135565b915061347983612135565b9250827fffffffffffffffffffffffffffffffffffffffffffffffffffffffffffffffff038211156134ae576134ad612eee565b5b828201905092915050565b600060408201905081810360008301526134d381856127df565b905081810360208301526134e781846127df565b90509392505050565b7f455243313135353a2073657474696e6720617070726f76616c2073746174757360008201527f20666f722073656c660000000000000000000000000000000000000000000000602082015250565b600061354c6029836122c8565b9150613557826134f0565b604082019050919050565b6000602082019050818103600083015261357b8161353f565b9050919050565b7f455243313135353a206d696e7420746f20746865207a65726f2061646472657360008201527f7300000000000000000000000000000000000000000000000000000000000000602082015250565b60006135de6021836122c8565b91506135e982613582565b604082019050919050565b6000602082019050818103600083015261360d816135d1565b9050919050565b600060408201905061362960008301856121ab565b61363660208301846121ab565b9392505050565b7f4e487b7100000000000000000000000000000000000000000000000000000000600052601260045260246000fd5b600061367782612135565b915061368283612135565b9250826136925761369161363d565b5b828204905092915050565b60006136a882612135565b91506136b383612135565b9250828210156136c6576136c5612eee565b5b828203905092915050565b60006136dc82612135565b91506136e783612135565b9250826136f7576136f661363d565b5b828206905092915050565b600081519050919050565b600082825260208201905092915050565b600061372982613702565b613733818561370d565b93506137438185602086016122d9565b61374c8161230c565b840191505092915050565b600060a08201905061376c60008301886128c0565b61377960208301876128c0565b818103604083015261378b81866127df565b9050818103606083015261379f81856127df565b905081810360808301526137b3818461371e565b90509695505050505050565b6000815190506137ce81612201565b92915050565b6000602082840312156137ea576137e96120cd565b5b60006137f8848285016137bf565b91505092915050565b60008160e01c9050919050565b600060033d111561382d5760046000803e61382a600051613801565b90505b90565b600060443d1015613840576138c3565b6138486120c3565b60043d036004823e80513d602482011167ffffffffffffffff821117156138705750506138c3565b808201805167ffffffffffffffff81111561388e57505050506138c3565b80602083010160043d0385018111156138ab5750505050506138c3565b6138ba826020018501866123ac565b82955050505050505b90565b7f455243313135353a207472616e7366657220746f206e6f6e204552433131353560008201527f526563656976657220696d706c656d656e746572000000000000000000000000602082015250565b60006139226034836122c8565b915061392d826138c6565b604082019050919050565b6000602082019050818103600083015261395181613915565b9050919050565b7f455243313135353a204552433131353552656365697665722072656a6563746560008201527f6420746f6b656e73000000000000000000000000000000000000000000000000602082015250565b60006139b46028836122c8565b91506139bf82613958565b604082019050919050565b600060208201905081810360008301526139e3816139a7565b9050919050565b600060a0820190506139ff60008301886128c0565b613a0c60208301876128c0565b613a1960408301866121ab565b613a2660608301856121ab565b8181036080830152613a38818461371e565b9050969550505050505056fea26469706673582212204018cc6bf9f17f0cec8b807d31a4e040d20ebb219f853443711543b8a2236e7364736f6c6343000809003368747470733a2f2f7777772e7265616c657374617465636861696e2e65732f6170692f6974656d2f68747470733a2f2f7777772e7265616c657374617465636861696e2e65732f6170692f6974656d2f7b69647d2e6a736f6e",
  "devdoc": {
    "kind": "dev",
    "methods": {
      "addREAT(string,string)": {
        "details": "addREAT() mints the token and updates the token counter",
        "params": {
          "_hashJsonToken": "is the keccak256 of the property metadata",
          "_idCatastro": "is the ID to be provided by the Catastro office"
        },
        "returns": {
          "_0": "ID of the struct REATdata that got created/updated"
        }
      },
      "balanceOf(address,uint256)": {
        "details": "See {IERC1155-balanceOf}. Requirements: - `account` cannot be the zero address."
      },
      "balanceOfBatch(address[],uint256[])": {
        "details": "See {IERC1155-balanceOfBatch}. Requirements: - `accounts` and `ids` must have the same length."
      },
      "getUri(uint256)": {
        "details": "Function to get the URI by passing the tokenId",
        "params": {
          "_tokenId": "variable passed to assign the ID, that is the token type "
        }
      },
      "isApprovedForAll(address,address)": {
        "details": "See {IERC1155-isApprovedForAll}."
      },
      "owner()": {
        "details": "Returns the address of the current owner."
      },
      "paused()": {
        "details": "Returns true if the contract is paused, and false otherwise."
      },
      "renounceOwnership()": {
        "details": "Leaves the contract without owner. It will not be possible to call `onlyOwner` functions anymore. Can only be called by the current owner. NOTE: Renouncing ownership will leave the contract without an owner, thereby removing any functionality that is only available to the owner."
      },
      "safeBatchTransferFrom(address,address,uint256[],uint256[],bytes)": {
        "details": "See {IERC1155-safeBatchTransferFrom}."
      },
      "safeTransferFrom(address,address,uint256,uint256,bytes)": {
        "details": "See {IERC1155-safeTransferFrom}."
      },
      "setApprovalForAll(address,bool)": {
        "details": "See {IERC1155-setApprovalForAll}."
      },
      "supportsInterface(bytes4)": {
        "details": "See {IERC165-supportsInterface}."
      },
      "transferOwnership(address)": {
        "details": "Transfers ownership of the contract to a new account (`newOwner`). Can only be called by the current owner."
      },
      "updateHashJsonDoc(uint256,uint128)": {
        "details": "This function will update the json hash whenever there are updates in property docs",
        "params": {
          "_id": "used to search in the reatdata mapping to find the struct that will be updated",
          "_newHashJsonDoc": "is the new hash that will replace the hashJsonDoc inside the struct reatdata"
        }
      },
      "updateMasterUri(string)": {
        "details": "updateMasterUri() sets a new URI for the token type passed as argumentwhere is the OWNER defined ?",
        "params": {
          "uri_": "is the ID that will be set for the token type"
        }
      },
      "uri(uint256)": {
        "details": "See {IERC1155MetadataURI-uri}. This implementation returns the same URI for *all* token types. It relies on the token type ID substitution mechanism https://eips.ethereum.org/EIPS/eip-1155#metadata[defined in the EIP]. Clients calling this function must replace the `\\{id\\}` substring with the actual token type ID."
      }
    },
    "stateVariables": {
      "reatdata": {
        "details": "a mapping to index all REATData structs created in the contract"
      }
    },
    "version": 1
  },
  "userdoc": {
    "kind": "user",
    "methods": {
      "addREAT(string,string)": {
        "notice": "why are we passing the parameters as calldata ?token minted with URI property \"hashJsonDoc\" empty. It'll be added later on"
      },
      "getUri(uint256)": {
        "notice": "it takes the base URI and concatenates the _tokenId and adds \".json\" in the end"
      },
      "updateMasterUri(string)": {
        "notice": "a new token type is created for every single propertyinherited modifier \"nonReentrant\" from ReentrancyGuard contract"
      }
    },
    "version": 1
  },
  "storageLayout": {
    "storage": [
      {
        "astId": 262,
        "contract": "contracts/MasterREAT_EG_ext_Savings.sol:MasterREAT_EG_ext_Savings",
        "label": "_balances",
        "offset": 0,
        "slot": "0",
        "type": "t_mapping(t_uint256,t_mapping(t_address,t_uint256))"
      },
      {
        "astId": 268,
        "contract": "contracts/MasterREAT_EG_ext_Savings.sol:MasterREAT_EG_ext_Savings",
        "label": "_operatorApprovals",
        "offset": 0,
        "slot": "1",
        "type": "t_mapping(t_address,t_mapping(t_address,t_bool))"
      },
      {
        "astId": 270,
        "contract": "contracts/MasterREAT_EG_ext_Savings.sol:MasterREAT_EG_ext_Savings",
        "label": "_uri",
        "offset": 0,
        "slot": "2",
        "type": "t_string_storage"
      },
      {
        "astId": 7,
        "contract": "contracts/MasterREAT_EG_ext_Savings.sol:MasterREAT_EG_ext_Savings",
        "label": "_owner",
        "offset": 0,
        "slot": "3",
        "type": "t_address"
      },
      {
        "astId": 122,
        "contract": "contracts/MasterREAT_EG_ext_Savings.sol:MasterREAT_EG_ext_Savings",
        "label": "_paused",
        "offset": 20,
        "slot": "3",
        "type": "t_bool"
      },
      {
        "astId": 207,
        "contract": "contracts/MasterREAT_EG_ext_Savings.sol:MasterREAT_EG_ext_Savings",
        "label": "_status",
        "offset": 0,
        "slot": "4",
        "type": "t_uint256"
      },
      {
        "astId": 2207,
        "contract": "contracts/MasterREAT_EG_ext_Savings.sol:MasterREAT_EG_ext_Savings",
        "label": "baseUri",
        "offset": 0,
        "slot": "5",
        "type": "t_string_storage"
      },
      {
        "astId": 2217,
        "contract": "contracts/MasterREAT_EG_ext_Savings.sol:MasterREAT_EG_ext_Savings",
        "label": "_owner",
        "offset": 0,
        "slot": "6",
        "type": "t_address"
      },
      {
        "astId": 2224,
        "contract": "contracts/MasterREAT_EG_ext_Savings.sol:MasterREAT_EG_ext_Savings",
        "label": "_reatAutoId",
        "offset": 0,
        "slot": "7",
        "type": "t_struct(Counter)1880_storage"
      },
      {
        "astId": 2241,
        "contract": "contracts/MasterREAT_EG_ext_Savings.sol:MasterREAT_EG_ext_Savings",
        "label": "reatdata",
        "offset": 0,
        "slot": "8",
        "type": "t_mapping(t_uint256,t_struct(REATData)2235_storage)"
      }
    ],
    "types": {
      "t_address": {
        "encoding": "inplace",
        "label": "address",
        "numberOfBytes": "20"
      },
      "t_bool": {
        "encoding": "inplace",
        "label": "bool",
        "numberOfBytes": "1"
      },
      "t_mapping(t_address,t_bool)": {
        "encoding": "mapping",
        "key": "t_address",
        "label": "mapping(address => bool)",
        "numberOfBytes": "32",
        "value": "t_bool"
      },
      "t_mapping(t_address,t_mapping(t_address,t_bool))": {
        "encoding": "mapping",
        "key": "t_address",
        "label": "mapping(address => mapping(address => bool))",
        "numberOfBytes": "32",
        "value": "t_mapping(t_address,t_bool)"
      },
      "t_mapping(t_address,t_uint256)": {
        "encoding": "mapping",
        "key": "t_address",
        "label": "mapping(address => uint256)",
        "numberOfBytes": "32",
        "value": "t_uint256"
      },
      "t_mapping(t_uint256,t_mapping(t_address,t_uint256))": {
        "encoding": "mapping",
        "key": "t_uint256",
        "label": "mapping(uint256 => mapping(address => uint256))",
        "numberOfBytes": "32",
        "value": "t_mapping(t_address,t_uint256)"
      },
      "t_mapping(t_uint256,t_struct(REATData)2235_storage)": {
        "encoding": "mapping",
        "key": "t_uint256",
        "label": "mapping(uint256 => struct MasterREAT_EG_ext_Savings.REATData)",
        "numberOfBytes": "32",
        "value": "t_struct(REATData)2235_storage"
      },
      "t_string_storage": {
        "encoding": "bytes",
        "label": "string",
        "numberOfBytes": "32"
      },
      "t_struct(Counter)1880_storage": {
        "encoding": "inplace",
        "label": "struct Counters.Counter",
        "members": [
          {
            "astId": 1879,
            "contract": "contracts/MasterREAT_EG_ext_Savings.sol:MasterREAT_EG_ext_Savings",
            "label": "_value",
            "offset": 0,
            "slot": "0",
            "type": "t_uint256"
          }
        ],
        "numberOfBytes": "32"
      },
      "t_struct(REATData)2235_storage": {
        "encoding": "inplace",
        "label": "struct MasterREAT_EG_ext_Savings.REATData",
        "members": [
          {
            "astId": 2226,
            "contract": "contracts/MasterREAT_EG_ext_Savings.sol:MasterREAT_EG_ext_Savings",
            "label": "REATid",
            "offset": 0,
            "slot": "0",
            "type": "t_uint256"
          },
          {
            "astId": 2228,
            "contract": "contracts/MasterREAT_EG_ext_Savings.sol:MasterREAT_EG_ext_Savings",
            "label": "idCatastro",
            "offset": 0,
            "slot": "1",
            "type": "t_string_storage"
          },
          {
            "astId": 2230,
            "contract": "contracts/MasterREAT_EG_ext_Savings.sol:MasterREAT_EG_ext_Savings",
            "label": "hashJsonToken",
            "offset": 0,
            "slot": "2",
            "type": "t_string_storage"
          },
          {
            "astId": 2232,
            "contract": "contracts/MasterREAT_EG_ext_Savings.sol:MasterREAT_EG_ext_Savings",
            "label": "hashJsonDoc",
            "offset": 0,
            "slot": "3",
            "type": "t_uint256"
          },
          {
            "astId": 2234,
            "contract": "contracts/MasterREAT_EG_ext_Savings.sol:MasterREAT_EG_ext_Savings",
            "label": "exists",
            "offset": 0,
            "slot": "4",
            "type": "t_uint256"
          }
        ],
        "numberOfBytes": "160"
      },
      "t_uint256": {
        "encoding": "inplace",
        "label": "uint256",
        "numberOfBytes": "32"
      }
    }
  }
}