{
  "address": "0x3E8a387bFC9b7774266813d2756026a1E7d97734",
  "abi": [
    {
      "inputs": [],
      "stateMutability": "nonpayable",
      "type": "constructor"
    },
    {
      "anonymous": false,
      "inputs": [
        {
          "indexed": true,
          "internalType": "address",
          "name": "account",
          "type": "address"
        },
        {
          "indexed": true,
          "internalType": "address",
          "name": "operator",
          "type": "address"
        },
        {
          "indexed": false,
          "internalType": "bool",
          "name": "approved",
          "type": "bool"
        }
      ],
      "name": "ApprovalForAll",
      "type": "event"
    },
    {
      "anonymous": false,
      "inputs": [
        {
          "indexed": true,
          "internalType": "address",
          "name": "previousOwner",
          "type": "address"
        },
        {
          "indexed": true,
          "internalType": "address",
          "name": "newOwner",
          "type": "address"
        }
      ],
      "name": "OwnershipTransferred",
      "type": "event"
    },
    {
      "anonymous": false,
      "inputs": [
        {
          "indexed": true,
          "internalType": "address",
          "name": "operator",
          "type": "address"
        },
        {
          "indexed": true,
          "internalType": "address",
          "name": "from",
          "type": "address"
        },
        {
          "indexed": true,
          "internalType": "address",
          "name": "to",
          "type": "address"
        },
        {
          "indexed": false,
          "internalType": "uint256[]",
          "name": "ids",
          "type": "uint256[]"
        },
        {
          "indexed": false,
          "internalType": "uint256[]",
          "name": "values",
          "type": "uint256[]"
        }
      ],
      "name": "TransferBatch",
      "type": "event"
    },
    {
      "anonymous": false,
      "inputs": [
        {
          "indexed": true,
          "internalType": "address",
          "name": "operator",
          "type": "address"
        },
        {
          "indexed": true,
          "internalType": "address",
          "name": "from",
          "type": "address"
        },
        {
          "indexed": true,
          "internalType": "address",
          "name": "to",
          "type": "address"
        },
        {
          "indexed": false,
          "internalType": "uint256",
          "name": "id",
          "type": "uint256"
        },
        {
          "indexed": false,
          "internalType": "uint256",
          "name": "value",
          "type": "uint256"
        }
      ],
      "name": "TransferSingle",
      "type": "event"
    },
    {
      "anonymous": false,
      "inputs": [
        {
          "indexed": false,
          "internalType": "string",
          "name": "value",
          "type": "string"
        },
        {
          "indexed": true,
          "internalType": "uint256",
          "name": "id",
          "type": "uint256"
        }
      ],
      "name": "URI",
      "type": "event"
    },
    {
      "inputs": [
        {
          "internalType": "string",
          "name": "_idCatastro",
          "type": "string"
        },
        {
          "internalType": "string",
          "name": "_hashJsonToken",
          "type": "string"
        }
      ],
      "name": "addREAT",
      "outputs": [
        {
          "internalType": "uint256",
          "name": "",
          "type": "uint256"
        }
      ],
      "stateMutability": "nonpayable",
      "type": "function"
    },
    {
      "inputs": [
        {
          "internalType": "address",
          "name": "account",
          "type": "address"
        },
        {
          "internalType": "uint256",
          "name": "id",
          "type": "uint256"
        }
      ],
      "name": "balanceOf",
      "outputs": [
        {
          "internalType": "uint256",
          "name": "",
          "type": "uint256"
        }
      ],
      "stateMutability": "view",
      "type": "function"
    },
    {
      "inputs": [
        {
          "internalType": "address[]",
          "name": "accounts",
          "type": "address[]"
        },
        {
          "internalType": "uint256[]",
          "name": "ids",
          "type": "uint256[]"
        }
      ],
      "name": "balanceOfBatch",
      "outputs": [
        {
          "internalType": "uint256[]",
          "name": "",
          "type": "uint256[]"
        }
      ],
      "stateMutability": "view",
      "type": "function"
    },
    {
      "inputs": [],
      "name": "getBaseUri",
      "outputs": [
        {
          "internalType": "string",
          "name": "",
          "type": "string"
        }
      ],
      "stateMutability": "view",
      "type": "function"
    },
    {
      "inputs": [
        {
          "internalType": "uint256",
          "name": "_tokenId",
          "type": "uint256"
        }
      ],
      "name": "getUri",
      "outputs": [
        {
          "internalType": "string",
          "name": "",
          "type": "string"
        }
      ],
      "stateMutability": "view",
      "type": "function"
    },
    {
      "inputs": [
        {
          "internalType": "address",
          "name": "account",
          "type": "address"
        },
        {
          "internalType": "address",
          "name": "operator",
          "type": "address"
        }
      ],
      "name": "isApprovedForAll",
      "outputs": [
        {
          "internalType": "bool",
          "name": "",
          "type": "bool"
        }
      ],
      "stateMutability": "view",
      "type": "function"
    },
    {
      "inputs": [],
      "name": "owner",
      "outputs": [
        {
          "internalType": "address",
          "name": "",
          "type": "address"
        }
      ],
      "stateMutability": "view",
      "type": "function"
    },
    {
      "inputs": [
        {
          "internalType": "uint256",
          "name": "",
          "type": "uint256"
        }
      ],
      "name": "reatdata",
      "outputs": [
        {
          "internalType": "uint256",
          "name": "REATid",
          "type": "uint256"
        },
        {
          "internalType": "string",
          "name": "idCatastro",
          "type": "string"
        },
        {
          "internalType": "string",
          "name": "hashJsonToken",
          "type": "string"
        },
        {
          "internalType": "string",
          "name": "hashJsonDoc",
          "type": "string"
        },
        {
          "internalType": "bool",
          "name": "exists",
          "type": "bool"
        }
      ],
      "stateMutability": "view",
      "type": "function"
    },
    {
      "inputs": [],
      "name": "renounceOwnership",
      "outputs": [],
      "stateMutability": "nonpayable",
      "type": "function"
    },
    {
      "inputs": [
        {
          "internalType": "address",
          "name": "from",
          "type": "address"
        },
        {
          "internalType": "address",
          "name": "to",
          "type": "address"
        },
        {
          "internalType": "uint256[]",
          "name": "ids",
          "type": "uint256[]"
        },
        {
          "internalType": "uint256[]",
          "name": "amounts",
          "type": "uint256[]"
        },
        {
          "internalType": "bytes",
          "name": "data",
          "type": "bytes"
        }
      ],
      "name": "safeBatchTransferFrom",
      "outputs": [],
      "stateMutability": "nonpayable",
      "type": "function"
    },
    {
      "inputs": [
        {
          "internalType": "address",
          "name": "from",
          "type": "address"
        },
        {
          "internalType": "address",
          "name": "to",
          "type": "address"
        },
        {
          "internalType": "uint256",
          "name": "id",
          "type": "uint256"
        },
        {
          "internalType": "uint256",
          "name": "amount",
          "type": "uint256"
        },
        {
          "internalType": "bytes",
          "name": "data",
          "type": "bytes"
        }
      ],
      "name": "safeTransferFrom",
      "outputs": [],
      "stateMutability": "nonpayable",
      "type": "function"
    },
    {
      "inputs": [
        {
          "internalType": "address",
          "name": "operator",
          "type": "address"
        },
        {
          "internalType": "bool",
          "name": "approved",
          "type": "bool"
        }
      ],
      "name": "setApprovalForAll",
      "outputs": [],
      "stateMutability": "nonpayable",
      "type": "function"
    },
    {
      "inputs": [
        {
          "internalType": "bytes4",
          "name": "interfaceId",
          "type": "bytes4"
        }
      ],
      "name": "supportsInterface",
      "outputs": [
        {
          "internalType": "bool",
          "name": "",
          "type": "bool"
        }
      ],
      "stateMutability": "view",
      "type": "function"
    },
    {
      "inputs": [
        {
          "internalType": "address",
          "name": "newOwner",
          "type": "address"
        }
      ],
      "name": "transferOwnership",
      "outputs": [],
      "stateMutability": "nonpayable",
      "type": "function"
    },
    {
      "inputs": [
        {
          "internalType": "uint256",
          "name": "_id",
          "type": "uint256"
        },
        {
          "internalType": "string",
          "name": "_newHashJsonDoc",
          "type": "string"
        }
      ],
      "name": "updateHashJsonDoc",
      "outputs": [],
      "stateMutability": "nonpayable",
      "type": "function"
    },
    {
      "inputs": [
        {
          "internalType": "string",
          "name": "uri_",
          "type": "string"
        }
      ],
      "name": "updateMasterUri",
      "outputs": [],
      "stateMutability": "nonpayable",
      "type": "function"
    },
    {
      "inputs": [
        {
          "internalType": "uint256",
          "name": "",
          "type": "uint256"
        }
      ],
      "name": "uri",
      "outputs": [
        {
          "internalType": "string",
          "name": "",
          "type": "string"
        }
      ],
      "stateMutability": "view",
      "type": "function"
    }
  ],
  "transactionHash": "0x6b793c128126795938c0136ccc34757696092a7543dc4d76c4673bdaa8ef0601",
  "args": [],
  "numDeployments": 6,
  "solcInputHash": "b4af45348affdfd965a9921110f21899",
  "bytecode": "0x608060405260405180606001604052806028815260200162003d6460289139600490805190602001906200003592919062000180565b503480156200004357600080fd5b5060405180606001604052806031815260200162003d8c603191396200006f816200009660201b60201c565b506200009062000084620000b260201b60201c565b620000ba60201b60201c565b62000295565b8060029080519060200190620000ae92919062000180565b5050565b600033905090565b6000600360009054906101000a900473ffffffffffffffffffffffffffffffffffffffff16905081600360006101000a81548173ffffffffffffffffffffffffffffffffffffffff021916908373ffffffffffffffffffffffffffffffffffffffff1602179055508173ffffffffffffffffffffffffffffffffffffffff168173ffffffffffffffffffffffffffffffffffffffff167f8be0079c531659141344cd1fd0a4f28419497f9722a3daafe3b4186f6b6457e060405160405180910390a35050565b8280546200018e906200025f565b90600052602060002090601f016020900481019282620001b25760008555620001fe565b82601f10620001cd57805160ff1916838001178555620001fe565b82800160010185558215620001fe579182015b82811115620001fd578251825591602001919060010190620001e0565b5b5090506200020d919062000211565b5090565b5b808211156200022c57600081600090555060010162000212565b5090565b7f4e487b7100000000000000000000000000000000000000000000000000000000600052602260045260246000fd5b600060028204905060018216806200027857607f821691505b602082108114156200028f576200028e62000230565b5b50919050565b613abf80620002a56000396000f3fe608060405234801561001057600080fd5b506004361061010a5760003560e01c8063715018a6116100a2578063acbe9dd611610071578063acbe9dd6146102b9578063da0544aa146102e9578063e985e9c514610319578063f242432a14610349578063f2fde38b146103655761010a565b8063715018a6146102595780638da5cb5b146102635780639dcbf87614610281578063a22cb4651461029d5761010a565b806327786ae1116100de57806327786ae1146101bd5780632eb2c2d6146101d95780634e1273f4146101f55780635d9a8a45146102255761010a565b8062fdd58e1461010f57806301ffc9a71461013f5780630cac36b21461016f5780630e89341c1461018d575b600080fd5b6101296004803603810190610124919061223d565b610381565b604051610136919061228c565b60405180910390f35b610159600480360381019061015491906122ff565b61044a565b6040516101669190612347565b60405180910390f35b61017761052c565b60405161018491906123fb565b60405180910390f35b6101a760048036038101906101a2919061241d565b6105be565b6040516101b491906123fb565b60405180910390f35b6101d760048036038101906101d291906124af565b610652565b005b6101f360048036038101906101ee9190612702565b61072d565b005b61020f600480360381019061020a9190612894565b6107ce565b60405161021c91906129ca565b60405180910390f35b61023f600480360381019061023a919061241d565b6108e7565b6040516102509594939291906129ec565b60405180910390f35b610261610ac2565b005b61026b610b4a565b6040516102789190612a63565b60405180910390f35b61029b60048036038101906102969190612b1f565b610b74565b005b6102b760048036038101906102b29190612b94565b610bfc565b005b6102d360048036038101906102ce9190612bd4565b610c12565b6040516102e0919061228c565b60405180910390f35b61030360048036038101906102fe919061241d565b610e28565b60405161031091906123fb565b60405180910390f35b610333600480360381019061032e9190612c55565b610e5c565b6040516103409190612347565b60405180910390f35b610363600480360381019061035e9190612c95565b610ef0565b005b61037f600480360381019061037a9190612d2c565b610f91565b005b60008073ffffffffffffffffffffffffffffffffffffffff168373ffffffffffffffffffffffffffffffffffffffff1614156103f2576040517f08c379a00000000000000000000000000000000000000000000000000000000081526004016103e990612dcb565b60405180910390fd5b60008083815260200190815260200160002060008473ffffffffffffffffffffffffffffffffffffffff1673ffffffffffffffffffffffffffffffffffffffff16815260200190815260200160002054905092915050565b60007fd9b67a26000000000000000000000000000000000000000000000000000000007bffffffffffffffffffffffffffffffffffffffffffffffffffffffff1916827bffffffffffffffffffffffffffffffffffffffffffffffffffffffff1916148061051557507f0e89341c000000000000000000000000000000000000000000000000000000007bffffffffffffffffffffffffffffffffffffffffffffffffffffffff1916827bffffffffffffffffffffffffffffffffffffffffffffffffffffffff1916145b80610525575061052482611089565b5b9050919050565b60606004805461053b90612e1a565b80601f016020809104026020016040519081016040528092919081815260200182805461056790612e1a565b80156105b45780601f10610589576101008083540402835291602001916105b4565b820191906000526020600020905b81548152906001019060200180831161059757829003601f168201915b5050505050905090565b6060600280546105cd90612e1a565b80601f01602080910402602001604051908101604052809291908181526020018280546105f990612e1a565b80156106465780601f1061061b57610100808354040283529160200191610646565b820191906000526020600020905b81548152906001019060200180831161062957829003601f168201915b50505050509050919050565b61065a6110f3565b73ffffffffffffffffffffffffffffffffffffffff16610678610b4a565b73ffffffffffffffffffffffffffffffffffffffff16146106ce576040517f08c379a00000000000000000000000000000000000000000000000000000000081526004016106c590612e98565b60405180910390fd5b600115156006600085815260200190815260200160002060040160009054906101000a900460ff1615151461070257600080fd5b818160066000868152602001908152602001600020600301919061072792919061206c565b50505050565b6107356110f3565b73ffffffffffffffffffffffffffffffffffffffff168573ffffffffffffffffffffffffffffffffffffffff16148061077b575061077a856107756110f3565b610e5c565b5b6107ba576040517f08c379a00000000000000000000000000000000000000000000000000000000081526004016107b190612f2a565b60405180910390fd5b6107c785858585856110fb565b5050505050565b60608151835114610814576040517f08c379a000000000000000000000000000000000000000000000000000000000815260040161080b90612fbc565b60405180910390fd5b6000835167ffffffffffffffff8111156108315761083061250f565b5b60405190808252806020026020018201604052801561085f5781602001602082028036833780820191505090505b50905060005b84518110156108dc576108ac85828151811061088457610883612fdc565b5b602002602001015185838151811061089f5761089e612fdc565b5b6020026020010151610381565b8282815181106108bf576108be612fdc565b5b602002602001018181525050806108d59061303a565b9050610865565b508091505092915050565b600660205280600052604060002060009150905080600001549080600101805461091090612e1a565b80601f016020809104026020016040519081016040528092919081815260200182805461093c90612e1a565b80156109895780601f1061095e57610100808354040283529160200191610989565b820191906000526020600020905b81548152906001019060200180831161096c57829003601f168201915b50505050509080600201805461099e90612e1a565b80601f01602080910402602001604051908101604052809291908181526020018280546109ca90612e1a565b8015610a175780601f106109ec57610100808354040283529160200191610a17565b820191906000526020600020905b8154815290600101906020018083116109fa57829003601f168201915b505050505090806003018054610a2c90612e1a565b80601f0160208091040260200160405190810160405280929190818152602001828054610a5890612e1a565b8015610aa55780601f10610a7a57610100808354040283529160200191610aa5565b820191906000526020600020905b815481529060010190602001808311610a8857829003601f168201915b5050505050908060040160009054906101000a900460ff16905085565b610aca6110f3565b73ffffffffffffffffffffffffffffffffffffffff16610ae8610b4a565b73ffffffffffffffffffffffffffffffffffffffff1614610b3e576040517f08c379a0000000000000000000000000000000000000000000000000000000008152600401610b3590612e98565b60405180910390fd5b610b48600061140f565b565b6000600360009054906101000a900473ffffffffffffffffffffffffffffffffffffffff16905090565b610b7c6110f3565b73ffffffffffffffffffffffffffffffffffffffff16610b9a610b4a565b73ffffffffffffffffffffffffffffffffffffffff1614610bf0576040517f08c379a0000000000000000000000000000000000000000000000000000000008152600401610be790612e98565b60405180910390fd5b610bf9816114d5565b50565b610c0e610c076110f3565b83836114ef565b5050565b6000610c1c6110f3565b73ffffffffffffffffffffffffffffffffffffffff16610c3a610b4a565b73ffffffffffffffffffffffffffffffffffffffff1614610c90576040517f08c379a0000000000000000000000000000000000000000000000000000000008152600401610c8790612e98565b60405180910390fd5b610c9a600561165c565b6000610ca66005611672565b9050610cc43382600160405180602001604052806000815250611680565b6040518060a0016040528082815260200187878080601f016020809104026020016040519081016040528093929190818152602001838380828437600081840152601f19601f82011690508083019250505050505050815260200185858080601f016020809104026020016040519081016040528093929190818152602001838380828437600081840152601f19601f8201169050808301925050505050505081526020016040518060200160405280600081525081526020016001151581525060066000838152602001908152602001600020600082015181600001556020820151816001019080519060200190610dbe9291906120f2565b506040820151816002019080519060200190610ddb9291906120f2565b506060820151816003019080519060200190610df89291906120f2565b5060808201518160040160006101000a81548160ff02191690831515021790555090505080915050949350505050565b60606004610e3583611816565b604051602001610e4692919061319f565b6040516020818303038152906040529050919050565b6000600160008473ffffffffffffffffffffffffffffffffffffffff1673ffffffffffffffffffffffffffffffffffffffff16815260200190815260200160002060008373ffffffffffffffffffffffffffffffffffffffff1673ffffffffffffffffffffffffffffffffffffffff16815260200190815260200160002060009054906101000a900460ff16905092915050565b610ef86110f3565b73ffffffffffffffffffffffffffffffffffffffff168573ffffffffffffffffffffffffffffffffffffffff161480610f3e5750610f3d85610f386110f3565b610e5c565b5b610f7d576040517f08c379a0000000000000000000000000000000000000000000000000000000008152600401610f7490613240565b60405180910390fd5b610f8a8585858585611977565b5050505050565b610f996110f3565b73ffffffffffffffffffffffffffffffffffffffff16610fb7610b4a565b73ffffffffffffffffffffffffffffffffffffffff161461100d576040517f08c379a000000000000000000000000000000000000000000000000000000000815260040161100490612e98565b60405180910390fd5b600073ffffffffffffffffffffffffffffffffffffffff168173ffffffffffffffffffffffffffffffffffffffff16141561107d576040517f08c379a0000000000000000000000000000000000000000000000000000000008152600401611074906132d2565b60405180910390fd5b6110868161140f565b50565b60007f01ffc9a7000000000000000000000000000000000000000000000000000000007bffffffffffffffffffffffffffffffffffffffffffffffffffffffff1916827bffffffffffffffffffffffffffffffffffffffffffffffffffffffff1916149050919050565b600033905090565b815183511461113f576040517f08c379a000000000000000000000000000000000000000000000000000000000815260040161113690613364565b60405180910390fd5b600073ffffffffffffffffffffffffffffffffffffffff168473ffffffffffffffffffffffffffffffffffffffff1614156111af576040517f08c379a00000000000000000000000000000000000000000000000000000000081526004016111a6906133f6565b60405180910390fd5b60006111b96110f3565b90506111c9818787878787611bf9565b60005b845181101561137a5760008582815181106111ea576111e9612fdc565b5b60200260200101519050600085838151811061120957611208612fdc565b5b60200260200101519050600080600084815260200190815260200160002060008b73ffffffffffffffffffffffffffffffffffffffff1673ffffffffffffffffffffffffffffffffffffffff168152602001908152602001600020549050818110156112aa576040517f08c379a00000000000000000000000000000000000000000000000000000000081526004016112a190613488565b60405180910390fd5b81810360008085815260200190815260200160002060008c73ffffffffffffffffffffffffffffffffffffffff1673ffffffffffffffffffffffffffffffffffffffff168152602001908152602001600020819055508160008085815260200190815260200160002060008b73ffffffffffffffffffffffffffffffffffffffff1673ffffffffffffffffffffffffffffffffffffffff168152602001908152602001600020600082825461135f91906134a8565b92505081905550505050806113739061303a565b90506111cc565b508473ffffffffffffffffffffffffffffffffffffffff168673ffffffffffffffffffffffffffffffffffffffff168273ffffffffffffffffffffffffffffffffffffffff167f4a39dc06d4c0dbc64b70af90fd698a233a518aa5d07e595d983b8c0526c8f7fb87876040516113f19291906134fe565b60405180910390a4611407818787878787611c01565b505050505050565b6000600360009054906101000a900473ffffffffffffffffffffffffffffffffffffffff16905081600360006101000a81548173ffffffffffffffffffffffffffffffffffffffff021916908373ffffffffffffffffffffffffffffffffffffffff1602179055508173ffffffffffffffffffffffffffffffffffffffff168173ffffffffffffffffffffffffffffffffffffffff167f8be0079c531659141344cd1fd0a4f28419497f9722a3daafe3b4186f6b6457e060405160405180910390a35050565b80600290805190602001906114eb9291906120f2565b5050565b8173ffffffffffffffffffffffffffffffffffffffff168373ffffffffffffffffffffffffffffffffffffffff16141561155e576040517f08c379a0000000000000000000000000000000000000000000000000000000008152600401611555906135a7565b60405180910390fd5b80600160008573ffffffffffffffffffffffffffffffffffffffff1673ffffffffffffffffffffffffffffffffffffffff16815260200190815260200160002060008473ffffffffffffffffffffffffffffffffffffffff1673ffffffffffffffffffffffffffffffffffffffff16815260200190815260200160002060006101000a81548160ff0219169083151502179055508173ffffffffffffffffffffffffffffffffffffffff168373ffffffffffffffffffffffffffffffffffffffff167f17307eab39ab6107e8899845ad3d59bd9653f200f220920489ca2b5937696c318360405161164f9190612347565b60405180910390a3505050565b6001816000016000828254019250508190555050565b600081600001549050919050565b600073ffffffffffffffffffffffffffffffffffffffff168473ffffffffffffffffffffffffffffffffffffffff1614156116f0576040517f08c379a00000000000000000000000000000000000000000000000000000000081526004016116e790613639565b60405180910390fd5b60006116fa6110f3565b905061171b8160008761170c88611de8565b61171588611de8565b87611bf9565b8260008086815260200190815260200160002060008773ffffffffffffffffffffffffffffffffffffffff1673ffffffffffffffffffffffffffffffffffffffff168152602001908152602001600020600082825461177a91906134a8565b925050819055508473ffffffffffffffffffffffffffffffffffffffff16600073ffffffffffffffffffffffffffffffffffffffff168273ffffffffffffffffffffffffffffffffffffffff167fc3d58168c5ae7397731d063d5bbf3d657854427343f4c083240f7aacaa2d0f6287876040516117f8929190613659565b60405180910390a461180f81600087878787611e62565b5050505050565b6060600082141561185e576040518060400160405280600181526020017f30000000000000000000000000000000000000000000000000000000000000008152509050611972565b600082905060005b600082146118905780806118799061303a565b915050600a8261188991906136b1565b9150611866565b60008167ffffffffffffffff8111156118ac576118ab61250f565b5b6040519080825280601f01601f1916602001820160405280156118de5781602001600182028036833780820191505090505b5090505b6000851461196b576001826118f791906136e2565b9150600a856119069190613716565b603061191291906134a8565b60f81b81838151811061192857611927612fdc565b5b60200101907effffffffffffffffffffffffffffffffffffffffffffffffffffffffffffff1916908160001a905350600a8561196491906136b1565b94506118e2565b8093505050505b919050565b600073ffffffffffffffffffffffffffffffffffffffff168473ffffffffffffffffffffffffffffffffffffffff1614156119e7576040517f08c379a00000000000000000000000000000000000000000000000000000000081526004016119de906133f6565b60405180910390fd5b60006119f16110f3565b9050611a11818787611a0288611de8565b611a0b88611de8565b87611bf9565b600080600086815260200190815260200160002060008873ffffffffffffffffffffffffffffffffffffffff1673ffffffffffffffffffffffffffffffffffffffff16815260200190815260200160002054905083811015611aa8576040517f08c379a0000000000000000000000000000000000000000000000000000000008152600401611a9f90613488565b60405180910390fd5b83810360008087815260200190815260200160002060008973ffffffffffffffffffffffffffffffffffffffff1673ffffffffffffffffffffffffffffffffffffffff168152602001908152602001600020819055508360008087815260200190815260200160002060008873ffffffffffffffffffffffffffffffffffffffff1673ffffffffffffffffffffffffffffffffffffffff1681526020019081526020016000206000828254611b5d91906134a8565b925050819055508573ffffffffffffffffffffffffffffffffffffffff168773ffffffffffffffffffffffffffffffffffffffff168373ffffffffffffffffffffffffffffffffffffffff167fc3d58168c5ae7397731d063d5bbf3d657854427343f4c083240f7aacaa2d0f628888604051611bda929190613659565b60405180910390a4611bf0828888888888611e62565b50505050505050565b505050505050565b611c208473ffffffffffffffffffffffffffffffffffffffff16612049565b15611de0578373ffffffffffffffffffffffffffffffffffffffff1663bc197c8187878686866040518663ffffffff1660e01b8152600401611c6695949392919061379c565b602060405180830381600087803b158015611c8057600080fd5b505af1925050508015611cb157506040513d601f19601f82011682018060405250810190611cae9190613819565b60015b611d5757611cbd613853565b806308c379a01415611d1a5750611cd2613875565b80611cdd5750611d1c565b806040517f08c379a0000000000000000000000000000000000000000000000000000000008152600401611d1191906123fb565b60405180910390fd5b505b6040517f08c379a0000000000000000000000000000000000000000000000000000000008152600401611d4e9061397d565b60405180910390fd5b63bc197c8160e01b7bffffffffffffffffffffffffffffffffffffffffffffffffffffffff1916817bffffffffffffffffffffffffffffffffffffffffffffffffffffffff191614611dde576040517f08c379a0000000000000000000000000000000000000000000000000000000008152600401611dd590613a0f565b60405180910390fd5b505b505050505050565b60606000600167ffffffffffffffff811115611e0757611e0661250f565b5b604051908082528060200260200182016040528015611e355781602001602082028036833780820191505090505b5090508281600081518110611e4d57611e4c612fdc565b5b60200260200101818152505080915050919050565b611e818473ffffffffffffffffffffffffffffffffffffffff16612049565b15612041578373ffffffffffffffffffffffffffffffffffffffff1663f23a6e6187878686866040518663ffffffff1660e01b8152600401611ec7959493929190613a2f565b602060405180830381600087803b158015611ee157600080fd5b505af1925050508015611f1257506040513d601f19601f82011682018060405250810190611f0f9190613819565b60015b611fb857611f1e613853565b806308c379a01415611f7b5750611f33613875565b80611f3e5750611f7d565b806040517f08c379a0000000000000000000000000000000000000000000000000000000008152600401611f7291906123fb565b60405180910390fd5b505b6040517f08c379a0000000000000000000000000000000000000000000000000000000008152600401611faf9061397d565b60405180910390fd5b63f23a6e6160e01b7bffffffffffffffffffffffffffffffffffffffffffffffffffffffff1916817bffffffffffffffffffffffffffffffffffffffffffffffffffffffff19161461203f576040517f08c379a000000000000000000000000000000000000000000000000000000000815260040161203690613a0f565b60405180910390fd5b505b505050505050565b6000808273ffffffffffffffffffffffffffffffffffffffff163b119050919050565b82805461207890612e1a565b90600052602060002090601f01602090048101928261209a57600085556120e1565b82601f106120b357803560ff19168380011785556120e1565b828001600101855582156120e1579182015b828111156120e05782358255916020019190600101906120c5565b5b5090506120ee9190612178565b5090565b8280546120fe90612e1a565b90600052602060002090601f0160209004810192826121205760008555612167565b82601f1061213957805160ff1916838001178555612167565b82800160010185558215612167579182015b8281111561216657825182559160200191906001019061214b565b5b5090506121749190612178565b5090565b5b80821115612191576000816000905550600101612179565b5090565b6000604051905090565b600080fd5b600080fd5b600073ffffffffffffffffffffffffffffffffffffffff82169050919050565b60006121d4826121a9565b9050919050565b6121e4816121c9565b81146121ef57600080fd5b50565b600081359050612201816121db565b92915050565b6000819050919050565b61221a81612207565b811461222557600080fd5b50565b60008135905061223781612211565b92915050565b600080604083850312156122545761225361219f565b5b6000612262858286016121f2565b925050602061227385828601612228565b9150509250929050565b61228681612207565b82525050565b60006020820190506122a1600083018461227d565b92915050565b60007fffffffff0000000000000000000000000000000000000000000000000000000082169050919050565b6122dc816122a7565b81146122e757600080fd5b50565b6000813590506122f9816122d3565b92915050565b6000602082840312156123155761231461219f565b5b6000612323848285016122ea565b91505092915050565b60008115159050919050565b6123418161232c565b82525050565b600060208201905061235c6000830184612338565b92915050565b600081519050919050565b600082825260208201905092915050565b60005b8381101561239c578082015181840152602081019050612381565b838111156123ab576000848401525b50505050565b6000601f19601f8301169050919050565b60006123cd82612362565b6123d7818561236d565b93506123e781856020860161237e565b6123f0816123b1565b840191505092915050565b6000602082019050818103600083015261241581846123c2565b905092915050565b6000602082840312156124335761243261219f565b5b600061244184828501612228565b91505092915050565b600080fd5b600080fd5b600080fd5b60008083601f84011261246f5761246e61244a565b5b8235905067ffffffffffffffff81111561248c5761248b61244f565b5b6020830191508360018202830111156124a8576124a7612454565b5b9250929050565b6000806000604084860312156124c8576124c761219f565b5b60006124d686828701612228565b935050602084013567ffffffffffffffff8111156124f7576124f66121a4565b5b61250386828701612459565b92509250509250925092565b7f4e487b7100000000000000000000000000000000000000000000000000000000600052604160045260246000fd5b612547826123b1565b810181811067ffffffffffffffff821117156125665761256561250f565b5b80604052505050565b6000612579612195565b9050612585828261253e565b919050565b600067ffffffffffffffff8211156125a5576125a461250f565b5b602082029050602081019050919050565b60006125c96125c48461258a565b61256f565b905080838252602082019050602084028301858111156125ec576125eb612454565b5b835b8181101561261557806126018882612228565b8452602084019350506020810190506125ee565b5050509392505050565b600082601f8301126126345761263361244a565b5b81356126448482602086016125b6565b91505092915050565b600080fd5b600067ffffffffffffffff82111561266d5761266c61250f565b5b612676826123b1565b9050602081019050919050565b82818337600083830152505050565b60006126a56126a084612652565b61256f565b9050828152602081018484840111156126c1576126c061264d565b5b6126cc848285612683565b509392505050565b600082601f8301126126e9576126e861244a565b5b81356126f9848260208601612692565b91505092915050565b600080600080600060a0868803121561271e5761271d61219f565b5b600061272c888289016121f2565b955050602061273d888289016121f2565b945050604086013567ffffffffffffffff81111561275e5761275d6121a4565b5b61276a8882890161261f565b935050606086013567ffffffffffffffff81111561278b5761278a6121a4565b5b6127978882890161261f565b925050608086013567ffffffffffffffff8111156127b8576127b76121a4565b5b6127c4888289016126d4565b9150509295509295909350565b600067ffffffffffffffff8211156127ec576127eb61250f565b5b602082029050602081019050919050565b600061281061280b846127d1565b61256f565b9050808382526020820190506020840283018581111561283357612832612454565b5b835b8181101561285c578061284888826121f2565b845260208401935050602081019050612835565b5050509392505050565b600082601f83011261287b5761287a61244a565b5b813561288b8482602086016127fd565b91505092915050565b600080604083850312156128ab576128aa61219f565b5b600083013567ffffffffffffffff8111156128c9576128c86121a4565b5b6128d585828601612866565b925050602083013567ffffffffffffffff8111156128f6576128f56121a4565b5b6129028582860161261f565b9150509250929050565b600081519050919050565b600082825260208201905092915050565b6000819050602082019050919050565b61294181612207565b82525050565b60006129538383612938565b60208301905092915050565b6000602082019050919050565b60006129778261290c565b6129818185612917565b935061298c83612928565b8060005b838110156129bd5781516129a48882612947565b97506129af8361295f565b925050600181019050612990565b5085935050505092915050565b600060208201905081810360008301526129e4818461296c565b905092915050565b600060a082019050612a01600083018861227d565b8181036020830152612a1381876123c2565b90508181036040830152612a2781866123c2565b90508181036060830152612a3b81856123c2565b9050612a4a6080830184612338565b9695505050505050565b612a5d816121c9565b82525050565b6000602082019050612a786000830184612a54565b92915050565b600067ffffffffffffffff821115612a9957612a9861250f565b5b612aa2826123b1565b9050602081019050919050565b6000612ac2612abd84612a7e565b61256f565b905082815260208101848484011115612ade57612add61264d565b5b612ae9848285612683565b509392505050565b600082601f830112612b0657612b0561244a565b5b8135612b16848260208601612aaf565b91505092915050565b600060208284031215612b3557612b3461219f565b5b600082013567ffffffffffffffff811115612b5357612b526121a4565b5b612b5f84828501612af1565b91505092915050565b612b718161232c565b8114612b7c57600080fd5b50565b600081359050612b8e81612b68565b92915050565b60008060408385031215612bab57612baa61219f565b5b6000612bb9858286016121f2565b9250506020612bca85828601612b7f565b9150509250929050565b60008060008060408587031215612bee57612bed61219f565b5b600085013567ffffffffffffffff811115612c0c57612c0b6121a4565b5b612c1887828801612459565b9450945050602085013567ffffffffffffffff811115612c3b57612c3a6121a4565b5b612c4787828801612459565b925092505092959194509250565b60008060408385031215612c6c57612c6b61219f565b5b6000612c7a858286016121f2565b9250506020612c8b858286016121f2565b9150509250929050565b600080600080600060a08688031215612cb157612cb061219f565b5b6000612cbf888289016121f2565b9550506020612cd0888289016121f2565b9450506040612ce188828901612228565b9350506060612cf288828901612228565b925050608086013567ffffffffffffffff811115612d1357612d126121a4565b5b612d1f888289016126d4565b9150509295509295909350565b600060208284031215612d4257612d4161219f565b5b6000612d50848285016121f2565b91505092915050565b7f455243313135353a2062616c616e636520717565727920666f7220746865207a60008201527f65726f2061646472657373000000000000000000000000000000000000000000602082015250565b6000612db5602b8361236d565b9150612dc082612d59565b604082019050919050565b60006020820190508181036000830152612de481612da8565b9050919050565b7f4e487b7100000000000000000000000000000000000000000000000000000000600052602260045260246000fd5b60006002820490506001821680612e3257607f821691505b60208210811415612e4657612e45612deb565b5b50919050565b7f4f776e61626c653a2063616c6c6572206973206e6f7420746865206f776e6572600082015250565b6000612e8260208361236d565b9150612e8d82612e4c565b602082019050919050565b60006020820190508181036000830152612eb181612e75565b9050919050565b7f455243313135353a207472616e736665722063616c6c6572206973206e6f742060008201527f6f776e6572206e6f7220617070726f7665640000000000000000000000000000602082015250565b6000612f1460328361236d565b9150612f1f82612eb8565b604082019050919050565b60006020820190508181036000830152612f4381612f07565b9050919050565b7f455243313135353a206163636f756e747320616e6420696473206c656e67746860008201527f206d69736d617463680000000000000000000000000000000000000000000000602082015250565b6000612fa660298361236d565b9150612fb182612f4a565b604082019050919050565b60006020820190508181036000830152612fd581612f99565b9050919050565b7f4e487b7100000000000000000000000000000000000000000000000000000000600052603260045260246000fd5b7f4e487b7100000000000000000000000000000000000000000000000000000000600052601160045260246000fd5b600061304582612207565b91507fffffffffffffffffffffffffffffffffffffffffffffffffffffffffffffffff8214156130785761307761300b565b5b600182019050919050565b600081905092915050565b60008190508160005260206000209050919050565b600081546130b081612e1a565b6130ba8186613083565b945060018216600081146130d557600181146130e657613119565b60ff19831686528186019350613119565b6130ef8561308e565b60005b83811015613111578154818901526001820191506020810190506130f2565b838801955050505b50505092915050565b600061312d82612362565b6131378185613083565b935061314781856020860161237e565b80840191505092915050565b7f2e6a736f6e000000000000000000000000000000000000000000000000000000600082015250565b6000613189600583613083565b915061319482613153565b600582019050919050565b60006131ab82856130a3565b91506131b78284613122565b91506131c28261317c565b91508190509392505050565b7f455243313135353a2063616c6c6572206973206e6f74206f776e6572206e6f7260008201527f20617070726f7665640000000000000000000000000000000000000000000000602082015250565b600061322a60298361236d565b9150613235826131ce565b604082019050919050565b600060208201905081810360008301526132598161321d565b9050919050565b7f4f776e61626c653a206e6577206f776e657220697320746865207a65726f206160008201527f6464726573730000000000000000000000000000000000000000000000000000602082015250565b60006132bc60268361236d565b91506132c782613260565b604082019050919050565b600060208201905081810360008301526132eb816132af565b9050919050565b7f455243313135353a2069647320616e6420616d6f756e7473206c656e6774682060008201527f6d69736d61746368000000000000000000000000000000000000000000000000602082015250565b600061334e60288361236d565b9150613359826132f2565b604082019050919050565b6000602082019050818103600083015261337d81613341565b9050919050565b7f455243313135353a207472616e7366657220746f20746865207a65726f20616460008201527f6472657373000000000000000000000000000000000000000000000000000000602082015250565b60006133e060258361236d565b91506133eb82613384565b604082019050919050565b6000602082019050818103600083015261340f816133d3565b9050919050565b7f455243313135353a20696e73756666696369656e742062616c616e636520666f60008201527f72207472616e7366657200000000000000000000000000000000000000000000602082015250565b6000613472602a8361236d565b915061347d82613416565b604082019050919050565b600060208201905081810360008301526134a181613465565b9050919050565b60006134b382612207565b91506134be83612207565b9250827fffffffffffffffffffffffffffffffffffffffffffffffffffffffffffffffff038211156134f3576134f261300b565b5b828201905092915050565b60006040820190508181036000830152613518818561296c565b9050818103602083015261352c818461296c565b90509392505050565b7f455243313135353a2073657474696e6720617070726f76616c2073746174757360008201527f20666f722073656c660000000000000000000000000000000000000000000000602082015250565b600061359160298361236d565b915061359c82613535565b604082019050919050565b600060208201905081810360008301526135c081613584565b9050919050565b7f455243313135353a206d696e7420746f20746865207a65726f2061646472657360008201527f7300000000000000000000000000000000000000000000000000000000000000602082015250565b600061362360218361236d565b915061362e826135c7565b604082019050919050565b6000602082019050818103600083015261365281613616565b9050919050565b600060408201905061366e600083018561227d565b61367b602083018461227d565b9392505050565b7f4e487b7100000000000000000000000000000000000000000000000000000000600052601260045260246000fd5b60006136bc82612207565b91506136c783612207565b9250826136d7576136d6613682565b5b828204905092915050565b60006136ed82612207565b91506136f883612207565b92508282101561370b5761370a61300b565b5b828203905092915050565b600061372182612207565b915061372c83612207565b92508261373c5761373b613682565b5b828206905092915050565b600081519050919050565b600082825260208201905092915050565b600061376e82613747565b6137788185613752565b935061378881856020860161237e565b613791816123b1565b840191505092915050565b600060a0820190506137b16000830188612a54565b6137be6020830187612a54565b81810360408301526137d0818661296c565b905081810360608301526137e4818561296c565b905081810360808301526137f88184613763565b90509695505050505050565b600081519050613813816122d3565b92915050565b60006020828403121561382f5761382e61219f565b5b600061383d84828501613804565b91505092915050565b60008160e01c9050919050565b600060033d11156138725760046000803e61386f600051613846565b90505b90565b600060443d101561388557613908565b61388d612195565b60043d036004823e80513d602482011167ffffffffffffffff821117156138b5575050613908565b808201805167ffffffffffffffff8111156138d35750505050613908565b80602083010160043d0385018111156138f0575050505050613908565b6138ff8260200185018661253e565b82955050505050505b90565b7f455243313135353a207472616e7366657220746f206e6f6e204552433131353560008201527f526563656976657220696d706c656d656e746572000000000000000000000000602082015250565b600061396760348361236d565b91506139728261390b565b604082019050919050565b600060208201905081810360008301526139968161395a565b9050919050565b7f455243313135353a204552433131353552656365697665722072656a6563746560008201527f6420746f6b656e73000000000000000000000000000000000000000000000000602082015250565b60006139f960288361236d565b9150613a048261399d565b604082019050919050565b60006020820190508181036000830152613a28816139ec565b9050919050565b600060a082019050613a446000830188612a54565b613a516020830187612a54565b613a5e604083018661227d565b613a6b606083018561227d565b8181036080830152613a7d8184613763565b9050969550505050505056fea26469706673582212209d1985c521b48324dc430bd8c8d86a287ffcf29a646407e241824a3f18c1bac864736f6c6343000809003368747470733a2f2f7777772e7265616c657374617465636861696e2e65732f6170692f6974656d2f68747470733a2f2f7777772e7265616c657374617465636861696e2e65732f6170692f6974656d2f7b69647d2e6a736f6e",
  "devdoc": {
    "kind": "dev",
    "methods": {
      "addREAT(string,string)": {
        "details": "addREAT() mints the token and updates the token counter",
        "params": {
          "_hashJsonToken": "is the keccak256 of the property metadata",
          "_idCatastro": "is the ID to be provided by the Catastro office"
        },
        "returns": {
          "_0": "ID of the struct REATdata that got created/updated"
        }
      },
      "balanceOf(address,uint256)": {
        "details": "See {IERC1155-balanceOf}. Requirements: - `account` cannot be the zero address."
      },
      "balanceOfBatch(address[],uint256[])": {
        "details": "See {IERC1155-balanceOfBatch}. Requirements: - `accounts` and `ids` must have the same length."
      },
      "getUri(uint256)": {
        "details": "Function to add the tokenId on the URI that's returned",
        "params": {
          "_tokenId": "variable passed to assign the ID, that is the token type "
        }
      },
      "isApprovedForAll(address,address)": {
        "details": "See {IERC1155-isApprovedForAll}."
      },
      "owner()": {
        "details": "Returns the address of the current owner."
      },
      "renounceOwnership()": {
        "details": "Leaves the contract without owner. It will not be possible to call `onlyOwner` functions anymore. Can only be called by the current owner. NOTE: Renouncing ownership will leave the contract without an owner, thereby removing any functionality that is only available to the owner."
      },
      "safeBatchTransferFrom(address,address,uint256[],uint256[],bytes)": {
        "details": "See {IERC1155-safeBatchTransferFrom}."
      },
      "safeTransferFrom(address,address,uint256,uint256,bytes)": {
        "details": "See {IERC1155-safeTransferFrom}."
      },
      "setApprovalForAll(address,bool)": {
        "details": "See {IERC1155-setApprovalForAll}."
      },
      "supportsInterface(bytes4)": {
        "details": "See {IERC165-supportsInterface}."
      },
      "transferOwnership(address)": {
        "details": "Transfers ownership of the contract to a new account (`newOwner`). Can only be called by the current owner."
      },
      "updateHashJsonDoc(uint256,string)": {
        "details": "This function will update the json hash whenever there are updates in property docs",
        "params": {
          "_id": "used to search in the reatdata mapping to find the struct that will be updated",
          "_newHashJsonDoc": "is the new hash that will replace the hashJsonDoc inside the struct reatdata"
        }
      },
      "updateMasterUri(string)": {
        "details": "updateMasterUri() sets a new URI for the token type passed as argumentwhere is the OWNER defined ?",
        "params": {
          "uri_": "is the ID that will be set for the token type"
        }
      },
      "uri(uint256)": {
        "details": "See {IERC1155MetadataURI-uri}. This implementation returns the same URI for *all* token types. It relies on the token type ID substitution mechanism https://eips.ethereum.org/EIPS/eip-1155#metadata[defined in the EIP]. Clients calling this function must replace the `\\{id\\}` substring with the actual token type ID."
      }
    },
    "stateVariables": {
      "reatdata": {
        "details": "a mapping to index all REATData structs created in the contract"
      }
    },
    "version": 1
  },
  "userdoc": {
    "kind": "user",
    "methods": {
      "addREAT(string,string)": {
        "notice": "why are passing the parameters as calldata ?token minted with URI property \"hashJsonDoc\" empty. It'll be added later on"
      },
      "getUri(uint256)": {
        "notice": "it takes the base URI and concatenates the _tokenId and adds \".json\" in the end"
      },
      "updateMasterUri(string)": {
        "notice": "a new token type is created for every single property"
      }
    },
    "version": 1
  },
  "storageLayout": {
    "storage": [
      {
        "astId": 130,
        "contract": "contracts/MasterREAT_EG.sol:MasterREAT_EG",
        "label": "_balances",
        "offset": 0,
        "slot": "0",
        "type": "t_mapping(t_uint256,t_mapping(t_address,t_uint256))"
      },
      {
        "astId": 136,
        "contract": "contracts/MasterREAT_EG.sol:MasterREAT_EG",
        "label": "_operatorApprovals",
        "offset": 0,
        "slot": "1",
        "type": "t_mapping(t_address,t_mapping(t_address,t_bool))"
      },
      {
        "astId": 138,
        "contract": "contracts/MasterREAT_EG.sol:MasterREAT_EG",
        "label": "_uri",
        "offset": 0,
        "slot": "2",
        "type": "t_string_storage"
      },
      {
        "astId": 7,
        "contract": "contracts/MasterREAT_EG.sol:MasterREAT_EG",
        "label": "_owner",
        "offset": 0,
        "slot": "3",
        "type": "t_address"
      },
      {
        "astId": 2021,
        "contract": "contracts/MasterREAT_EG.sol:MasterREAT_EG",
        "label": "baseUri",
        "offset": 0,
        "slot": "4",
        "type": "t_string_storage"
      },
      {
        "astId": 2028,
        "contract": "contracts/MasterREAT_EG.sol:MasterREAT_EG",
        "label": "_reatAutoId",
        "offset": 0,
        "slot": "5",
        "type": "t_struct(Counter)1701_storage"
      },
      {
        "astId": 2045,
        "contract": "contracts/MasterREAT_EG.sol:MasterREAT_EG",
        "label": "reatdata",
        "offset": 0,
        "slot": "6",
        "type": "t_mapping(t_uint256,t_struct(REATData)2039_storage)"
      }
    ],
    "types": {
      "t_address": {
        "encoding": "inplace",
        "label": "address",
        "numberOfBytes": "20"
      },
      "t_bool": {
        "encoding": "inplace",
        "label": "bool",
        "numberOfBytes": "1"
      },
      "t_mapping(t_address,t_bool)": {
        "encoding": "mapping",
        "key": "t_address",
        "label": "mapping(address => bool)",
        "numberOfBytes": "32",
        "value": "t_bool"
      },
      "t_mapping(t_address,t_mapping(t_address,t_bool))": {
        "encoding": "mapping",
        "key": "t_address",
        "label": "mapping(address => mapping(address => bool))",
        "numberOfBytes": "32",
        "value": "t_mapping(t_address,t_bool)"
      },
      "t_mapping(t_address,t_uint256)": {
        "encoding": "mapping",
        "key": "t_address",
        "label": "mapping(address => uint256)",
        "numberOfBytes": "32",
        "value": "t_uint256"
      },
      "t_mapping(t_uint256,t_mapping(t_address,t_uint256))": {
        "encoding": "mapping",
        "key": "t_uint256",
        "label": "mapping(uint256 => mapping(address => uint256))",
        "numberOfBytes": "32",
        "value": "t_mapping(t_address,t_uint256)"
      },
      "t_mapping(t_uint256,t_struct(REATData)2039_storage)": {
        "encoding": "mapping",
        "key": "t_uint256",
        "label": "mapping(uint256 => struct MasterREAT_EG.REATData)",
        "numberOfBytes": "32",
        "value": "t_struct(REATData)2039_storage"
      },
      "t_string_storage": {
        "encoding": "bytes",
        "label": "string",
        "numberOfBytes": "32"
      },
      "t_struct(Counter)1701_storage": {
        "encoding": "inplace",
        "label": "struct Counters.Counter",
        "members": [
          {
            "astId": 1700,
            "contract": "contracts/MasterREAT_EG.sol:MasterREAT_EG",
            "label": "_value",
            "offset": 0,
            "slot": "0",
            "type": "t_uint256"
          }
        ],
        "numberOfBytes": "32"
      },
      "t_struct(REATData)2039_storage": {
        "encoding": "inplace",
        "label": "struct MasterREAT_EG.REATData",
        "members": [
          {
            "astId": 2030,
            "contract": "contracts/MasterREAT_EG.sol:MasterREAT_EG",
            "label": "REATid",
            "offset": 0,
            "slot": "0",
            "type": "t_uint256"
          },
          {
            "astId": 2032,
            "contract": "contracts/MasterREAT_EG.sol:MasterREAT_EG",
            "label": "idCatastro",
            "offset": 0,
            "slot": "1",
            "type": "t_string_storage"
          },
          {
            "astId": 2034,
            "contract": "contracts/MasterREAT_EG.sol:MasterREAT_EG",
            "label": "hashJsonToken",
            "offset": 0,
            "slot": "2",
            "type": "t_string_storage"
          },
          {
            "astId": 2036,
            "contract": "contracts/MasterREAT_EG.sol:MasterREAT_EG",
            "label": "hashJsonDoc",
            "offset": 0,
            "slot": "3",
            "type": "t_string_storage"
          },
          {
            "astId": 2038,
            "contract": "contracts/MasterREAT_EG.sol:MasterREAT_EG",
            "label": "exists",
            "offset": 0,
            "slot": "4",
            "type": "t_bool"
          }
        ],
        "numberOfBytes": "160"
      },
      "t_uint256": {
        "encoding": "inplace",
        "label": "uint256",
        "numberOfBytes": "32"
      }
    }
  }
}