{
  "address": "0xc9A6D56d40D22A8Af1293A4292e3e93855899398",
  "abi": [
    {
      "inputs": [],
      "stateMutability": "nonpayable",
      "type": "constructor"
    },
    {
      "anonymous": false,
      "inputs": [
        {
          "indexed": true,
          "internalType": "address",
          "name": "account",
          "type": "address"
        },
        {
          "indexed": true,
          "internalType": "address",
          "name": "operator",
          "type": "address"
        },
        {
          "indexed": false,
          "internalType": "bool",
          "name": "approved",
          "type": "bool"
        }
      ],
      "name": "ApprovalForAll",
      "type": "event"
    },
    {
      "anonymous": false,
      "inputs": [
        {
          "indexed": true,
          "internalType": "address",
          "name": "previousOwner",
          "type": "address"
        },
        {
          "indexed": true,
          "internalType": "address",
          "name": "newOwner",
          "type": "address"
        }
      ],
      "name": "OwnershipTransferred",
      "type": "event"
    },
    {
      "anonymous": false,
      "inputs": [
        {
          "indexed": false,
          "internalType": "address",
          "name": "account",
          "type": "address"
        }
      ],
      "name": "Paused",
      "type": "event"
    },
    {
      "anonymous": false,
      "inputs": [
        {
          "indexed": true,
          "internalType": "address",
          "name": "operator",
          "type": "address"
        },
        {
          "indexed": true,
          "internalType": "address",
          "name": "from",
          "type": "address"
        },
        {
          "indexed": true,
          "internalType": "address",
          "name": "to",
          "type": "address"
        },
        {
          "indexed": false,
          "internalType": "uint256[]",
          "name": "ids",
          "type": "uint256[]"
        },
        {
          "indexed": false,
          "internalType": "uint256[]",
          "name": "values",
          "type": "uint256[]"
        }
      ],
      "name": "TransferBatch",
      "type": "event"
    },
    {
      "anonymous": false,
      "inputs": [
        {
          "indexed": true,
          "internalType": "address",
          "name": "operator",
          "type": "address"
        },
        {
          "indexed": true,
          "internalType": "address",
          "name": "from",
          "type": "address"
        },
        {
          "indexed": true,
          "internalType": "address",
          "name": "to",
          "type": "address"
        },
        {
          "indexed": false,
          "internalType": "uint256",
          "name": "id",
          "type": "uint256"
        },
        {
          "indexed": false,
          "internalType": "uint256",
          "name": "value",
          "type": "uint256"
        }
      ],
      "name": "TransferSingle",
      "type": "event"
    },
    {
      "anonymous": false,
      "inputs": [
        {
          "indexed": false,
          "internalType": "string",
          "name": "value",
          "type": "string"
        },
        {
          "indexed": true,
          "internalType": "uint256",
          "name": "id",
          "type": "uint256"
        }
      ],
      "name": "URI",
      "type": "event"
    },
    {
      "anonymous": false,
      "inputs": [
        {
          "indexed": false,
          "internalType": "address",
          "name": "account",
          "type": "address"
        }
      ],
      "name": "Unpaused",
      "type": "event"
    },
    {
      "inputs": [],
      "name": "DOESNT_EXIST",
      "outputs": [
        {
          "internalType": "uint128",
          "name": "",
          "type": "uint128"
        }
      ],
      "stateMutability": "view",
      "type": "function"
    },
    {
      "inputs": [],
      "name": "EXISTS",
      "outputs": [
        {
          "internalType": "uint128",
          "name": "",
          "type": "uint128"
        }
      ],
      "stateMutability": "view",
      "type": "function"
    },
    {
      "inputs": [
        {
          "internalType": "string",
          "name": "_idCatastro",
          "type": "string"
        },
        {
          "internalType": "string",
          "name": "_hashJsonToken",
          "type": "string"
        }
      ],
      "name": "addREAT",
      "outputs": [
        {
          "internalType": "uint256",
          "name": "",
          "type": "uint256"
        }
      ],
      "stateMutability": "nonpayable",
      "type": "function"
    },
    {
      "inputs": [
        {
          "internalType": "address",
          "name": "account",
          "type": "address"
        },
        {
          "internalType": "uint256",
          "name": "id",
          "type": "uint256"
        }
      ],
      "name": "balanceOf",
      "outputs": [
        {
          "internalType": "uint256",
          "name": "",
          "type": "uint256"
        }
      ],
      "stateMutability": "view",
      "type": "function"
    },
    {
      "inputs": [
        {
          "internalType": "address[]",
          "name": "accounts",
          "type": "address[]"
        },
        {
          "internalType": "uint256[]",
          "name": "ids",
          "type": "uint256[]"
        }
      ],
      "name": "balanceOfBatch",
      "outputs": [
        {
          "internalType": "uint256[]",
          "name": "",
          "type": "uint256[]"
        }
      ],
      "stateMutability": "view",
      "type": "function"
    },
    {
      "inputs": [
        {
          "internalType": "uint256",
          "name": "_tokenId",
          "type": "uint256"
        }
      ],
      "name": "getUri",
      "outputs": [
        {
          "internalType": "string",
          "name": "",
          "type": "string"
        }
      ],
      "stateMutability": "view",
      "type": "function"
    },
    {
      "inputs": [
        {
          "internalType": "address",
          "name": "account",
          "type": "address"
        },
        {
          "internalType": "address",
          "name": "operator",
          "type": "address"
        }
      ],
      "name": "isApprovedForAll",
      "outputs": [
        {
          "internalType": "bool",
          "name": "",
          "type": "bool"
        }
      ],
      "stateMutability": "view",
      "type": "function"
    },
    {
      "inputs": [],
      "name": "owner",
      "outputs": [
        {
          "internalType": "address",
          "name": "",
          "type": "address"
        }
      ],
      "stateMutability": "view",
      "type": "function"
    },
    {
      "inputs": [],
      "name": "paused",
      "outputs": [
        {
          "internalType": "bool",
          "name": "",
          "type": "bool"
        }
      ],
      "stateMutability": "view",
      "type": "function"
    },
    {
      "inputs": [
        {
          "internalType": "uint256",
          "name": "",
          "type": "uint256"
        }
      ],
      "name": "reatdata",
      "outputs": [
        {
          "internalType": "uint256",
          "name": "REATid",
          "type": "uint256"
        },
        {
          "internalType": "string",
          "name": "idCatastro",
          "type": "string"
        },
        {
          "internalType": "string",
          "name": "hashJsonToken",
          "type": "string"
        },
        {
          "internalType": "uint128",
          "name": "hashJsonDoc",
          "type": "uint128"
        },
        {
          "internalType": "uint128",
          "name": "exists",
          "type": "uint128"
        }
      ],
      "stateMutability": "view",
      "type": "function"
    },
    {
      "inputs": [],
      "name": "renounceOwnership",
      "outputs": [],
      "stateMutability": "nonpayable",
      "type": "function"
    },
    {
      "inputs": [
        {
          "internalType": "address",
          "name": "from",
          "type": "address"
        },
        {
          "internalType": "address",
          "name": "to",
          "type": "address"
        },
        {
          "internalType": "uint256[]",
          "name": "ids",
          "type": "uint256[]"
        },
        {
          "internalType": "uint256[]",
          "name": "amounts",
          "type": "uint256[]"
        },
        {
          "internalType": "bytes",
          "name": "data",
          "type": "bytes"
        }
      ],
      "name": "safeBatchTransferFrom",
      "outputs": [],
      "stateMutability": "nonpayable",
      "type": "function"
    },
    {
      "inputs": [
        {
          "internalType": "address",
          "name": "from",
          "type": "address"
        },
        {
          "internalType": "address",
          "name": "to",
          "type": "address"
        },
        {
          "internalType": "uint256",
          "name": "id",
          "type": "uint256"
        },
        {
          "internalType": "uint256",
          "name": "amount",
          "type": "uint256"
        },
        {
          "internalType": "bytes",
          "name": "data",
          "type": "bytes"
        }
      ],
      "name": "safeTransferFrom",
      "outputs": [],
      "stateMutability": "nonpayable",
      "type": "function"
    },
    {
      "inputs": [
        {
          "internalType": "address",
          "name": "operator",
          "type": "address"
        },
        {
          "internalType": "bool",
          "name": "approved",
          "type": "bool"
        }
      ],
      "name": "setApprovalForAll",
      "outputs": [],
      "stateMutability": "nonpayable",
      "type": "function"
    },
    {
      "inputs": [
        {
          "internalType": "bytes4",
          "name": "interfaceId",
          "type": "bytes4"
        }
      ],
      "name": "supportsInterface",
      "outputs": [
        {
          "internalType": "bool",
          "name": "",
          "type": "bool"
        }
      ],
      "stateMutability": "view",
      "type": "function"
    },
    {
      "inputs": [
        {
          "internalType": "address",
          "name": "newOwner",
          "type": "address"
        }
      ],
      "name": "transferOwnership",
      "outputs": [],
      "stateMutability": "nonpayable",
      "type": "function"
    },
    {
      "inputs": [
        {
          "internalType": "uint256",
          "name": "_id",
          "type": "uint256"
        },
        {
          "internalType": "uint128",
          "name": "_newHashJsonDoc",
          "type": "uint128"
        }
      ],
      "name": "updateHashJsonDoc",
      "outputs": [],
      "stateMutability": "nonpayable",
      "type": "function"
    },
    {
      "inputs": [
        {
          "internalType": "string",
          "name": "uri_",
          "type": "string"
        }
      ],
      "name": "updateMasterUri",
      "outputs": [],
      "stateMutability": "nonpayable",
      "type": "function"
    },
    {
      "inputs": [
        {
          "internalType": "uint256",
          "name": "",
          "type": "uint256"
        }
      ],
      "name": "uri",
      "outputs": [
        {
          "internalType": "string",
          "name": "",
          "type": "string"
        }
      ],
      "stateMutability": "view",
      "type": "function"
    }
  ],
  "transactionHash": "0x81646b2db8650bc59d08efff62435f2e6013d1d122a425db19677416edd37561",
  "args": [],
  "numDeployments": 1,
  "solcInputHash": "dec08df45c474f494206b0637e6c3de9",
  "bytecode": "0x608060405260405180606001604052806028815260200162003e92602891396005908051906020019062000035929190620001a3565b503480156200004357600080fd5b5060405180606001604052806031815260200162003eba603191396200006f81620000b960201b60201c565b506200009062000084620000d560201b60201c565b620000dd60201b60201c565b6000600360146101000a81548160ff0219169083151502179055506001600481905550620002b8565b8060029080519060200190620000d1929190620001a3565b5050565b600033905090565b6000600360009054906101000a900473ffffffffffffffffffffffffffffffffffffffff16905081600360006101000a81548173ffffffffffffffffffffffffffffffffffffffff021916908373ffffffffffffffffffffffffffffffffffffffff1602179055508173ffffffffffffffffffffffffffffffffffffffff168173ffffffffffffffffffffffffffffffffffffffff167f8be0079c531659141344cd1fd0a4f28419497f9722a3daafe3b4186f6b6457e060405160405180910390a35050565b828054620001b19062000282565b90600052602060002090601f016020900481019282620001d5576000855562000221565b82601f10620001f057805160ff191683800117855562000221565b8280016001018555821562000221579182015b828111156200022057825182559160200191906001019062000203565b5b50905062000230919062000234565b5090565b5b808211156200024f57600081600090555060010162000235565b5090565b7f4e487b7100000000000000000000000000000000000000000000000000000000600052602260045260246000fd5b600060028204905060018216806200029b57607f821691505b60208210811415620002b257620002b162000253565b5b50919050565b613bca80620002c86000396000f3fe608060405234801561001057600080fd5b50600436106101205760003560e01c80638da5cb5b116100ad578063c68fb65b11610071578063c68fb65b1461031f578063da0544aa1461033b578063e985e9c51461036b578063f242432a1461039b578063f2fde38b146103b757610120565b80638da5cb5b1461027b5780639005c749146102995780639dcbf876146102b7578063a22cb465146102d3578063acbe9dd6146102ef57610120565b80633d0873fc116100f45780633d0873fc146101d15780634e1273f4146101ef5780635c975abb1461021f5780635d9a8a451461023d578063715018a61461027157610120565b8062fdd58e1461012557806301ffc9a7146101555780630e89341c146101855780632eb2c2d6146101b5575b600080fd5b61013f600480360381019061013a9190612291565b6103d3565b60405161014c91906122e0565b60405180910390f35b61016f600480360381019061016a9190612353565b61049c565b60405161017c919061239b565b60405180910390f35b61019f600480360381019061019a91906123b6565b61057e565b6040516101ac919061247c565b60405180910390f35b6101cf60048036038101906101ca919061269b565b610612565b005b6101d96106b3565b6040516101e69190612795565b60405180910390f35b61020960048036038101906102049190612873565b6106b8565b60405161021691906129a9565b60405180910390f35b6102276107d1565b604051610234919061239b565b60405180910390f35b610257600480360381019061025291906123b6565b6107e8565b6040516102689594939291906129cb565b60405180910390f35b610279610966565b005b6102836109ee565b6040516102909190612a3b565b60405180910390f35b6102a1610a18565b6040516102ae9190612795565b60405180910390f35b6102d160048036038101906102cc9190612af7565b610a1d565b005b6102ed60048036038101906102e89190612b6c565b610afb565b005b61030960048036038101906103049190612c07565b610b11565b60405161031691906122e0565b60405180910390f35b61033960048036038101906103349190612cb4565b610dd2565b005b610355600480360381019061035091906123b6565b610f02565b604051610362919061247c565b60405180910390f35b61038560048036038101906103809190612cf4565b610f36565b604051610392919061239b565b60405180910390f35b6103b560048036038101906103b09190612d34565b610fca565b005b6103d160048036038101906103cc9190612dcb565b61106b565b005b60008073ffffffffffffffffffffffffffffffffffffffff168373ffffffffffffffffffffffffffffffffffffffff161415610444576040517f08c379a000000000000000000000000000000000000000000000000000000000815260040161043b90612e6a565b60405180910390fd5b60008083815260200190815260200160002060008473ffffffffffffffffffffffffffffffffffffffff1673ffffffffffffffffffffffffffffffffffffffff16815260200190815260200160002054905092915050565b60007fd9b67a26000000000000000000000000000000000000000000000000000000007bffffffffffffffffffffffffffffffffffffffffffffffffffffffff1916827bffffffffffffffffffffffffffffffffffffffffffffffffffffffff1916148061056757507f0e89341c000000000000000000000000000000000000000000000000000000007bffffffffffffffffffffffffffffffffffffffffffffffffffffffff1916827bffffffffffffffffffffffffffffffffffffffffffffffffffffffff1916145b80610577575061057682611163565b5b9050919050565b60606002805461058d90612eb9565b80601f01602080910402602001604051908101604052809291908181526020018280546105b990612eb9565b80156106065780601f106105db57610100808354040283529160200191610606565b820191906000526020600020905b8154815290600101906020018083116105e957829003601f168201915b50505050509050919050565b61061a6111cd565b73ffffffffffffffffffffffffffffffffffffffff168573ffffffffffffffffffffffffffffffffffffffff161480610660575061065f8561065a6111cd565b610f36565b5b61069f576040517f08c379a000000000000000000000000000000000000000000000000000000000815260040161069690612f5d565b60405180910390fd5b6106ac85858585856111d5565b5050505050565b600181565b606081518351146106fe576040517f08c379a00000000000000000000000000000000000000000000000000000000081526004016106f590612fef565b60405180910390fd5b6000835167ffffffffffffffff81111561071b5761071a6124a3565b5b6040519080825280602002602001820160405280156107495781602001602082028036833780820191505090505b50905060005b84518110156107c65761079685828151811061076e5761076d61300f565b5b60200260200101518583815181106107895761078861300f565b5b60200260200101516103d3565b8282815181106107a9576107a861300f565b5b602002602001018181525050806107bf9061306d565b905061074f565b508091505092915050565b6000600360149054906101000a900460ff16905090565b600760205280600052604060002060009150905080600001549080600101805461081190612eb9565b80601f016020809104026020016040519081016040528092919081815260200182805461083d90612eb9565b801561088a5780601f1061085f5761010080835404028352916020019161088a565b820191906000526020600020905b81548152906001019060200180831161086d57829003601f168201915b50505050509080600201805461089f90612eb9565b80601f01602080910402602001604051908101604052809291908181526020018280546108cb90612eb9565b80156109185780601f106108ed57610100808354040283529160200191610918565b820191906000526020600020905b8154815290600101906020018083116108fb57829003601f168201915b5050505050908060030160009054906101000a90046fffffffffffffffffffffffffffffffff16908060030160109054906101000a90046fffffffffffffffffffffffffffffffff16905085565b61096e6111cd565b73ffffffffffffffffffffffffffffffffffffffff1661098c6109ee565b73ffffffffffffffffffffffffffffffffffffffff16146109e2576040517f08c379a00000000000000000000000000000000000000000000000000000000081526004016109d990613102565b60405180910390fd5b6109ec60006114e9565b565b6000600360009054906101000a900473ffffffffffffffffffffffffffffffffffffffff16905090565b600281565b610a256111cd565b73ffffffffffffffffffffffffffffffffffffffff16610a436109ee565b73ffffffffffffffffffffffffffffffffffffffff1614610a99576040517f08c379a0000000000000000000000000000000000000000000000000000000008152600401610a9090613102565b60405180910390fd5b60026004541415610adf576040517f08c379a0000000000000000000000000000000000000000000000000000000008152600401610ad69061316e565b60405180910390fd5b6002600481905550610af0816115af565b600160048190555050565b610b0d610b066111cd565b83836115c9565b5050565b6000610b1b6111cd565b73ffffffffffffffffffffffffffffffffffffffff16610b396109ee565b73ffffffffffffffffffffffffffffffffffffffff1614610b8f576040517f08c379a0000000000000000000000000000000000000000000000000000000008152600401610b8690613102565b60405180910390fd5b60026004541415610bd5576040517f08c379a0000000000000000000000000000000000000000000000000000000008152600401610bcc9061316e565b60405180910390fd5b6002600481905550610be76006611736565b6000610bf3600661174c565b9050610c11338260016040518060200160405280600081525061175a565b6040518060a0016040528082815260200187878080601f016020809104026020016040519081016040528093929190818152602001838380828437600081840152601f19601f82011690508083019250505050505050815260200185858080601f016020809104026020016040519081016040528093929190818152602001838380828437600081840152601f19601f82011690508083019250505050505050815260200160016fffffffffffffffffffffffffffffffff16815260200160026fffffffffffffffffffffffffffffffff1681525060076000838152602001908152602001600020600082015181600001556020820151816001019080519060200190610d1f929190612146565b506040820151816002019080519060200190610d3c929190612146565b5060608201518160030160006101000a8154816fffffffffffffffffffffffffffffffff02191690836fffffffffffffffffffffffffffffffff16021790555060808201518160030160106101000a8154816fffffffffffffffffffffffffffffffff02191690836fffffffffffffffffffffffffffffffff160217905550905050809150506001600481905550949350505050565b610dda6111cd565b73ffffffffffffffffffffffffffffffffffffffff16610df86109ee565b73ffffffffffffffffffffffffffffffffffffffff1614610e4e576040517f08c379a0000000000000000000000000000000000000000000000000000000008152600401610e4590613102565b60405180910390fd5b60026fffffffffffffffffffffffffffffffff166007600084815260200190815260200160002060030160109054906101000a90046fffffffffffffffffffffffffffffffff166fffffffffffffffffffffffffffffffff1614610eb157600080fd5b806007600084815260200190815260200160002060030160006101000a8154816fffffffffffffffffffffffffffffffff02191690836fffffffffffffffffffffffffffffffff1602179055505050565b60606005610f0f836118f0565b604051602001610f209291906132aa565b6040516020818303038152906040529050919050565b6000600160008473ffffffffffffffffffffffffffffffffffffffff1673ffffffffffffffffffffffffffffffffffffffff16815260200190815260200160002060008373ffffffffffffffffffffffffffffffffffffffff1673ffffffffffffffffffffffffffffffffffffffff16815260200190815260200160002060009054906101000a900460ff16905092915050565b610fd26111cd565b73ffffffffffffffffffffffffffffffffffffffff168573ffffffffffffffffffffffffffffffffffffffff1614806110185750611017856110126111cd565b610f36565b5b611057576040517f08c379a000000000000000000000000000000000000000000000000000000000815260040161104e9061334b565b60405180910390fd5b6110648585858585611a51565b5050505050565b6110736111cd565b73ffffffffffffffffffffffffffffffffffffffff166110916109ee565b73ffffffffffffffffffffffffffffffffffffffff16146110e7576040517f08c379a00000000000000000000000000000000000000000000000000000000081526004016110de90613102565b60405180910390fd5b600073ffffffffffffffffffffffffffffffffffffffff168173ffffffffffffffffffffffffffffffffffffffff161415611157576040517f08c379a000000000000000000000000000000000000000000000000000000000815260040161114e906133dd565b60405180910390fd5b611160816114e9565b50565b60007f01ffc9a7000000000000000000000000000000000000000000000000000000007bffffffffffffffffffffffffffffffffffffffffffffffffffffffff1916827bffffffffffffffffffffffffffffffffffffffffffffffffffffffff1916149050919050565b600033905090565b8151835114611219576040517f08c379a00000000000000000000000000000000000000000000000000000000081526004016112109061346f565b60405180910390fd5b600073ffffffffffffffffffffffffffffffffffffffff168473ffffffffffffffffffffffffffffffffffffffff161415611289576040517f08c379a000000000000000000000000000000000000000000000000000000000815260040161128090613501565b60405180910390fd5b60006112936111cd565b90506112a3818787878787611cd3565b60005b84518110156114545760008582815181106112c4576112c361300f565b5b6020026020010151905060008583815181106112e3576112e261300f565b5b60200260200101519050600080600084815260200190815260200160002060008b73ffffffffffffffffffffffffffffffffffffffff1673ffffffffffffffffffffffffffffffffffffffff16815260200190815260200160002054905081811015611384576040517f08c379a000000000000000000000000000000000000000000000000000000000815260040161137b90613593565b60405180910390fd5b81810360008085815260200190815260200160002060008c73ffffffffffffffffffffffffffffffffffffffff1673ffffffffffffffffffffffffffffffffffffffff168152602001908152602001600020819055508160008085815260200190815260200160002060008b73ffffffffffffffffffffffffffffffffffffffff1673ffffffffffffffffffffffffffffffffffffffff168152602001908152602001600020600082825461143991906135b3565b925050819055505050508061144d9061306d565b90506112a6565b508473ffffffffffffffffffffffffffffffffffffffff168673ffffffffffffffffffffffffffffffffffffffff168273ffffffffffffffffffffffffffffffffffffffff167f4a39dc06d4c0dbc64b70af90fd698a233a518aa5d07e595d983b8c0526c8f7fb87876040516114cb929190613609565b60405180910390a46114e1818787878787611cdb565b505050505050565b6000600360009054906101000a900473ffffffffffffffffffffffffffffffffffffffff16905081600360006101000a81548173ffffffffffffffffffffffffffffffffffffffff021916908373ffffffffffffffffffffffffffffffffffffffff1602179055508173ffffffffffffffffffffffffffffffffffffffff168173ffffffffffffffffffffffffffffffffffffffff167f8be0079c531659141344cd1fd0a4f28419497f9722a3daafe3b4186f6b6457e060405160405180910390a35050565b80600290805190602001906115c5929190612146565b5050565b8173ffffffffffffffffffffffffffffffffffffffff168373ffffffffffffffffffffffffffffffffffffffff161415611638576040517f08c379a000000000000000000000000000000000000000000000000000000000815260040161162f906136b2565b60405180910390fd5b80600160008573ffffffffffffffffffffffffffffffffffffffff1673ffffffffffffffffffffffffffffffffffffffff16815260200190815260200160002060008473ffffffffffffffffffffffffffffffffffffffff1673ffffffffffffffffffffffffffffffffffffffff16815260200190815260200160002060006101000a81548160ff0219169083151502179055508173ffffffffffffffffffffffffffffffffffffffff168373ffffffffffffffffffffffffffffffffffffffff167f17307eab39ab6107e8899845ad3d59bd9653f200f220920489ca2b5937696c3183604051611729919061239b565b60405180910390a3505050565b6001816000016000828254019250508190555050565b600081600001549050919050565b600073ffffffffffffffffffffffffffffffffffffffff168473ffffffffffffffffffffffffffffffffffffffff1614156117ca576040517f08c379a00000000000000000000000000000000000000000000000000000000081526004016117c190613744565b60405180910390fd5b60006117d46111cd565b90506117f5816000876117e688611ec2565b6117ef88611ec2565b87611cd3565b8260008086815260200190815260200160002060008773ffffffffffffffffffffffffffffffffffffffff1673ffffffffffffffffffffffffffffffffffffffff168152602001908152602001600020600082825461185491906135b3565b925050819055508473ffffffffffffffffffffffffffffffffffffffff16600073ffffffffffffffffffffffffffffffffffffffff168273ffffffffffffffffffffffffffffffffffffffff167fc3d58168c5ae7397731d063d5bbf3d657854427343f4c083240f7aacaa2d0f6287876040516118d2929190613764565b60405180910390a46118e981600087878787611f3c565b5050505050565b60606000821415611938576040518060400160405280600181526020017f30000000000000000000000000000000000000000000000000000000000000008152509050611a4c565b600082905060005b6000821461196a5780806119539061306d565b915050600a8261196391906137bc565b9150611940565b60008167ffffffffffffffff811115611986576119856124a3565b5b6040519080825280601f01601f1916602001820160405280156119b85781602001600182028036833780820191505090505b5090505b60008514611a45576001826119d191906137ed565b9150600a856119e09190613821565b60306119ec91906135b3565b60f81b818381518110611a0257611a0161300f565b5b60200101907effffffffffffffffffffffffffffffffffffffffffffffffffffffffffffff1916908160001a905350600a85611a3e91906137bc565b94506119bc565b8093505050505b919050565b600073ffffffffffffffffffffffffffffffffffffffff168473ffffffffffffffffffffffffffffffffffffffff161415611ac1576040517f08c379a0000000000000000000000000000000000000000000000000000000008152600401611ab890613501565b60405180910390fd5b6000611acb6111cd565b9050611aeb818787611adc88611ec2565b611ae588611ec2565b87611cd3565b600080600086815260200190815260200160002060008873ffffffffffffffffffffffffffffffffffffffff1673ffffffffffffffffffffffffffffffffffffffff16815260200190815260200160002054905083811015611b82576040517f08c379a0000000000000000000000000000000000000000000000000000000008152600401611b7990613593565b60405180910390fd5b83810360008087815260200190815260200160002060008973ffffffffffffffffffffffffffffffffffffffff1673ffffffffffffffffffffffffffffffffffffffff168152602001908152602001600020819055508360008087815260200190815260200160002060008873ffffffffffffffffffffffffffffffffffffffff1673ffffffffffffffffffffffffffffffffffffffff1681526020019081526020016000206000828254611c3791906135b3565b925050819055508573ffffffffffffffffffffffffffffffffffffffff168773ffffffffffffffffffffffffffffffffffffffff168373ffffffffffffffffffffffffffffffffffffffff167fc3d58168c5ae7397731d063d5bbf3d657854427343f4c083240f7aacaa2d0f628888604051611cb4929190613764565b60405180910390a4611cca828888888888611f3c565b50505050505050565b505050505050565b611cfa8473ffffffffffffffffffffffffffffffffffffffff16612123565b15611eba578373ffffffffffffffffffffffffffffffffffffffff1663bc197c8187878686866040518663ffffffff1660e01b8152600401611d409594939291906138a7565b602060405180830381600087803b158015611d5a57600080fd5b505af1925050508015611d8b57506040513d601f19601f82011682018060405250810190611d889190613924565b60015b611e3157611d9761395e565b806308c379a01415611df45750611dac613980565b80611db75750611df6565b806040517f08c379a0000000000000000000000000000000000000000000000000000000008152600401611deb919061247c565b60405180910390fd5b505b6040517f08c379a0000000000000000000000000000000000000000000000000000000008152600401611e2890613a88565b60405180910390fd5b63bc197c8160e01b7bffffffffffffffffffffffffffffffffffffffffffffffffffffffff1916817bffffffffffffffffffffffffffffffffffffffffffffffffffffffff191614611eb8576040517f08c379a0000000000000000000000000000000000000000000000000000000008152600401611eaf90613b1a565b60405180910390fd5b505b505050505050565b60606000600167ffffffffffffffff811115611ee157611ee06124a3565b5b604051908082528060200260200182016040528015611f0f5781602001602082028036833780820191505090505b5090508281600081518110611f2757611f2661300f565b5b60200260200101818152505080915050919050565b611f5b8473ffffffffffffffffffffffffffffffffffffffff16612123565b1561211b578373ffffffffffffffffffffffffffffffffffffffff1663f23a6e6187878686866040518663ffffffff1660e01b8152600401611fa1959493929190613b3a565b602060405180830381600087803b158015611fbb57600080fd5b505af1925050508015611fec57506040513d601f19601f82011682018060405250810190611fe99190613924565b60015b61209257611ff861395e565b806308c379a01415612055575061200d613980565b806120185750612057565b806040517f08c379a000000000000000000000000000000000000000000000000000000000815260040161204c919061247c565b60405180910390fd5b505b6040517f08c379a000000000000000000000000000000000000000000000000000000000815260040161208990613a88565b60405180910390fd5b63f23a6e6160e01b7bffffffffffffffffffffffffffffffffffffffffffffffffffffffff1916817bffffffffffffffffffffffffffffffffffffffffffffffffffffffff191614612119576040517f08c379a000000000000000000000000000000000000000000000000000000000815260040161211090613b1a565b60405180910390fd5b505b505050505050565b6000808273ffffffffffffffffffffffffffffffffffffffff163b119050919050565b82805461215290612eb9565b90600052602060002090601f01602090048101928261217457600085556121bb565b82601f1061218d57805160ff19168380011785556121bb565b828001600101855582156121bb579182015b828111156121ba57825182559160200191906001019061219f565b5b5090506121c891906121cc565b5090565b5b808211156121e55760008160009055506001016121cd565b5090565b6000604051905090565b600080fd5b600080fd5b600073ffffffffffffffffffffffffffffffffffffffff82169050919050565b6000612228826121fd565b9050919050565b6122388161221d565b811461224357600080fd5b50565b6000813590506122558161222f565b92915050565b6000819050919050565b61226e8161225b565b811461227957600080fd5b50565b60008135905061228b81612265565b92915050565b600080604083850312156122a8576122a76121f3565b5b60006122b685828601612246565b92505060206122c78582860161227c565b9150509250929050565b6122da8161225b565b82525050565b60006020820190506122f560008301846122d1565b92915050565b60007fffffffff0000000000000000000000000000000000000000000000000000000082169050919050565b612330816122fb565b811461233b57600080fd5b50565b60008135905061234d81612327565b92915050565b600060208284031215612369576123686121f3565b5b60006123778482850161233e565b91505092915050565b60008115159050919050565b61239581612380565b82525050565b60006020820190506123b0600083018461238c565b92915050565b6000602082840312156123cc576123cb6121f3565b5b60006123da8482850161227c565b91505092915050565b600081519050919050565b600082825260208201905092915050565b60005b8381101561241d578082015181840152602081019050612402565b8381111561242c576000848401525b50505050565b6000601f19601f8301169050919050565b600061244e826123e3565b61245881856123ee565b93506124688185602086016123ff565b61247181612432565b840191505092915050565b600060208201905081810360008301526124968184612443565b905092915050565b600080fd5b7f4e487b7100000000000000000000000000000000000000000000000000000000600052604160045260246000fd5b6124db82612432565b810181811067ffffffffffffffff821117156124fa576124f96124a3565b5b80604052505050565b600061250d6121e9565b905061251982826124d2565b919050565b600067ffffffffffffffff821115612539576125386124a3565b5b602082029050602081019050919050565b600080fd5b600061256261255d8461251e565b612503565b905080838252602082019050602084028301858111156125855761258461254a565b5b835b818110156125ae578061259a888261227c565b845260208401935050602081019050612587565b5050509392505050565b600082601f8301126125cd576125cc61249e565b5b81356125dd84826020860161254f565b91505092915050565b600080fd5b600067ffffffffffffffff821115612606576126056124a3565b5b61260f82612432565b9050602081019050919050565b82818337600083830152505050565b600061263e612639846125eb565b612503565b90508281526020810184848401111561265a576126596125e6565b5b61266584828561261c565b509392505050565b600082601f8301126126825761268161249e565b5b813561269284826020860161262b565b91505092915050565b600080600080600060a086880312156126b7576126b66121f3565b5b60006126c588828901612246565b95505060206126d688828901612246565b945050604086013567ffffffffffffffff8111156126f7576126f66121f8565b5b612703888289016125b8565b935050606086013567ffffffffffffffff811115612724576127236121f8565b5b612730888289016125b8565b925050608086013567ffffffffffffffff811115612751576127506121f8565b5b61275d8882890161266d565b9150509295509295909350565b60006fffffffffffffffffffffffffffffffff82169050919050565b61278f8161276a565b82525050565b60006020820190506127aa6000830184612786565b92915050565b600067ffffffffffffffff8211156127cb576127ca6124a3565b5b602082029050602081019050919050565b60006127ef6127ea846127b0565b612503565b905080838252602082019050602084028301858111156128125761281161254a565b5b835b8181101561283b57806128278882612246565b845260208401935050602081019050612814565b5050509392505050565b600082601f83011261285a5761285961249e565b5b813561286a8482602086016127dc565b91505092915050565b6000806040838503121561288a576128896121f3565b5b600083013567ffffffffffffffff8111156128a8576128a76121f8565b5b6128b485828601612845565b925050602083013567ffffffffffffffff8111156128d5576128d46121f8565b5b6128e1858286016125b8565b9150509250929050565b600081519050919050565b600082825260208201905092915050565b6000819050602082019050919050565b6129208161225b565b82525050565b60006129328383612917565b60208301905092915050565b6000602082019050919050565b6000612956826128eb565b61296081856128f6565b935061296b83612907565b8060005b8381101561299c5781516129838882612926565b975061298e8361293e565b92505060018101905061296f565b5085935050505092915050565b600060208201905081810360008301526129c3818461294b565b905092915050565b600060a0820190506129e060008301886122d1565b81810360208301526129f28187612443565b90508181036040830152612a068186612443565b9050612a156060830185612786565b612a226080830184612786565b9695505050505050565b612a358161221d565b82525050565b6000602082019050612a506000830184612a2c565b92915050565b600067ffffffffffffffff821115612a7157612a706124a3565b5b612a7a82612432565b9050602081019050919050565b6000612a9a612a9584612a56565b612503565b905082815260208101848484011115612ab657612ab56125e6565b5b612ac184828561261c565b509392505050565b600082601f830112612ade57612add61249e565b5b8135612aee848260208601612a87565b91505092915050565b600060208284031215612b0d57612b0c6121f3565b5b600082013567ffffffffffffffff811115612b2b57612b2a6121f8565b5b612b3784828501612ac9565b91505092915050565b612b4981612380565b8114612b5457600080fd5b50565b600081359050612b6681612b40565b92915050565b60008060408385031215612b8357612b826121f3565b5b6000612b9185828601612246565b9250506020612ba285828601612b57565b9150509250929050565b600080fd5b60008083601f840112612bc757612bc661249e565b5b8235905067ffffffffffffffff811115612be457612be3612bac565b5b602083019150836001820283011115612c0057612bff61254a565b5b9250929050565b60008060008060408587031215612c2157612c206121f3565b5b600085013567ffffffffffffffff811115612c3f57612c3e6121f8565b5b612c4b87828801612bb1565b9450945050602085013567ffffffffffffffff811115612c6e57612c6d6121f8565b5b612c7a87828801612bb1565b925092505092959194509250565b612c918161276a565b8114612c9c57600080fd5b50565b600081359050612cae81612c88565b92915050565b60008060408385031215612ccb57612cca6121f3565b5b6000612cd98582860161227c565b9250506020612cea85828601612c9f565b9150509250929050565b60008060408385031215612d0b57612d0a6121f3565b5b6000612d1985828601612246565b9250506020612d2a85828601612246565b9150509250929050565b600080600080600060a08688031215612d5057612d4f6121f3565b5b6000612d5e88828901612246565b9550506020612d6f88828901612246565b9450506040612d808882890161227c565b9350506060612d918882890161227c565b925050608086013567ffffffffffffffff811115612db257612db16121f8565b5b612dbe8882890161266d565b9150509295509295909350565b600060208284031215612de157612de06121f3565b5b6000612def84828501612246565b91505092915050565b7f455243313135353a2062616c616e636520717565727920666f7220746865207a60008201527f65726f2061646472657373000000000000000000000000000000000000000000602082015250565b6000612e54602b836123ee565b9150612e5f82612df8565b604082019050919050565b60006020820190508181036000830152612e8381612e47565b9050919050565b7f4e487b7100000000000000000000000000000000000000000000000000000000600052602260045260246000fd5b60006002820490506001821680612ed157607f821691505b60208210811415612ee557612ee4612e8a565b5b50919050565b7f455243313135353a207472616e736665722063616c6c6572206973206e6f742060008201527f6f776e6572206e6f7220617070726f7665640000000000000000000000000000602082015250565b6000612f476032836123ee565b9150612f5282612eeb565b604082019050919050565b60006020820190508181036000830152612f7681612f3a565b9050919050565b7f455243313135353a206163636f756e747320616e6420696473206c656e67746860008201527f206d69736d617463680000000000000000000000000000000000000000000000602082015250565b6000612fd96029836123ee565b9150612fe482612f7d565b604082019050919050565b6000602082019050818103600083015261300881612fcc565b9050919050565b7f4e487b7100000000000000000000000000000000000000000000000000000000600052603260045260246000fd5b7f4e487b7100000000000000000000000000000000000000000000000000000000600052601160045260246000fd5b60006130788261225b565b91507fffffffffffffffffffffffffffffffffffffffffffffffffffffffffffffffff8214156130ab576130aa61303e565b5b600182019050919050565b7f4f776e61626c653a2063616c6c6572206973206e6f7420746865206f776e6572600082015250565b60006130ec6020836123ee565b91506130f7826130b6565b602082019050919050565b6000602082019050818103600083015261311b816130df565b9050919050565b7f5265656e7472616e637947756172643a207265656e7472616e742063616c6c00600082015250565b6000613158601f836123ee565b915061316382613122565b602082019050919050565b600060208201905081810360008301526131878161314b565b9050919050565b600081905092915050565b60008190508160005260206000209050919050565b600081546131bb81612eb9565b6131c5818661318e565b945060018216600081146131e057600181146131f157613224565b60ff19831686528186019350613224565b6131fa85613199565b60005b8381101561321c578154818901526001820191506020810190506131fd565b838801955050505b50505092915050565b6000613238826123e3565b613242818561318e565b93506132528185602086016123ff565b80840191505092915050565b7f2e6a736f6e000000000000000000000000000000000000000000000000000000600082015250565b600061329460058361318e565b915061329f8261325e565b600582019050919050565b60006132b682856131ae565b91506132c2828461322d565b91506132cd82613287565b91508190509392505050565b7f455243313135353a2063616c6c6572206973206e6f74206f776e6572206e6f7260008201527f20617070726f7665640000000000000000000000000000000000000000000000602082015250565b60006133356029836123ee565b9150613340826132d9565b604082019050919050565b6000602082019050818103600083015261336481613328565b9050919050565b7f4f776e61626c653a206e6577206f776e657220697320746865207a65726f206160008201527f6464726573730000000000000000000000000000000000000000000000000000602082015250565b60006133c76026836123ee565b91506133d28261336b565b604082019050919050565b600060208201905081810360008301526133f6816133ba565b9050919050565b7f455243313135353a2069647320616e6420616d6f756e7473206c656e6774682060008201527f6d69736d61746368000000000000000000000000000000000000000000000000602082015250565b60006134596028836123ee565b9150613464826133fd565b604082019050919050565b600060208201905081810360008301526134888161344c565b9050919050565b7f455243313135353a207472616e7366657220746f20746865207a65726f20616460008201527f6472657373000000000000000000000000000000000000000000000000000000602082015250565b60006134eb6025836123ee565b91506134f68261348f565b604082019050919050565b6000602082019050818103600083015261351a816134de565b9050919050565b7f455243313135353a20696e73756666696369656e742062616c616e636520666f60008201527f72207472616e7366657200000000000000000000000000000000000000000000602082015250565b600061357d602a836123ee565b915061358882613521565b604082019050919050565b600060208201905081810360008301526135ac81613570565b9050919050565b60006135be8261225b565b91506135c98361225b565b9250827fffffffffffffffffffffffffffffffffffffffffffffffffffffffffffffffff038211156135fe576135fd61303e565b5b828201905092915050565b60006040820190508181036000830152613623818561294b565b90508181036020830152613637818461294b565b90509392505050565b7f455243313135353a2073657474696e6720617070726f76616c2073746174757360008201527f20666f722073656c660000000000000000000000000000000000000000000000602082015250565b600061369c6029836123ee565b91506136a782613640565b604082019050919050565b600060208201905081810360008301526136cb8161368f565b9050919050565b7f455243313135353a206d696e7420746f20746865207a65726f2061646472657360008201527f7300000000000000000000000000000000000000000000000000000000000000602082015250565b600061372e6021836123ee565b9150613739826136d2565b604082019050919050565b6000602082019050818103600083015261375d81613721565b9050919050565b600060408201905061377960008301856122d1565b61378660208301846122d1565b9392505050565b7f4e487b7100000000000000000000000000000000000000000000000000000000600052601260045260246000fd5b60006137c78261225b565b91506137d28361225b565b9250826137e2576137e161378d565b5b828204905092915050565b60006137f88261225b565b91506138038361225b565b9250828210156138165761381561303e565b5b828203905092915050565b600061382c8261225b565b91506138378361225b565b9250826138475761384661378d565b5b828206905092915050565b600081519050919050565b600082825260208201905092915050565b600061387982613852565b613883818561385d565b93506138938185602086016123ff565b61389c81612432565b840191505092915050565b600060a0820190506138bc6000830188612a2c565b6138c96020830187612a2c565b81810360408301526138db818661294b565b905081810360608301526138ef818561294b565b90508181036080830152613903818461386e565b90509695505050505050565b60008151905061391e81612327565b92915050565b60006020828403121561393a576139396121f3565b5b60006139488482850161390f565b91505092915050565b60008160e01c9050919050565b600060033d111561397d5760046000803e61397a600051613951565b90505b90565b600060443d101561399057613a13565b6139986121e9565b60043d036004823e80513d602482011167ffffffffffffffff821117156139c0575050613a13565b808201805167ffffffffffffffff8111156139de5750505050613a13565b80602083010160043d0385018111156139fb575050505050613a13565b613a0a826020018501866124d2565b82955050505050505b90565b7f455243313135353a207472616e7366657220746f206e6f6e204552433131353560008201527f526563656976657220696d706c656d656e746572000000000000000000000000602082015250565b6000613a726034836123ee565b9150613a7d82613a16565b604082019050919050565b60006020820190508181036000830152613aa181613a65565b9050919050565b7f455243313135353a204552433131353552656365697665722072656a6563746560008201527f6420746f6b656e73000000000000000000000000000000000000000000000000602082015250565b6000613b046028836123ee565b9150613b0f82613aa8565b604082019050919050565b60006020820190508181036000830152613b3381613af7565b9050919050565b600060a082019050613b4f6000830188612a2c565b613b5c6020830187612a2c565b613b6960408301866122d1565b613b7660608301856122d1565b8181036080830152613b88818461386e565b9050969550505050505056fea264697066735822122029b9d3ef8f2192821168697feefcb5cf2511bc69a0b6ed9cb888fb03a87f767764736f6c6343000809003368747470733a2f2f7777772e7265616c657374617465636861696e2e65732f6170692f6974656d2f68747470733a2f2f7777772e7265616c657374617465636861696e2e65732f6170692f6974656d2f7b69647d2e6a736f6e",
  "devdoc": {
    "kind": "dev",
    "methods": {
      "addREAT(string,string)": {
        "details": "addREAT() mints the token and updates the token counter",
        "params": {
          "_hashJsonToken": "is the keccak256 of the property metadata",
          "_idCatastro": "is the ID to be provided by the Catastro office"
        },
        "returns": {
          "_0": "ID of the struct REATdata that got created/updated"
        }
      },
      "balanceOf(address,uint256)": {
        "details": "See {IERC1155-balanceOf}. Requirements: - `account` cannot be the zero address."
      },
      "balanceOfBatch(address[],uint256[])": {
        "details": "See {IERC1155-balanceOfBatch}. Requirements: - `accounts` and `ids` must have the same length."
      },
      "getUri(uint256)": {
        "details": "Function to add the tokenId on the URI that's returned",
        "params": {
          "_tokenId": "variable passed to assign the ID, that is the token type "
        }
      },
      "isApprovedForAll(address,address)": {
        "details": "See {IERC1155-isApprovedForAll}."
      },
      "owner()": {
        "details": "Returns the address of the current owner."
      },
      "paused()": {
        "details": "Returns true if the contract is paused, and false otherwise."
      },
      "renounceOwnership()": {
        "details": "Leaves the contract without owner. It will not be possible to call `onlyOwner` functions anymore. Can only be called by the current owner. NOTE: Renouncing ownership will leave the contract without an owner, thereby removing any functionality that is only available to the owner."
      },
      "safeBatchTransferFrom(address,address,uint256[],uint256[],bytes)": {
        "details": "See {IERC1155-safeBatchTransferFrom}."
      },
      "safeTransferFrom(address,address,uint256,uint256,bytes)": {
        "details": "See {IERC1155-safeTransferFrom}."
      },
      "setApprovalForAll(address,bool)": {
        "details": "See {IERC1155-setApprovalForAll}."
      },
      "supportsInterface(bytes4)": {
        "details": "See {IERC165-supportsInterface}."
      },
      "transferOwnership(address)": {
        "details": "Transfers ownership of the contract to a new account (`newOwner`). Can only be called by the current owner."
      },
      "updateHashJsonDoc(uint256,uint128)": {
        "details": "This function will update the json hash whenever there are updates in property docs",
        "params": {
          "_id": "used to search in the reatdata mapping to find the struct that will be updated",
          "_newHashJsonDoc": "is the new hash that will replace the hashJsonDoc inside the struct reatdata"
        }
      },
      "updateMasterUri(string)": {
        "details": "updateMasterUri() sets a new URI for the token type passed as argumentwhere is the OWNER defined ?",
        "params": {
          "uri_": "is the ID that will be set for the token type"
        }
      },
      "uri(uint256)": {
        "details": "See {IERC1155MetadataURI-uri}. This implementation returns the same URI for *all* token types. It relies on the token type ID substitution mechanism https://eips.ethereum.org/EIPS/eip-1155#metadata[defined in the EIP]. Clients calling this function must replace the `\\{id\\}` substring with the actual token type ID."
      }
    },
    "stateVariables": {
      "reatdata": {
        "details": "a mapping to index all REATData structs created in the contract"
      }
    },
    "version": 1
  },
  "userdoc": {
    "kind": "user",
    "methods": {
      "addREAT(string,string)": {
        "notice": "why are we passing the parameters as calldata ?token minted with URI property \"hashJsonDoc\" empty. It'll be added later on"
      },
      "getUri(uint256)": {
        "notice": "it takes the base URI and concatenates the _tokenId and adds \".json\" in the end"
      },
      "updateMasterUri(string)": {
        "notice": "a new token type is created for every single propertyinherited modifier \"nonReentrant\" from ReentrancyGuard contract"
      }
    },
    "version": 1
  },
  "storageLayout": {
    "storage": [
      {
        "astId": 262,
        "contract": "contracts/MasterREAT_EG_ext_Savings.sol:MasterREAT_EG_ext_Savings",
        "label": "_balances",
        "offset": 0,
        "slot": "0",
        "type": "t_mapping(t_uint256,t_mapping(t_address,t_uint256))"
      },
      {
        "astId": 268,
        "contract": "contracts/MasterREAT_EG_ext_Savings.sol:MasterREAT_EG_ext_Savings",
        "label": "_operatorApprovals",
        "offset": 0,
        "slot": "1",
        "type": "t_mapping(t_address,t_mapping(t_address,t_bool))"
      },
      {
        "astId": 270,
        "contract": "contracts/MasterREAT_EG_ext_Savings.sol:MasterREAT_EG_ext_Savings",
        "label": "_uri",
        "offset": 0,
        "slot": "2",
        "type": "t_string_storage"
      },
      {
        "astId": 7,
        "contract": "contracts/MasterREAT_EG_ext_Savings.sol:MasterREAT_EG_ext_Savings",
        "label": "_owner",
        "offset": 0,
        "slot": "3",
        "type": "t_address"
      },
      {
        "astId": 122,
        "contract": "contracts/MasterREAT_EG_ext_Savings.sol:MasterREAT_EG_ext_Savings",
        "label": "_paused",
        "offset": 20,
        "slot": "3",
        "type": "t_bool"
      },
      {
        "astId": 207,
        "contract": "contracts/MasterREAT_EG_ext_Savings.sol:MasterREAT_EG_ext_Savings",
        "label": "_status",
        "offset": 0,
        "slot": "4",
        "type": "t_uint256"
      },
      {
        "astId": 2207,
        "contract": "contracts/MasterREAT_EG_ext_Savings.sol:MasterREAT_EG_ext_Savings",
        "label": "baseUri",
        "offset": 0,
        "slot": "5",
        "type": "t_string_storage"
      },
      {
        "astId": 2220,
        "contract": "contracts/MasterREAT_EG_ext_Savings.sol:MasterREAT_EG_ext_Savings",
        "label": "_reatAutoId",
        "offset": 0,
        "slot": "6",
        "type": "t_struct(Counter)1880_storage"
      },
      {
        "astId": 2237,
        "contract": "contracts/MasterREAT_EG_ext_Savings.sol:MasterREAT_EG_ext_Savings",
        "label": "reatdata",
        "offset": 0,
        "slot": "7",
        "type": "t_mapping(t_uint256,t_struct(REATData)2231_storage)"
      }
    ],
    "types": {
      "t_address": {
        "encoding": "inplace",
        "label": "address",
        "numberOfBytes": "20"
      },
      "t_bool": {
        "encoding": "inplace",
        "label": "bool",
        "numberOfBytes": "1"
      },
      "t_mapping(t_address,t_bool)": {
        "encoding": "mapping",
        "key": "t_address",
        "label": "mapping(address => bool)",
        "numberOfBytes": "32",
        "value": "t_bool"
      },
      "t_mapping(t_address,t_mapping(t_address,t_bool))": {
        "encoding": "mapping",
        "key": "t_address",
        "label": "mapping(address => mapping(address => bool))",
        "numberOfBytes": "32",
        "value": "t_mapping(t_address,t_bool)"
      },
      "t_mapping(t_address,t_uint256)": {
        "encoding": "mapping",
        "key": "t_address",
        "label": "mapping(address => uint256)",
        "numberOfBytes": "32",
        "value": "t_uint256"
      },
      "t_mapping(t_uint256,t_mapping(t_address,t_uint256))": {
        "encoding": "mapping",
        "key": "t_uint256",
        "label": "mapping(uint256 => mapping(address => uint256))",
        "numberOfBytes": "32",
        "value": "t_mapping(t_address,t_uint256)"
      },
      "t_mapping(t_uint256,t_struct(REATData)2231_storage)": {
        "encoding": "mapping",
        "key": "t_uint256",
        "label": "mapping(uint256 => struct MasterREAT_EG_ext_Savings.REATData)",
        "numberOfBytes": "32",
        "value": "t_struct(REATData)2231_storage"
      },
      "t_string_storage": {
        "encoding": "bytes",
        "label": "string",
        "numberOfBytes": "32"
      },
      "t_struct(Counter)1880_storage": {
        "encoding": "inplace",
        "label": "struct Counters.Counter",
        "members": [
          {
            "astId": 1879,
            "contract": "contracts/MasterREAT_EG_ext_Savings.sol:MasterREAT_EG_ext_Savings",
            "label": "_value",
            "offset": 0,
            "slot": "0",
            "type": "t_uint256"
          }
        ],
        "numberOfBytes": "32"
      },
      "t_struct(REATData)2231_storage": {
        "encoding": "inplace",
        "label": "struct MasterREAT_EG_ext_Savings.REATData",
        "members": [
          {
            "astId": 2222,
            "contract": "contracts/MasterREAT_EG_ext_Savings.sol:MasterREAT_EG_ext_Savings",
            "label": "REATid",
            "offset": 0,
            "slot": "0",
            "type": "t_uint256"
          },
          {
            "astId": 2224,
            "contract": "contracts/MasterREAT_EG_ext_Savings.sol:MasterREAT_EG_ext_Savings",
            "label": "idCatastro",
            "offset": 0,
            "slot": "1",
            "type": "t_string_storage"
          },
          {
            "astId": 2226,
            "contract": "contracts/MasterREAT_EG_ext_Savings.sol:MasterREAT_EG_ext_Savings",
            "label": "hashJsonToken",
            "offset": 0,
            "slot": "2",
            "type": "t_string_storage"
          },
          {
            "astId": 2228,
            "contract": "contracts/MasterREAT_EG_ext_Savings.sol:MasterREAT_EG_ext_Savings",
            "label": "hashJsonDoc",
            "offset": 0,
            "slot": "3",
            "type": "t_uint128"
          },
          {
            "astId": 2230,
            "contract": "contracts/MasterREAT_EG_ext_Savings.sol:MasterREAT_EG_ext_Savings",
            "label": "exists",
            "offset": 16,
            "slot": "3",
            "type": "t_uint128"
          }
        ],
        "numberOfBytes": "128"
      },
      "t_uint128": {
        "encoding": "inplace",
        "label": "uint128",
        "numberOfBytes": "16"
      },
      "t_uint256": {
        "encoding": "inplace",
        "label": "uint256",
        "numberOfBytes": "32"
      }
    }
  }
}