{
  "address": "0x9998C58F7d5F55f82FF5DC3051592c3eb1237531",
  "abi": [
    {
      "inputs": [],
      "stateMutability": "nonpayable",
      "type": "constructor"
    },
    {
      "anonymous": false,
      "inputs": [
        {
          "indexed": true,
          "internalType": "address",
          "name": "account",
          "type": "address"
        },
        {
          "indexed": true,
          "internalType": "address",
          "name": "operator",
          "type": "address"
        },
        {
          "indexed": false,
          "internalType": "bool",
          "name": "approved",
          "type": "bool"
        }
      ],
      "name": "ApprovalForAll",
      "type": "event"
    },
    {
      "anonymous": false,
      "inputs": [
        {
          "indexed": true,
          "internalType": "address",
          "name": "previousOwner",
          "type": "address"
        },
        {
          "indexed": true,
          "internalType": "address",
          "name": "newOwner",
          "type": "address"
        }
      ],
      "name": "OwnershipTransferred",
      "type": "event"
    },
    {
      "anonymous": false,
      "inputs": [
        {
          "indexed": true,
          "internalType": "address",
          "name": "operator",
          "type": "address"
        },
        {
          "indexed": true,
          "internalType": "address",
          "name": "from",
          "type": "address"
        },
        {
          "indexed": true,
          "internalType": "address",
          "name": "to",
          "type": "address"
        },
        {
          "indexed": false,
          "internalType": "uint256[]",
          "name": "ids",
          "type": "uint256[]"
        },
        {
          "indexed": false,
          "internalType": "uint256[]",
          "name": "values",
          "type": "uint256[]"
        }
      ],
      "name": "TransferBatch",
      "type": "event"
    },
    {
      "anonymous": false,
      "inputs": [
        {
          "indexed": true,
          "internalType": "address",
          "name": "operator",
          "type": "address"
        },
        {
          "indexed": true,
          "internalType": "address",
          "name": "from",
          "type": "address"
        },
        {
          "indexed": true,
          "internalType": "address",
          "name": "to",
          "type": "address"
        },
        {
          "indexed": false,
          "internalType": "uint256",
          "name": "id",
          "type": "uint256"
        },
        {
          "indexed": false,
          "internalType": "uint256",
          "name": "value",
          "type": "uint256"
        }
      ],
      "name": "TransferSingle",
      "type": "event"
    },
    {
      "anonymous": false,
      "inputs": [
        {
          "indexed": false,
          "internalType": "string",
          "name": "value",
          "type": "string"
        },
        {
          "indexed": true,
          "internalType": "uint256",
          "name": "id",
          "type": "uint256"
        }
      ],
      "name": "URI",
      "type": "event"
    },
    {
      "inputs": [
        {
          "internalType": "string",
          "name": "_idCatastro",
          "type": "string"
        },
        {
          "internalType": "string",
          "name": "_hashJsonToken",
          "type": "string"
        }
      ],
      "name": "addREAT",
      "outputs": [
        {
          "internalType": "uint256",
          "name": "",
          "type": "uint256"
        }
      ],
      "stateMutability": "nonpayable",
      "type": "function"
    },
    {
      "inputs": [
        {
          "internalType": "address",
          "name": "account",
          "type": "address"
        },
        {
          "internalType": "uint256",
          "name": "id",
          "type": "uint256"
        }
      ],
      "name": "balanceOf",
      "outputs": [
        {
          "internalType": "uint256",
          "name": "",
          "type": "uint256"
        }
      ],
      "stateMutability": "view",
      "type": "function"
    },
    {
      "inputs": [
        {
          "internalType": "address[]",
          "name": "accounts",
          "type": "address[]"
        },
        {
          "internalType": "uint256[]",
          "name": "ids",
          "type": "uint256[]"
        }
      ],
      "name": "balanceOfBatch",
      "outputs": [
        {
          "internalType": "uint256[]",
          "name": "",
          "type": "uint256[]"
        }
      ],
      "stateMutability": "view",
      "type": "function"
    },
    {
      "inputs": [
        {
          "internalType": "uint256",
          "name": "_tokenId",
          "type": "uint256"
        }
      ],
      "name": "getUri",
      "outputs": [
        {
          "internalType": "string",
          "name": "",
          "type": "string"
        }
      ],
      "stateMutability": "view",
      "type": "function"
    },
    {
      "inputs": [
        {
          "internalType": "address",
          "name": "account",
          "type": "address"
        },
        {
          "internalType": "address",
          "name": "operator",
          "type": "address"
        }
      ],
      "name": "isApprovedForAll",
      "outputs": [
        {
          "internalType": "bool",
          "name": "",
          "type": "bool"
        }
      ],
      "stateMutability": "view",
      "type": "function"
    },
    {
      "inputs": [],
      "name": "owner",
      "outputs": [
        {
          "internalType": "address",
          "name": "",
          "type": "address"
        }
      ],
      "stateMutability": "view",
      "type": "function"
    },
    {
      "inputs": [
        {
          "internalType": "uint256",
          "name": "",
          "type": "uint256"
        }
      ],
      "name": "reatdata",
      "outputs": [
        {
          "internalType": "uint256",
          "name": "REATid",
          "type": "uint256"
        },
        {
          "internalType": "string",
          "name": "idCatastro",
          "type": "string"
        },
        {
          "internalType": "string",
          "name": "hashJsonToken",
          "type": "string"
        },
        {
          "internalType": "string",
          "name": "hashJsonDoc",
          "type": "string"
        },
        {
          "internalType": "bool",
          "name": "exists",
          "type": "bool"
        }
      ],
      "stateMutability": "view",
      "type": "function"
    },
    {
      "inputs": [],
      "name": "renounceOwnership",
      "outputs": [],
      "stateMutability": "nonpayable",
      "type": "function"
    },
    {
      "inputs": [
        {
          "internalType": "address",
          "name": "from",
          "type": "address"
        },
        {
          "internalType": "address",
          "name": "to",
          "type": "address"
        },
        {
          "internalType": "uint256[]",
          "name": "ids",
          "type": "uint256[]"
        },
        {
          "internalType": "uint256[]",
          "name": "amounts",
          "type": "uint256[]"
        },
        {
          "internalType": "bytes",
          "name": "data",
          "type": "bytes"
        }
      ],
      "name": "safeBatchTransferFrom",
      "outputs": [],
      "stateMutability": "nonpayable",
      "type": "function"
    },
    {
      "inputs": [
        {
          "internalType": "address",
          "name": "from",
          "type": "address"
        },
        {
          "internalType": "address",
          "name": "to",
          "type": "address"
        },
        {
          "internalType": "uint256",
          "name": "id",
          "type": "uint256"
        },
        {
          "internalType": "uint256",
          "name": "amount",
          "type": "uint256"
        },
        {
          "internalType": "bytes",
          "name": "data",
          "type": "bytes"
        }
      ],
      "name": "safeTransferFrom",
      "outputs": [],
      "stateMutability": "nonpayable",
      "type": "function"
    },
    {
      "inputs": [
        {
          "internalType": "address",
          "name": "operator",
          "type": "address"
        },
        {
          "internalType": "bool",
          "name": "approved",
          "type": "bool"
        }
      ],
      "name": "setApprovalForAll",
      "outputs": [],
      "stateMutability": "nonpayable",
      "type": "function"
    },
    {
      "inputs": [
        {
          "internalType": "bytes4",
          "name": "interfaceId",
          "type": "bytes4"
        }
      ],
      "name": "supportsInterface",
      "outputs": [
        {
          "internalType": "bool",
          "name": "",
          "type": "bool"
        }
      ],
      "stateMutability": "view",
      "type": "function"
    },
    {
      "inputs": [
        {
          "internalType": "address",
          "name": "newOwner",
          "type": "address"
        }
      ],
      "name": "transferOwnership",
      "outputs": [],
      "stateMutability": "nonpayable",
      "type": "function"
    },
    {
      "inputs": [
        {
          "internalType": "uint256",
          "name": "_id",
          "type": "uint256"
        },
        {
          "internalType": "string",
          "name": "_newHashJsonDoc",
          "type": "string"
        }
      ],
      "name": "updateHashJsonDoc",
      "outputs": [],
      "stateMutability": "nonpayable",
      "type": "function"
    },
    {
      "inputs": [
        {
          "internalType": "string",
          "name": "uri_",
          "type": "string"
        }
      ],
      "name": "updateMasterUri",
      "outputs": [],
      "stateMutability": "nonpayable",
      "type": "function"
    },
    {
      "inputs": [
        {
          "internalType": "uint256",
          "name": "",
          "type": "uint256"
        }
      ],
      "name": "uri",
      "outputs": [
        {
          "internalType": "string",
          "name": "",
          "type": "string"
        }
      ],
      "stateMutability": "view",
      "type": "function"
    }
  ],
  "transactionHash": "0x88d858ccf040253d8f3d2db248b1a470ac6fb4f3ee46fe61fe04246d2f3daf87",
  "args": [],
  "numDeployments": 5,
  "solcInputHash": "6a564feab57c81af3aaae1b10833ad68",
  "bytecode": "0x608060405260405180606001604052806028815260200162003ca960289139600490805190602001906200003592919062000180565b503480156200004357600080fd5b5060405180606001604052806031815260200162003cd1603191396200006f816200009660201b60201c565b506200009062000084620000b260201b60201c565b620000ba60201b60201c565b62000295565b8060029080519060200190620000ae92919062000180565b5050565b600033905090565b6000600360009054906101000a900473ffffffffffffffffffffffffffffffffffffffff16905081600360006101000a81548173ffffffffffffffffffffffffffffffffffffffff021916908373ffffffffffffffffffffffffffffffffffffffff1602179055508173ffffffffffffffffffffffffffffffffffffffff168173ffffffffffffffffffffffffffffffffffffffff167f8be0079c531659141344cd1fd0a4f28419497f9722a3daafe3b4186f6b6457e060405160405180910390a35050565b8280546200018e906200025f565b90600052602060002090601f016020900481019282620001b25760008555620001fe565b82601f10620001cd57805160ff1916838001178555620001fe565b82800160010185558215620001fe579182015b82811115620001fd578251825591602001919060010190620001e0565b5b5090506200020d919062000211565b5090565b5b808211156200022c57600081600090555060010162000212565b5090565b7f4e487b7100000000000000000000000000000000000000000000000000000000600052602260045260246000fd5b600060028204905060018216806200027857607f821691505b602082108114156200028f576200028e62000230565b5b50919050565b613a0480620002a56000396000f3fe608060405234801561001057600080fd5b50600436106100ff5760003560e01c80638da5cb5b11610097578063da0544aa11610066578063da0544aa146102c0578063e985e9c5146102f0578063f242432a14610320578063f2fde38b1461033c576100ff565b80638da5cb5b1461023a5780639dcbf87614610258578063a22cb46514610274578063acbe9dd614610290576100ff565b80632eb2c2d6116100d35780632eb2c2d6146101b05780634e1273f4146101cc5780635d9a8a45146101fc578063715018a614610230576100ff565b8062fdd58e1461010457806301ffc9a7146101345780630e89341c1461016457806327786ae114610194575b600080fd5b61011e60048036038101906101199190612182565b610358565b60405161012b91906121d1565b60405180910390f35b61014e60048036038101906101499190612244565b610421565b60405161015b919061228c565b60405180910390f35b61017e600480360381019061017991906122a7565b610503565b60405161018b919061236d565b60405180910390f35b6101ae60048036038101906101a991906123f4565b610597565b005b6101ca60048036038101906101c59190612647565b610672565b005b6101e660048036038101906101e191906127d9565b610713565b6040516101f3919061290f565b60405180910390f35b610216600480360381019061021191906122a7565b61082c565b604051610227959493929190612931565b60405180910390f35b610238610a07565b005b610242610a8f565b60405161024f91906129a8565b60405180910390f35b610272600480360381019061026d9190612a64565b610ab9565b005b61028e60048036038101906102899190612ad9565b610b41565b005b6102aa60048036038101906102a59190612b19565b610b57565b6040516102b791906121d1565b60405180910390f35b6102da60048036038101906102d591906122a7565b610d6d565b6040516102e7919061236d565b60405180910390f35b61030a60048036038101906103059190612b9a565b610da1565b604051610317919061228c565b60405180910390f35b61033a60048036038101906103359190612bda565b610e35565b005b61035660048036038101906103519190612c71565b610ed6565b005b60008073ffffffffffffffffffffffffffffffffffffffff168373ffffffffffffffffffffffffffffffffffffffff1614156103c9576040517f08c379a00000000000000000000000000000000000000000000000000000000081526004016103c090612d10565b60405180910390fd5b60008083815260200190815260200160002060008473ffffffffffffffffffffffffffffffffffffffff1673ffffffffffffffffffffffffffffffffffffffff16815260200190815260200160002054905092915050565b60007fd9b67a26000000000000000000000000000000000000000000000000000000007bffffffffffffffffffffffffffffffffffffffffffffffffffffffff1916827bffffffffffffffffffffffffffffffffffffffffffffffffffffffff191614806104ec57507f0e89341c000000000000000000000000000000000000000000000000000000007bffffffffffffffffffffffffffffffffffffffffffffffffffffffff1916827bffffffffffffffffffffffffffffffffffffffffffffffffffffffff1916145b806104fc57506104fb82610fce565b5b9050919050565b60606002805461051290612d5f565b80601f016020809104026020016040519081016040528092919081815260200182805461053e90612d5f565b801561058b5780601f106105605761010080835404028352916020019161058b565b820191906000526020600020905b81548152906001019060200180831161056e57829003601f168201915b50505050509050919050565b61059f611038565b73ffffffffffffffffffffffffffffffffffffffff166105bd610a8f565b73ffffffffffffffffffffffffffffffffffffffff1614610613576040517f08c379a000000000000000000000000000000000000000000000000000000000815260040161060a90612ddd565b60405180910390fd5b600115156006600085815260200190815260200160002060040160009054906101000a900460ff1615151461064757600080fd5b818160066000868152602001908152602001600020600301919061066c929190611fb1565b50505050565b61067a611038565b73ffffffffffffffffffffffffffffffffffffffff168573ffffffffffffffffffffffffffffffffffffffff1614806106c057506106bf856106ba611038565b610da1565b5b6106ff576040517f08c379a00000000000000000000000000000000000000000000000000000000081526004016106f690612e6f565b60405180910390fd5b61070c8585858585611040565b5050505050565b60608151835114610759576040517f08c379a000000000000000000000000000000000000000000000000000000000815260040161075090612f01565b60405180910390fd5b6000835167ffffffffffffffff81111561077657610775612454565b5b6040519080825280602002602001820160405280156107a45781602001602082028036833780820191505090505b50905060005b8451811015610821576107f18582815181106107c9576107c8612f21565b5b60200260200101518583815181106107e4576107e3612f21565b5b6020026020010151610358565b82828151811061080457610803612f21565b5b6020026020010181815250508061081a90612f7f565b90506107aa565b508091505092915050565b600660205280600052604060002060009150905080600001549080600101805461085590612d5f565b80601f016020809104026020016040519081016040528092919081815260200182805461088190612d5f565b80156108ce5780601f106108a3576101008083540402835291602001916108ce565b820191906000526020600020905b8154815290600101906020018083116108b157829003601f168201915b5050505050908060020180546108e390612d5f565b80601f016020809104026020016040519081016040528092919081815260200182805461090f90612d5f565b801561095c5780601f106109315761010080835404028352916020019161095c565b820191906000526020600020905b81548152906001019060200180831161093f57829003601f168201915b50505050509080600301805461097190612d5f565b80601f016020809104026020016040519081016040528092919081815260200182805461099d90612d5f565b80156109ea5780601f106109bf576101008083540402835291602001916109ea565b820191906000526020600020905b8154815290600101906020018083116109cd57829003601f168201915b5050505050908060040160009054906101000a900460ff16905085565b610a0f611038565b73ffffffffffffffffffffffffffffffffffffffff16610a2d610a8f565b73ffffffffffffffffffffffffffffffffffffffff1614610a83576040517f08c379a0000000000000000000000000000000000000000000000000000000008152600401610a7a90612ddd565b60405180910390fd5b610a8d6000611354565b565b6000600360009054906101000a900473ffffffffffffffffffffffffffffffffffffffff16905090565b610ac1611038565b73ffffffffffffffffffffffffffffffffffffffff16610adf610a8f565b73ffffffffffffffffffffffffffffffffffffffff1614610b35576040517f08c379a0000000000000000000000000000000000000000000000000000000008152600401610b2c90612ddd565b60405180910390fd5b610b3e8161141a565b50565b610b53610b4c611038565b8383611434565b5050565b6000610b61611038565b73ffffffffffffffffffffffffffffffffffffffff16610b7f610a8f565b73ffffffffffffffffffffffffffffffffffffffff1614610bd5576040517f08c379a0000000000000000000000000000000000000000000000000000000008152600401610bcc90612ddd565b60405180910390fd5b610bdf60056115a1565b6000610beb60056115b7565b9050610c0933826001604051806020016040528060008152506115c5565b6040518060a0016040528082815260200187878080601f016020809104026020016040519081016040528093929190818152602001838380828437600081840152601f19601f82011690508083019250505050505050815260200185858080601f016020809104026020016040519081016040528093929190818152602001838380828437600081840152601f19601f8201169050808301925050505050505081526020016040518060200160405280600081525081526020016001151581525060066000838152602001908152602001600020600082015181600001556020820151816001019080519060200190610d03929190612037565b506040820151816002019080519060200190610d20929190612037565b506060820151816003019080519060200190610d3d929190612037565b5060808201518160040160006101000a81548160ff02191690831515021790555090505080915050949350505050565b60606004610d7a8361175b565b604051602001610d8b9291906130e4565b6040516020818303038152906040529050919050565b6000600160008473ffffffffffffffffffffffffffffffffffffffff1673ffffffffffffffffffffffffffffffffffffffff16815260200190815260200160002060008373ffffffffffffffffffffffffffffffffffffffff1673ffffffffffffffffffffffffffffffffffffffff16815260200190815260200160002060009054906101000a900460ff16905092915050565b610e3d611038565b73ffffffffffffffffffffffffffffffffffffffff168573ffffffffffffffffffffffffffffffffffffffff161480610e835750610e8285610e7d611038565b610da1565b5b610ec2576040517f08c379a0000000000000000000000000000000000000000000000000000000008152600401610eb990613185565b60405180910390fd5b610ecf85858585856118bc565b5050505050565b610ede611038565b73ffffffffffffffffffffffffffffffffffffffff16610efc610a8f565b73ffffffffffffffffffffffffffffffffffffffff1614610f52576040517f08c379a0000000000000000000000000000000000000000000000000000000008152600401610f4990612ddd565b60405180910390fd5b600073ffffffffffffffffffffffffffffffffffffffff168173ffffffffffffffffffffffffffffffffffffffff161415610fc2576040517f08c379a0000000000000000000000000000000000000000000000000000000008152600401610fb990613217565b60405180910390fd5b610fcb81611354565b50565b60007f01ffc9a7000000000000000000000000000000000000000000000000000000007bffffffffffffffffffffffffffffffffffffffffffffffffffffffff1916827bffffffffffffffffffffffffffffffffffffffffffffffffffffffff1916149050919050565b600033905090565b8151835114611084576040517f08c379a000000000000000000000000000000000000000000000000000000000815260040161107b906132a9565b60405180910390fd5b600073ffffffffffffffffffffffffffffffffffffffff168473ffffffffffffffffffffffffffffffffffffffff1614156110f4576040517f08c379a00000000000000000000000000000000000000000000000000000000081526004016110eb9061333b565b60405180910390fd5b60006110fe611038565b905061110e818787878787611b3e565b60005b84518110156112bf57600085828151811061112f5761112e612f21565b5b60200260200101519050600085838151811061114e5761114d612f21565b5b60200260200101519050600080600084815260200190815260200160002060008b73ffffffffffffffffffffffffffffffffffffffff1673ffffffffffffffffffffffffffffffffffffffff168152602001908152602001600020549050818110156111ef576040517f08c379a00000000000000000000000000000000000000000000000000000000081526004016111e6906133cd565b60405180910390fd5b81810360008085815260200190815260200160002060008c73ffffffffffffffffffffffffffffffffffffffff1673ffffffffffffffffffffffffffffffffffffffff168152602001908152602001600020819055508160008085815260200190815260200160002060008b73ffffffffffffffffffffffffffffffffffffffff1673ffffffffffffffffffffffffffffffffffffffff16815260200190815260200160002060008282546112a491906133ed565b92505081905550505050806112b890612f7f565b9050611111565b508473ffffffffffffffffffffffffffffffffffffffff168673ffffffffffffffffffffffffffffffffffffffff168273ffffffffffffffffffffffffffffffffffffffff167f4a39dc06d4c0dbc64b70af90fd698a233a518aa5d07e595d983b8c0526c8f7fb8787604051611336929190613443565b60405180910390a461134c818787878787611b46565b505050505050565b6000600360009054906101000a900473ffffffffffffffffffffffffffffffffffffffff16905081600360006101000a81548173ffffffffffffffffffffffffffffffffffffffff021916908373ffffffffffffffffffffffffffffffffffffffff1602179055508173ffffffffffffffffffffffffffffffffffffffff168173ffffffffffffffffffffffffffffffffffffffff167f8be0079c531659141344cd1fd0a4f28419497f9722a3daafe3b4186f6b6457e060405160405180910390a35050565b8060029080519060200190611430929190612037565b5050565b8173ffffffffffffffffffffffffffffffffffffffff168373ffffffffffffffffffffffffffffffffffffffff1614156114a3576040517f08c379a000000000000000000000000000000000000000000000000000000000815260040161149a906134ec565b60405180910390fd5b80600160008573ffffffffffffffffffffffffffffffffffffffff1673ffffffffffffffffffffffffffffffffffffffff16815260200190815260200160002060008473ffffffffffffffffffffffffffffffffffffffff1673ffffffffffffffffffffffffffffffffffffffff16815260200190815260200160002060006101000a81548160ff0219169083151502179055508173ffffffffffffffffffffffffffffffffffffffff168373ffffffffffffffffffffffffffffffffffffffff167f17307eab39ab6107e8899845ad3d59bd9653f200f220920489ca2b5937696c3183604051611594919061228c565b60405180910390a3505050565b6001816000016000828254019250508190555050565b600081600001549050919050565b600073ffffffffffffffffffffffffffffffffffffffff168473ffffffffffffffffffffffffffffffffffffffff161415611635576040517f08c379a000000000000000000000000000000000000000000000000000000000815260040161162c9061357e565b60405180910390fd5b600061163f611038565b90506116608160008761165188611d2d565b61165a88611d2d565b87611b3e565b8260008086815260200190815260200160002060008773ffffffffffffffffffffffffffffffffffffffff1673ffffffffffffffffffffffffffffffffffffffff16815260200190815260200160002060008282546116bf91906133ed565b925050819055508473ffffffffffffffffffffffffffffffffffffffff16600073ffffffffffffffffffffffffffffffffffffffff168273ffffffffffffffffffffffffffffffffffffffff167fc3d58168c5ae7397731d063d5bbf3d657854427343f4c083240f7aacaa2d0f62878760405161173d92919061359e565b60405180910390a461175481600087878787611da7565b5050505050565b606060008214156117a3576040518060400160405280600181526020017f300000000000000000000000000000000000000000000000000000000000000081525090506118b7565b600082905060005b600082146117d55780806117be90612f7f565b915050600a826117ce91906135f6565b91506117ab565b60008167ffffffffffffffff8111156117f1576117f0612454565b5b6040519080825280601f01601f1916602001820160405280156118235781602001600182028036833780820191505090505b5090505b600085146118b05760018261183c9190613627565b9150600a8561184b919061365b565b603061185791906133ed565b60f81b81838151811061186d5761186c612f21565b5b60200101907effffffffffffffffffffffffffffffffffffffffffffffffffffffffffffff1916908160001a905350600a856118a991906135f6565b9450611827565b8093505050505b919050565b600073ffffffffffffffffffffffffffffffffffffffff168473ffffffffffffffffffffffffffffffffffffffff16141561192c576040517f08c379a00000000000000000000000000000000000000000000000000000000081526004016119239061333b565b60405180910390fd5b6000611936611038565b905061195681878761194788611d2d565b61195088611d2d565b87611b3e565b600080600086815260200190815260200160002060008873ffffffffffffffffffffffffffffffffffffffff1673ffffffffffffffffffffffffffffffffffffffff168152602001908152602001600020549050838110156119ed576040517f08c379a00000000000000000000000000000000000000000000000000000000081526004016119e4906133cd565b60405180910390fd5b83810360008087815260200190815260200160002060008973ffffffffffffffffffffffffffffffffffffffff1673ffffffffffffffffffffffffffffffffffffffff168152602001908152602001600020819055508360008087815260200190815260200160002060008873ffffffffffffffffffffffffffffffffffffffff1673ffffffffffffffffffffffffffffffffffffffff1681526020019081526020016000206000828254611aa291906133ed565b925050819055508573ffffffffffffffffffffffffffffffffffffffff168773ffffffffffffffffffffffffffffffffffffffff168373ffffffffffffffffffffffffffffffffffffffff167fc3d58168c5ae7397731d063d5bbf3d657854427343f4c083240f7aacaa2d0f628888604051611b1f92919061359e565b60405180910390a4611b35828888888888611da7565b50505050505050565b505050505050565b611b658473ffffffffffffffffffffffffffffffffffffffff16611f8e565b15611d25578373ffffffffffffffffffffffffffffffffffffffff1663bc197c8187878686866040518663ffffffff1660e01b8152600401611bab9594939291906136e1565b602060405180830381600087803b158015611bc557600080fd5b505af1925050508015611bf657506040513d601f19601f82011682018060405250810190611bf3919061375e565b60015b611c9c57611c02613798565b806308c379a01415611c5f5750611c176137ba565b80611c225750611c61565b806040517f08c379a0000000000000000000000000000000000000000000000000000000008152600401611c56919061236d565b60405180910390fd5b505b6040517f08c379a0000000000000000000000000000000000000000000000000000000008152600401611c93906138c2565b60405180910390fd5b63bc197c8160e01b7bffffffffffffffffffffffffffffffffffffffffffffffffffffffff1916817bffffffffffffffffffffffffffffffffffffffffffffffffffffffff191614611d23576040517f08c379a0000000000000000000000000000000000000000000000000000000008152600401611d1a90613954565b60405180910390fd5b505b505050505050565b60606000600167ffffffffffffffff811115611d4c57611d4b612454565b5b604051908082528060200260200182016040528015611d7a5781602001602082028036833780820191505090505b5090508281600081518110611d9257611d91612f21565b5b60200260200101818152505080915050919050565b611dc68473ffffffffffffffffffffffffffffffffffffffff16611f8e565b15611f86578373ffffffffffffffffffffffffffffffffffffffff1663f23a6e6187878686866040518663ffffffff1660e01b8152600401611e0c959493929190613974565b602060405180830381600087803b158015611e2657600080fd5b505af1925050508015611e5757506040513d601f19601f82011682018060405250810190611e54919061375e565b60015b611efd57611e63613798565b806308c379a01415611ec05750611e786137ba565b80611e835750611ec2565b806040517f08c379a0000000000000000000000000000000000000000000000000000000008152600401611eb7919061236d565b60405180910390fd5b505b6040517f08c379a0000000000000000000000000000000000000000000000000000000008152600401611ef4906138c2565b60405180910390fd5b63f23a6e6160e01b7bffffffffffffffffffffffffffffffffffffffffffffffffffffffff1916817bffffffffffffffffffffffffffffffffffffffffffffffffffffffff191614611f84576040517f08c379a0000000000000000000000000000000000000000000000000000000008152600401611f7b90613954565b60405180910390fd5b505b505050505050565b6000808273ffffffffffffffffffffffffffffffffffffffff163b119050919050565b828054611fbd90612d5f565b90600052602060002090601f016020900481019282611fdf5760008555612026565b82601f10611ff857803560ff1916838001178555612026565b82800160010185558215612026579182015b8281111561202557823582559160200191906001019061200a565b5b50905061203391906120bd565b5090565b82805461204390612d5f565b90600052602060002090601f01602090048101928261206557600085556120ac565b82601f1061207e57805160ff19168380011785556120ac565b828001600101855582156120ac579182015b828111156120ab578251825591602001919060010190612090565b5b5090506120b991906120bd565b5090565b5b808211156120d65760008160009055506001016120be565b5090565b6000604051905090565b600080fd5b600080fd5b600073ffffffffffffffffffffffffffffffffffffffff82169050919050565b6000612119826120ee565b9050919050565b6121298161210e565b811461213457600080fd5b50565b60008135905061214681612120565b92915050565b6000819050919050565b61215f8161214c565b811461216a57600080fd5b50565b60008135905061217c81612156565b92915050565b60008060408385031215612199576121986120e4565b5b60006121a785828601612137565b92505060206121b88582860161216d565b9150509250929050565b6121cb8161214c565b82525050565b60006020820190506121e660008301846121c2565b92915050565b60007fffffffff0000000000000000000000000000000000000000000000000000000082169050919050565b612221816121ec565b811461222c57600080fd5b50565b60008135905061223e81612218565b92915050565b60006020828403121561225a576122596120e4565b5b60006122688482850161222f565b91505092915050565b60008115159050919050565b61228681612271565b82525050565b60006020820190506122a1600083018461227d565b92915050565b6000602082840312156122bd576122bc6120e4565b5b60006122cb8482850161216d565b91505092915050565b600081519050919050565b600082825260208201905092915050565b60005b8381101561230e5780820151818401526020810190506122f3565b8381111561231d576000848401525b50505050565b6000601f19601f8301169050919050565b600061233f826122d4565b61234981856122df565b93506123598185602086016122f0565b61236281612323565b840191505092915050565b600060208201905081810360008301526123878184612334565b905092915050565b600080fd5b600080fd5b600080fd5b60008083601f8401126123b4576123b361238f565b5b8235905067ffffffffffffffff8111156123d1576123d0612394565b5b6020830191508360018202830111156123ed576123ec612399565b5b9250929050565b60008060006040848603121561240d5761240c6120e4565b5b600061241b8682870161216d565b935050602084013567ffffffffffffffff81111561243c5761243b6120e9565b5b6124488682870161239e565b92509250509250925092565b7f4e487b7100000000000000000000000000000000000000000000000000000000600052604160045260246000fd5b61248c82612323565b810181811067ffffffffffffffff821117156124ab576124aa612454565b5b80604052505050565b60006124be6120da565b90506124ca8282612483565b919050565b600067ffffffffffffffff8211156124ea576124e9612454565b5b602082029050602081019050919050565b600061250e612509846124cf565b6124b4565b9050808382526020820190506020840283018581111561253157612530612399565b5b835b8181101561255a5780612546888261216d565b845260208401935050602081019050612533565b5050509392505050565b600082601f8301126125795761257861238f565b5b81356125898482602086016124fb565b91505092915050565b600080fd5b600067ffffffffffffffff8211156125b2576125b1612454565b5b6125bb82612323565b9050602081019050919050565b82818337600083830152505050565b60006125ea6125e584612597565b6124b4565b90508281526020810184848401111561260657612605612592565b5b6126118482856125c8565b509392505050565b600082601f83011261262e5761262d61238f565b5b813561263e8482602086016125d7565b91505092915050565b600080600080600060a08688031215612663576126626120e4565b5b600061267188828901612137565b955050602061268288828901612137565b945050604086013567ffffffffffffffff8111156126a3576126a26120e9565b5b6126af88828901612564565b935050606086013567ffffffffffffffff8111156126d0576126cf6120e9565b5b6126dc88828901612564565b925050608086013567ffffffffffffffff8111156126fd576126fc6120e9565b5b61270988828901612619565b9150509295509295909350565b600067ffffffffffffffff82111561273157612730612454565b5b602082029050602081019050919050565b600061275561275084612716565b6124b4565b9050808382526020820190506020840283018581111561277857612777612399565b5b835b818110156127a1578061278d8882612137565b84526020840193505060208101905061277a565b5050509392505050565b600082601f8301126127c0576127bf61238f565b5b81356127d0848260208601612742565b91505092915050565b600080604083850312156127f0576127ef6120e4565b5b600083013567ffffffffffffffff81111561280e5761280d6120e9565b5b61281a858286016127ab565b925050602083013567ffffffffffffffff81111561283b5761283a6120e9565b5b61284785828601612564565b9150509250929050565b600081519050919050565b600082825260208201905092915050565b6000819050602082019050919050565b6128868161214c565b82525050565b6000612898838361287d565b60208301905092915050565b6000602082019050919050565b60006128bc82612851565b6128c6818561285c565b93506128d18361286d565b8060005b838110156129025781516128e9888261288c565b97506128f4836128a4565b9250506001810190506128d5565b5085935050505092915050565b6000602082019050818103600083015261292981846128b1565b905092915050565b600060a08201905061294660008301886121c2565b81810360208301526129588187612334565b9050818103604083015261296c8186612334565b905081810360608301526129808185612334565b905061298f608083018461227d565b9695505050505050565b6129a28161210e565b82525050565b60006020820190506129bd6000830184612999565b92915050565b600067ffffffffffffffff8211156129de576129dd612454565b5b6129e782612323565b9050602081019050919050565b6000612a07612a02846129c3565b6124b4565b905082815260208101848484011115612a2357612a22612592565b5b612a2e8482856125c8565b509392505050565b600082601f830112612a4b57612a4a61238f565b5b8135612a5b8482602086016129f4565b91505092915050565b600060208284031215612a7a57612a796120e4565b5b600082013567ffffffffffffffff811115612a9857612a976120e9565b5b612aa484828501612a36565b91505092915050565b612ab681612271565b8114612ac157600080fd5b50565b600081359050612ad381612aad565b92915050565b60008060408385031215612af057612aef6120e4565b5b6000612afe85828601612137565b9250506020612b0f85828601612ac4565b9150509250929050565b60008060008060408587031215612b3357612b326120e4565b5b600085013567ffffffffffffffff811115612b5157612b506120e9565b5b612b5d8782880161239e565b9450945050602085013567ffffffffffffffff811115612b8057612b7f6120e9565b5b612b8c8782880161239e565b925092505092959194509250565b60008060408385031215612bb157612bb06120e4565b5b6000612bbf85828601612137565b9250506020612bd085828601612137565b9150509250929050565b600080600080600060a08688031215612bf657612bf56120e4565b5b6000612c0488828901612137565b9550506020612c1588828901612137565b9450506040612c268882890161216d565b9350506060612c378882890161216d565b925050608086013567ffffffffffffffff811115612c5857612c576120e9565b5b612c6488828901612619565b9150509295509295909350565b600060208284031215612c8757612c866120e4565b5b6000612c9584828501612137565b91505092915050565b7f455243313135353a2062616c616e636520717565727920666f7220746865207a60008201527f65726f2061646472657373000000000000000000000000000000000000000000602082015250565b6000612cfa602b836122df565b9150612d0582612c9e565b604082019050919050565b60006020820190508181036000830152612d2981612ced565b9050919050565b7f4e487b7100000000000000000000000000000000000000000000000000000000600052602260045260246000fd5b60006002820490506001821680612d7757607f821691505b60208210811415612d8b57612d8a612d30565b5b50919050565b7f4f776e61626c653a2063616c6c6572206973206e6f7420746865206f776e6572600082015250565b6000612dc76020836122df565b9150612dd282612d91565b602082019050919050565b60006020820190508181036000830152612df681612dba565b9050919050565b7f455243313135353a207472616e736665722063616c6c6572206973206e6f742060008201527f6f776e6572206e6f7220617070726f7665640000000000000000000000000000602082015250565b6000612e596032836122df565b9150612e6482612dfd565b604082019050919050565b60006020820190508181036000830152612e8881612e4c565b9050919050565b7f455243313135353a206163636f756e747320616e6420696473206c656e67746860008201527f206d69736d617463680000000000000000000000000000000000000000000000602082015250565b6000612eeb6029836122df565b9150612ef682612e8f565b604082019050919050565b60006020820190508181036000830152612f1a81612ede565b9050919050565b7f4e487b7100000000000000000000000000000000000000000000000000000000600052603260045260246000fd5b7f4e487b7100000000000000000000000000000000000000000000000000000000600052601160045260246000fd5b6000612f8a8261214c565b91507fffffffffffffffffffffffffffffffffffffffffffffffffffffffffffffffff821415612fbd57612fbc612f50565b5b600182019050919050565b600081905092915050565b60008190508160005260206000209050919050565b60008154612ff581612d5f565b612fff8186612fc8565b9450600182166000811461301a576001811461302b5761305e565b60ff1983168652818601935061305e565b61303485612fd3565b60005b8381101561305657815481890152600182019150602081019050613037565b838801955050505b50505092915050565b6000613072826122d4565b61307c8185612fc8565b935061308c8185602086016122f0565b80840191505092915050565b7f2e6a736f6e000000000000000000000000000000000000000000000000000000600082015250565b60006130ce600583612fc8565b91506130d982613098565b600582019050919050565b60006130f08285612fe8565b91506130fc8284613067565b9150613107826130c1565b91508190509392505050565b7f455243313135353a2063616c6c6572206973206e6f74206f776e6572206e6f7260008201527f20617070726f7665640000000000000000000000000000000000000000000000602082015250565b600061316f6029836122df565b915061317a82613113565b604082019050919050565b6000602082019050818103600083015261319e81613162565b9050919050565b7f4f776e61626c653a206e6577206f776e657220697320746865207a65726f206160008201527f6464726573730000000000000000000000000000000000000000000000000000602082015250565b60006132016026836122df565b915061320c826131a5565b604082019050919050565b60006020820190508181036000830152613230816131f4565b9050919050565b7f455243313135353a2069647320616e6420616d6f756e7473206c656e6774682060008201527f6d69736d61746368000000000000000000000000000000000000000000000000602082015250565b60006132936028836122df565b915061329e82613237565b604082019050919050565b600060208201905081810360008301526132c281613286565b9050919050565b7f455243313135353a207472616e7366657220746f20746865207a65726f20616460008201527f6472657373000000000000000000000000000000000000000000000000000000602082015250565b60006133256025836122df565b9150613330826132c9565b604082019050919050565b6000602082019050818103600083015261335481613318565b9050919050565b7f455243313135353a20696e73756666696369656e742062616c616e636520666f60008201527f72207472616e7366657200000000000000000000000000000000000000000000602082015250565b60006133b7602a836122df565b91506133c28261335b565b604082019050919050565b600060208201905081810360008301526133e6816133aa565b9050919050565b60006133f88261214c565b91506134038361214c565b9250827fffffffffffffffffffffffffffffffffffffffffffffffffffffffffffffffff0382111561343857613437612f50565b5b828201905092915050565b6000604082019050818103600083015261345d81856128b1565b9050818103602083015261347181846128b1565b90509392505050565b7f455243313135353a2073657474696e6720617070726f76616c2073746174757360008201527f20666f722073656c660000000000000000000000000000000000000000000000602082015250565b60006134d66029836122df565b91506134e18261347a565b604082019050919050565b60006020820190508181036000830152613505816134c9565b9050919050565b7f455243313135353a206d696e7420746f20746865207a65726f2061646472657360008201527f7300000000000000000000000000000000000000000000000000000000000000602082015250565b60006135686021836122df565b91506135738261350c565b604082019050919050565b600060208201905081810360008301526135978161355b565b9050919050565b60006040820190506135b360008301856121c2565b6135c060208301846121c2565b9392505050565b7f4e487b7100000000000000000000000000000000000000000000000000000000600052601260045260246000fd5b60006136018261214c565b915061360c8361214c565b92508261361c5761361b6135c7565b5b828204905092915050565b60006136328261214c565b915061363d8361214c565b9250828210156136505761364f612f50565b5b828203905092915050565b60006136668261214c565b91506136718361214c565b925082613681576136806135c7565b5b828206905092915050565b600081519050919050565b600082825260208201905092915050565b60006136b38261368c565b6136bd8185613697565b93506136cd8185602086016122f0565b6136d681612323565b840191505092915050565b600060a0820190506136f66000830188612999565b6137036020830187612999565b818103604083015261371581866128b1565b9050818103606083015261372981856128b1565b9050818103608083015261373d81846136a8565b90509695505050505050565b60008151905061375881612218565b92915050565b600060208284031215613774576137736120e4565b5b600061378284828501613749565b91505092915050565b60008160e01c9050919050565b600060033d11156137b75760046000803e6137b460005161378b565b90505b90565b600060443d10156137ca5761384d565b6137d26120da565b60043d036004823e80513d602482011167ffffffffffffffff821117156137fa57505061384d565b808201805167ffffffffffffffff811115613818575050505061384d565b80602083010160043d03850181111561383557505050505061384d565b61384482602001850186612483565b82955050505050505b90565b7f455243313135353a207472616e7366657220746f206e6f6e204552433131353560008201527f526563656976657220696d706c656d656e746572000000000000000000000000602082015250565b60006138ac6034836122df565b91506138b782613850565b604082019050919050565b600060208201905081810360008301526138db8161389f565b9050919050565b7f455243313135353a204552433131353552656365697665722072656a6563746560008201527f6420746f6b656e73000000000000000000000000000000000000000000000000602082015250565b600061393e6028836122df565b9150613949826138e2565b604082019050919050565b6000602082019050818103600083015261396d81613931565b9050919050565b600060a0820190506139896000830188612999565b6139966020830187612999565b6139a360408301866121c2565b6139b060608301856121c2565b81810360808301526139c281846136a8565b9050969550505050505056fea2646970667358221220c4d2753aac05e000f155aeb850884f72cd4598b287cb73a92e15aa7fbc96e32764736f6c6343000809003368747470733a2f2f7777772e7265616c657374617465636861696e2e65732f6170692f6974656d2f68747470733a2f2f7777772e7265616c657374617465636861696e2e65732f6170692f6974656d2f7b69647d2e6a736f6e",
  "devdoc": {
    "kind": "dev",
    "methods": {
      "addREAT(string,string)": {
        "details": "addREAT() mints the token and updates the token counter",
        "params": {
          "_hashJsonToken": "is the keccak256 of the property metadata",
          "_idCatastro": "is the ID to be provided by the Catastro office"
        },
        "returns": {
          "_0": "ID of the struct REATdata that got created/updated"
        }
      },
      "balanceOf(address,uint256)": {
        "details": "See {IERC1155-balanceOf}. Requirements: - `account` cannot be the zero address."
      },
      "balanceOfBatch(address[],uint256[])": {
        "details": "See {IERC1155-balanceOfBatch}. Requirements: - `accounts` and `ids` must have the same length."
      },
      "getUri(uint256)": {
        "details": "Function to add the tokenId on the URI that's returned",
        "params": {
          "_tokenId": "variable passed to assign the ID, that is the token type "
        }
      },
      "isApprovedForAll(address,address)": {
        "details": "See {IERC1155-isApprovedForAll}."
      },
      "owner()": {
        "details": "Returns the address of the current owner."
      },
      "renounceOwnership()": {
        "details": "Leaves the contract without owner. It will not be possible to call `onlyOwner` functions anymore. Can only be called by the current owner. NOTE: Renouncing ownership will leave the contract without an owner, thereby removing any functionality that is only available to the owner."
      },
      "safeBatchTransferFrom(address,address,uint256[],uint256[],bytes)": {
        "details": "See {IERC1155-safeBatchTransferFrom}."
      },
      "safeTransferFrom(address,address,uint256,uint256,bytes)": {
        "details": "See {IERC1155-safeTransferFrom}."
      },
      "setApprovalForAll(address,bool)": {
        "details": "See {IERC1155-setApprovalForAll}."
      },
      "supportsInterface(bytes4)": {
        "details": "See {IERC165-supportsInterface}."
      },
      "transferOwnership(address)": {
        "details": "Transfers ownership of the contract to a new account (`newOwner`). Can only be called by the current owner."
      },
      "updateHashJsonDoc(uint256,string)": {
        "details": "This function will update the json hash whenever there are updates in property docs",
        "params": {
          "_id": "used to search in the reatdata mapping to find the struct that will be updated",
          "_newHashJsonDoc": "is the new hash that will replace the hashJsonDoc inside the struct reatdata"
        }
      },
      "updateMasterUri(string)": {
        "details": "updateMasterUri() sets a new URI for the token type passed as argumentwhere is the OWNER defined ?",
        "params": {
          "uri_": "is the ID that will be set for the token type"
        }
      },
      "uri(uint256)": {
        "details": "See {IERC1155MetadataURI-uri}. This implementation returns the same URI for *all* token types. It relies on the token type ID substitution mechanism https://eips.ethereum.org/EIPS/eip-1155#metadata[defined in the EIP]. Clients calling this function must replace the `\\{id\\}` substring with the actual token type ID."
      }
    },
    "stateVariables": {
      "reatdata": {
        "details": "a mapping to index all REATData structs created in the contract"
      }
    },
    "version": 1
  },
  "userdoc": {
    "kind": "user",
    "methods": {
      "addREAT(string,string)": {
        "notice": "why are passing the parameters as calldata ?token minted with URI property \"hashJsonDoc\" empty. It'll be added later on"
      },
      "getUri(uint256)": {
        "notice": "it takes the base URI and concatenates the _tokenId and adds \".json\" in the end"
      },
      "updateMasterUri(string)": {
        "notice": "a new token type is created for every single property"
      }
    },
    "version": 1
  },
  "storageLayout": {
    "storage": [
      {
        "astId": 130,
        "contract": "contracts/MasterREAT_EG.sol:MasterREAT_EG",
        "label": "_balances",
        "offset": 0,
        "slot": "0",
        "type": "t_mapping(t_uint256,t_mapping(t_address,t_uint256))"
      },
      {
        "astId": 136,
        "contract": "contracts/MasterREAT_EG.sol:MasterREAT_EG",
        "label": "_operatorApprovals",
        "offset": 0,
        "slot": "1",
        "type": "t_mapping(t_address,t_mapping(t_address,t_bool))"
      },
      {
        "astId": 138,
        "contract": "contracts/MasterREAT_EG.sol:MasterREAT_EG",
        "label": "_uri",
        "offset": 0,
        "slot": "2",
        "type": "t_string_storage"
      },
      {
        "astId": 7,
        "contract": "contracts/MasterREAT_EG.sol:MasterREAT_EG",
        "label": "_owner",
        "offset": 0,
        "slot": "3",
        "type": "t_address"
      },
      {
        "astId": 2021,
        "contract": "contracts/MasterREAT_EG.sol:MasterREAT_EG",
        "label": "baseUri",
        "offset": 0,
        "slot": "4",
        "type": "t_string_storage"
      },
      {
        "astId": 2028,
        "contract": "contracts/MasterREAT_EG.sol:MasterREAT_EG",
        "label": "_reatAutoId",
        "offset": 0,
        "slot": "5",
        "type": "t_struct(Counter)1701_storage"
      },
      {
        "astId": 2045,
        "contract": "contracts/MasterREAT_EG.sol:MasterREAT_EG",
        "label": "reatdata",
        "offset": 0,
        "slot": "6",
        "type": "t_mapping(t_uint256,t_struct(REATData)2039_storage)"
      }
    ],
    "types": {
      "t_address": {
        "encoding": "inplace",
        "label": "address",
        "numberOfBytes": "20"
      },
      "t_bool": {
        "encoding": "inplace",
        "label": "bool",
        "numberOfBytes": "1"
      },
      "t_mapping(t_address,t_bool)": {
        "encoding": "mapping",
        "key": "t_address",
        "label": "mapping(address => bool)",
        "numberOfBytes": "32",
        "value": "t_bool"
      },
      "t_mapping(t_address,t_mapping(t_address,t_bool))": {
        "encoding": "mapping",
        "key": "t_address",
        "label": "mapping(address => mapping(address => bool))",
        "numberOfBytes": "32",
        "value": "t_mapping(t_address,t_bool)"
      },
      "t_mapping(t_address,t_uint256)": {
        "encoding": "mapping",
        "key": "t_address",
        "label": "mapping(address => uint256)",
        "numberOfBytes": "32",
        "value": "t_uint256"
      },
      "t_mapping(t_uint256,t_mapping(t_address,t_uint256))": {
        "encoding": "mapping",
        "key": "t_uint256",
        "label": "mapping(uint256 => mapping(address => uint256))",
        "numberOfBytes": "32",
        "value": "t_mapping(t_address,t_uint256)"
      },
      "t_mapping(t_uint256,t_struct(REATData)2039_storage)": {
        "encoding": "mapping",
        "key": "t_uint256",
        "label": "mapping(uint256 => struct MasterREAT_EG.REATData)",
        "numberOfBytes": "32",
        "value": "t_struct(REATData)2039_storage"
      },
      "t_string_storage": {
        "encoding": "bytes",
        "label": "string",
        "numberOfBytes": "32"
      },
      "t_struct(Counter)1701_storage": {
        "encoding": "inplace",
        "label": "struct Counters.Counter",
        "members": [
          {
            "astId": 1700,
            "contract": "contracts/MasterREAT_EG.sol:MasterREAT_EG",
            "label": "_value",
            "offset": 0,
            "slot": "0",
            "type": "t_uint256"
          }
        ],
        "numberOfBytes": "32"
      },
      "t_struct(REATData)2039_storage": {
        "encoding": "inplace",
        "label": "struct MasterREAT_EG.REATData",
        "members": [
          {
            "astId": 2030,
            "contract": "contracts/MasterREAT_EG.sol:MasterREAT_EG",
            "label": "REATid",
            "offset": 0,
            "slot": "0",
            "type": "t_uint256"
          },
          {
            "astId": 2032,
            "contract": "contracts/MasterREAT_EG.sol:MasterREAT_EG",
            "label": "idCatastro",
            "offset": 0,
            "slot": "1",
            "type": "t_string_storage"
          },
          {
            "astId": 2034,
            "contract": "contracts/MasterREAT_EG.sol:MasterREAT_EG",
            "label": "hashJsonToken",
            "offset": 0,
            "slot": "2",
            "type": "t_string_storage"
          },
          {
            "astId": 2036,
            "contract": "contracts/MasterREAT_EG.sol:MasterREAT_EG",
            "label": "hashJsonDoc",
            "offset": 0,
            "slot": "3",
            "type": "t_string_storage"
          },
          {
            "astId": 2038,
            "contract": "contracts/MasterREAT_EG.sol:MasterREAT_EG",
            "label": "exists",
            "offset": 0,
            "slot": "4",
            "type": "t_bool"
          }
        ],
        "numberOfBytes": "160"
      },
      "t_uint256": {
        "encoding": "inplace",
        "label": "uint256",
        "numberOfBytes": "32"
      }
    }
  }
}