{
  "address": "0x9482d2f64801b9DB7838904824ED92907094762c",
  "abi": [
    {
      "inputs": [],
      "stateMutability": "nonpayable",
      "type": "constructor"
    },
    {
      "anonymous": false,
      "inputs": [
        {
          "indexed": true,
          "internalType": "address",
          "name": "account",
          "type": "address"
        },
        {
          "indexed": true,
          "internalType": "address",
          "name": "operator",
          "type": "address"
        },
        {
          "indexed": false,
          "internalType": "bool",
          "name": "approved",
          "type": "bool"
        }
      ],
      "name": "ApprovalForAll",
      "type": "event"
    },
    {
      "anonymous": false,
      "inputs": [
        {
          "indexed": true,
          "internalType": "address",
          "name": "previousOwner",
          "type": "address"
        },
        {
          "indexed": true,
          "internalType": "address",
          "name": "newOwner",
          "type": "address"
        }
      ],
      "name": "OwnershipTransferred",
      "type": "event"
    },
    {
      "anonymous": false,
      "inputs": [
        {
          "indexed": false,
          "internalType": "address",
          "name": "account",
          "type": "address"
        }
      ],
      "name": "Paused",
      "type": "event"
    },
    {
      "anonymous": false,
      "inputs": [
        {
          "indexed": true,
          "internalType": "address",
          "name": "operator",
          "type": "address"
        },
        {
          "indexed": true,
          "internalType": "address",
          "name": "from",
          "type": "address"
        },
        {
          "indexed": true,
          "internalType": "address",
          "name": "to",
          "type": "address"
        },
        {
          "indexed": false,
          "internalType": "uint256[]",
          "name": "ids",
          "type": "uint256[]"
        },
        {
          "indexed": false,
          "internalType": "uint256[]",
          "name": "values",
          "type": "uint256[]"
        }
      ],
      "name": "TransferBatch",
      "type": "event"
    },
    {
      "anonymous": false,
      "inputs": [
        {
          "indexed": true,
          "internalType": "address",
          "name": "operator",
          "type": "address"
        },
        {
          "indexed": true,
          "internalType": "address",
          "name": "from",
          "type": "address"
        },
        {
          "indexed": true,
          "internalType": "address",
          "name": "to",
          "type": "address"
        },
        {
          "indexed": false,
          "internalType": "uint256",
          "name": "id",
          "type": "uint256"
        },
        {
          "indexed": false,
          "internalType": "uint256",
          "name": "value",
          "type": "uint256"
        }
      ],
      "name": "TransferSingle",
      "type": "event"
    },
    {
      "anonymous": false,
      "inputs": [
        {
          "indexed": false,
          "internalType": "string",
          "name": "value",
          "type": "string"
        },
        {
          "indexed": true,
          "internalType": "uint256",
          "name": "id",
          "type": "uint256"
        }
      ],
      "name": "URI",
      "type": "event"
    },
    {
      "anonymous": false,
      "inputs": [
        {
          "indexed": false,
          "internalType": "address",
          "name": "account",
          "type": "address"
        }
      ],
      "name": "Unpaused",
      "type": "event"
    },
    {
      "inputs": [],
      "name": "DOESNT_EXIST",
      "outputs": [
        {
          "internalType": "uint256",
          "name": "",
          "type": "uint256"
        }
      ],
      "stateMutability": "view",
      "type": "function"
    },
    {
      "inputs": [],
      "name": "EXISTS",
      "outputs": [
        {
          "internalType": "uint256",
          "name": "",
          "type": "uint256"
        }
      ],
      "stateMutability": "view",
      "type": "function"
    },
    {
      "inputs": [
        {
          "internalType": "string",
          "name": "_idCatastro",
          "type": "string"
        },
        {
          "internalType": "string",
          "name": "_hashJsonToken",
          "type": "string"
        }
      ],
      "name": "addREAT",
      "outputs": [
        {
          "internalType": "uint256",
          "name": "",
          "type": "uint256"
        }
      ],
      "stateMutability": "nonpayable",
      "type": "function"
    },
    {
      "inputs": [
        {
          "internalType": "address",
          "name": "account",
          "type": "address"
        },
        {
          "internalType": "uint256",
          "name": "id",
          "type": "uint256"
        }
      ],
      "name": "balanceOf",
      "outputs": [
        {
          "internalType": "uint256",
          "name": "",
          "type": "uint256"
        }
      ],
      "stateMutability": "view",
      "type": "function"
    },
    {
      "inputs": [
        {
          "internalType": "address[]",
          "name": "accounts",
          "type": "address[]"
        },
        {
          "internalType": "uint256[]",
          "name": "ids",
          "type": "uint256[]"
        }
      ],
      "name": "balanceOfBatch",
      "outputs": [
        {
          "internalType": "uint256[]",
          "name": "",
          "type": "uint256[]"
        }
      ],
      "stateMutability": "view",
      "type": "function"
    },
    {
      "inputs": [
        {
          "internalType": "uint256",
          "name": "_tokenId",
          "type": "uint256"
        }
      ],
      "name": "getUri",
      "outputs": [
        {
          "internalType": "string",
          "name": "",
          "type": "string"
        }
      ],
      "stateMutability": "view",
      "type": "function"
    },
    {
      "inputs": [
        {
          "internalType": "address",
          "name": "account",
          "type": "address"
        },
        {
          "internalType": "address",
          "name": "operator",
          "type": "address"
        }
      ],
      "name": "isApprovedForAll",
      "outputs": [
        {
          "internalType": "bool",
          "name": "",
          "type": "bool"
        }
      ],
      "stateMutability": "view",
      "type": "function"
    },
    {
      "inputs": [],
      "name": "owner",
      "outputs": [
        {
          "internalType": "address",
          "name": "",
          "type": "address"
        }
      ],
      "stateMutability": "view",
      "type": "function"
    },
    {
      "inputs": [],
      "name": "paused",
      "outputs": [
        {
          "internalType": "bool",
          "name": "",
          "type": "bool"
        }
      ],
      "stateMutability": "view",
      "type": "function"
    },
    {
      "inputs": [
        {
          "internalType": "uint256",
          "name": "",
          "type": "uint256"
        }
      ],
      "name": "reatdata",
      "outputs": [
        {
          "internalType": "uint256",
          "name": "REATid",
          "type": "uint256"
        },
        {
          "internalType": "string",
          "name": "idCatastro",
          "type": "string"
        },
        {
          "internalType": "string",
          "name": "hashJsonToken",
          "type": "string"
        },
        {
          "internalType": "uint256",
          "name": "hashJsonDoc",
          "type": "uint256"
        },
        {
          "internalType": "uint256",
          "name": "exists",
          "type": "uint256"
        }
      ],
      "stateMutability": "view",
      "type": "function"
    },
    {
      "inputs": [],
      "name": "renounceOwnership",
      "outputs": [],
      "stateMutability": "nonpayable",
      "type": "function"
    },
    {
      "inputs": [
        {
          "internalType": "address",
          "name": "from",
          "type": "address"
        },
        {
          "internalType": "address",
          "name": "to",
          "type": "address"
        },
        {
          "internalType": "uint256[]",
          "name": "ids",
          "type": "uint256[]"
        },
        {
          "internalType": "uint256[]",
          "name": "amounts",
          "type": "uint256[]"
        },
        {
          "internalType": "bytes",
          "name": "data",
          "type": "bytes"
        }
      ],
      "name": "safeBatchTransferFrom",
      "outputs": [],
      "stateMutability": "nonpayable",
      "type": "function"
    },
    {
      "inputs": [
        {
          "internalType": "address",
          "name": "from",
          "type": "address"
        },
        {
          "internalType": "address",
          "name": "to",
          "type": "address"
        },
        {
          "internalType": "uint256",
          "name": "id",
          "type": "uint256"
        },
        {
          "internalType": "uint256",
          "name": "amount",
          "type": "uint256"
        },
        {
          "internalType": "bytes",
          "name": "data",
          "type": "bytes"
        }
      ],
      "name": "safeTransferFrom",
      "outputs": [],
      "stateMutability": "nonpayable",
      "type": "function"
    },
    {
      "inputs": [
        {
          "internalType": "address",
          "name": "operator",
          "type": "address"
        },
        {
          "internalType": "bool",
          "name": "approved",
          "type": "bool"
        }
      ],
      "name": "setApprovalForAll",
      "outputs": [],
      "stateMutability": "nonpayable",
      "type": "function"
    },
    {
      "inputs": [
        {
          "internalType": "bytes4",
          "name": "interfaceId",
          "type": "bytes4"
        }
      ],
      "name": "supportsInterface",
      "outputs": [
        {
          "internalType": "bool",
          "name": "",
          "type": "bool"
        }
      ],
      "stateMutability": "view",
      "type": "function"
    },
    {
      "inputs": [
        {
          "internalType": "address",
          "name": "newOwner",
          "type": "address"
        }
      ],
      "name": "transferOwnership",
      "outputs": [],
      "stateMutability": "nonpayable",
      "type": "function"
    },
    {
      "inputs": [
        {
          "internalType": "uint256",
          "name": "_id",
          "type": "uint256"
        },
        {
          "internalType": "uint256",
          "name": "_newHashJsonDoc",
          "type": "uint256"
        }
      ],
      "name": "updateHashJsonDoc",
      "outputs": [],
      "stateMutability": "nonpayable",
      "type": "function"
    },
    {
      "inputs": [
        {
          "internalType": "string",
          "name": "uri_",
          "type": "string"
        }
      ],
      "name": "updateMasterUri",
      "outputs": [],
      "stateMutability": "nonpayable",
      "type": "function"
    },
    {
      "inputs": [
        {
          "internalType": "uint256",
          "name": "",
          "type": "uint256"
        }
      ],
      "name": "uri",
      "outputs": [
        {
          "internalType": "string",
          "name": "",
          "type": "string"
        }
      ],
      "stateMutability": "view",
      "type": "function"
    }
  ],
  "transactionHash": "0x896902466f274efa49cce6d737aeb1138531edf92a3593d31e14be178db02dab",
  "args": [],
  "numDeployments": 4,
  "solcInputHash": "f582b04eca4542bf964b8e5565fb20df",
  "bytecode": "0x608060405260405180606001604052806028815260200162003d29602891396005908051906020019062000035929190620001e4565b5033600660006101000a81548173ffffffffffffffffffffffffffffffffffffffff021916908373ffffffffffffffffffffffffffffffffffffffff1602179055503480156200008457600080fd5b5060405180606001604052806031815260200162003d5160319139620000b081620000fa60201b60201c565b50620000d1620000c56200011660201b60201c565b6200011e60201b60201c565b6000600360146101000a81548160ff0219169083151502179055506001600481905550620002f9565b806002908051906020019062000112929190620001e4565b5050565b600033905090565b6000600360009054906101000a900473ffffffffffffffffffffffffffffffffffffffff16905081600360006101000a81548173ffffffffffffffffffffffffffffffffffffffff021916908373ffffffffffffffffffffffffffffffffffffffff1602179055508173ffffffffffffffffffffffffffffffffffffffff168173ffffffffffffffffffffffffffffffffffffffff167f8be0079c531659141344cd1fd0a4f28419497f9722a3daafe3b4186f6b6457e060405160405180910390a35050565b828054620001f290620002c3565b90600052602060002090601f01602090048101928262000216576000855562000262565b82601f106200023157805160ff191683800117855562000262565b8280016001018555821562000262579182015b828111156200026157825182559160200191906001019062000244565b5b50905062000271919062000275565b5090565b5b808211156200029057600081600090555060010162000276565b5090565b7f4e487b7100000000000000000000000000000000000000000000000000000000600052602260045260246000fd5b60006002820490506001821680620002dc57607f821691505b60208210811415620002f357620002f262000294565b5b50919050565b613a2080620003096000396000f3fe608060405234801561001057600080fd5b50600436106101205760003560e01c80638da5cb5b116100ad578063b800522311610071578063b80052231461031f578063da0544aa1461033b578063e985e9c51461036b578063f242432a1461039b578063f2fde38b146103b757610120565b80638da5cb5b1461027b5780639005c749146102995780639dcbf876146102b7578063a22cb465146102d3578063acbe9dd6146102ef57610120565b80633d0873fc116100f45780633d0873fc146101d15780634e1273f4146101ef5780635c975abb1461021f5780635d9a8a451461023d578063715018a61461027157610120565b8062fdd58e1461012557806301ffc9a7146101555780630e89341c146101855780632eb2c2d6146101b5575b600080fd5b61013f600480360381019061013a9190612159565b6103d3565b60405161014c91906121a8565b60405180910390f35b61016f600480360381019061016a919061221b565b61049c565b60405161017c9190612263565b60405180910390f35b61019f600480360381019061019a919061227e565b61057e565b6040516101ac9190612344565b60405180910390f35b6101cf60048036038101906101ca9190612563565b610612565b005b6101d96106b3565b6040516101e691906121a8565b60405180910390f35b610209600480360381019061020491906126f5565b6106b8565b604051610216919061282b565b60405180910390f35b6102276107d1565b6040516102349190612263565b60405180910390f35b6102576004803603810190610252919061227e565b6107e8565b60405161026895949392919061284d565b60405180910390f35b61027961092e565b005b6102836109b6565b60405161029091906128bd565b60405180910390f35b6102a16109e0565b6040516102ae91906121a8565b60405180910390f35b6102d160048036038101906102cc9190612979565b6109e5565b005b6102ed60048036038101906102e891906129ee565b610ac3565b005b61030960048036038101906103049190612a89565b610ad9565b60405161031691906121a8565b60405180910390f35b61033960048036038101906103349190612b0a565b610d0c565b005b6103556004803603810190610350919061227e565b610dca565b6040516103629190612344565b60405180910390f35b61038560048036038101906103809190612b4a565b610dfe565b6040516103929190612263565b60405180910390f35b6103b560048036038101906103b09190612b8a565b610e92565b005b6103d160048036038101906103cc9190612c21565b610f33565b005b60008073ffffffffffffffffffffffffffffffffffffffff168373ffffffffffffffffffffffffffffffffffffffff161415610444576040517f08c379a000000000000000000000000000000000000000000000000000000000815260040161043b90612cc0565b60405180910390fd5b60008083815260200190815260200160002060008473ffffffffffffffffffffffffffffffffffffffff1673ffffffffffffffffffffffffffffffffffffffff16815260200190815260200160002054905092915050565b60007fd9b67a26000000000000000000000000000000000000000000000000000000007bffffffffffffffffffffffffffffffffffffffffffffffffffffffff1916827bffffffffffffffffffffffffffffffffffffffffffffffffffffffff1916148061056757507f0e89341c000000000000000000000000000000000000000000000000000000007bffffffffffffffffffffffffffffffffffffffffffffffffffffffff1916827bffffffffffffffffffffffffffffffffffffffffffffffffffffffff1916145b8061057757506105768261102b565b5b9050919050565b60606002805461058d90612d0f565b80601f01602080910402602001604051908101604052809291908181526020018280546105b990612d0f565b80156106065780601f106105db57610100808354040283529160200191610606565b820191906000526020600020905b8154815290600101906020018083116105e957829003601f168201915b50505050509050919050565b61061a611095565b73ffffffffffffffffffffffffffffffffffffffff168573ffffffffffffffffffffffffffffffffffffffff161480610660575061065f8561065a611095565b610dfe565b5b61069f576040517f08c379a000000000000000000000000000000000000000000000000000000000815260040161069690612db3565b60405180910390fd5b6106ac858585858561109d565b5050505050565b600181565b606081518351146106fe576040517f08c379a00000000000000000000000000000000000000000000000000000000081526004016106f590612e45565b60405180910390fd5b6000835167ffffffffffffffff81111561071b5761071a61236b565b5b6040519080825280602002602001820160405280156107495781602001602082028036833780820191505090505b50905060005b84518110156107c65761079685828151811061076e5761076d612e65565b5b602002602001015185838151811061078957610788612e65565b5b60200260200101516103d3565b8282815181106107a9576107a8612e65565b5b602002602001018181525050806107bf90612ec3565b905061074f565b508091505092915050565b6000600360149054906101000a900460ff16905090565b600860205280600052604060002060009150905080600001549080600101805461081190612d0f565b80601f016020809104026020016040519081016040528092919081815260200182805461083d90612d0f565b801561088a5780601f1061085f5761010080835404028352916020019161088a565b820191906000526020600020905b81548152906001019060200180831161086d57829003601f168201915b50505050509080600201805461089f90612d0f565b80601f01602080910402602001604051908101604052809291908181526020018280546108cb90612d0f565b80156109185780601f106108ed57610100808354040283529160200191610918565b820191906000526020600020905b8154815290600101906020018083116108fb57829003601f168201915b5050505050908060030154908060040154905085565b610936611095565b73ffffffffffffffffffffffffffffffffffffffff166109546109b6565b73ffffffffffffffffffffffffffffffffffffffff16146109aa576040517f08c379a00000000000000000000000000000000000000000000000000000000081526004016109a190612f58565b60405180910390fd5b6109b460006113b1565b565b6000600360009054906101000a900473ffffffffffffffffffffffffffffffffffffffff16905090565b600281565b6109ed611095565b73ffffffffffffffffffffffffffffffffffffffff16610a0b6109b6565b73ffffffffffffffffffffffffffffffffffffffff1614610a61576040517f08c379a0000000000000000000000000000000000000000000000000000000008152600401610a5890612f58565b60405180910390fd5b60026004541415610aa7576040517f08c379a0000000000000000000000000000000000000000000000000000000008152600401610a9e90612fc4565b60405180910390fd5b6002600481905550610ab881611477565b600160048190555050565b610ad5610ace611095565b8383611491565b5050565b6000610ae3611095565b73ffffffffffffffffffffffffffffffffffffffff16610b016109b6565b73ffffffffffffffffffffffffffffffffffffffff1614610b57576040517f08c379a0000000000000000000000000000000000000000000000000000000008152600401610b4e90612f58565b60405180910390fd5b60026004541415610b9d576040517f08c379a0000000000000000000000000000000000000000000000000000000008152600401610b9490612fc4565b60405180910390fd5b6002600481905550610baf60076115fe565b6000610bbb6007611614565b9050610bd93382600160405180602001604052806000815250611622565b6040518060a0016040528082815260200187878080601f016020809104026020016040519081016040528093929190818152602001838380828437600081840152601f19601f82011690508083019250505050505050815260200185858080601f016020809104026020016040519081016040528093929190818152602001838380828437600081840152601f19601f82011690508083019250505050505050815260200160018152602001600281525060086000838152602001908152602001600020600082015181600001556020820151816001019080519060200190610cc392919061200e565b506040820151816002019080519060200190610ce092919061200e565b506060820151816003015560808201518160040155905050809150506001600481905550949350505050565b610d14611095565b73ffffffffffffffffffffffffffffffffffffffff16610d326109b6565b73ffffffffffffffffffffffffffffffffffffffff1614610d88576040517f08c379a0000000000000000000000000000000000000000000000000000000008152600401610d7f90612f58565b60405180910390fd5b6002600860008481526020019081526020016000206004015414610dab57600080fd5b8060086000848152602001908152602001600020600301819055505050565b60606005610dd7836117b8565b604051602001610de8929190613100565b6040516020818303038152906040529050919050565b6000600160008473ffffffffffffffffffffffffffffffffffffffff1673ffffffffffffffffffffffffffffffffffffffff16815260200190815260200160002060008373ffffffffffffffffffffffffffffffffffffffff1673ffffffffffffffffffffffffffffffffffffffff16815260200190815260200160002060009054906101000a900460ff16905092915050565b610e9a611095565b73ffffffffffffffffffffffffffffffffffffffff168573ffffffffffffffffffffffffffffffffffffffff161480610ee05750610edf85610eda611095565b610dfe565b5b610f1f576040517f08c379a0000000000000000000000000000000000000000000000000000000008152600401610f16906131a1565b60405180910390fd5b610f2c8585858585611919565b5050505050565b610f3b611095565b73ffffffffffffffffffffffffffffffffffffffff16610f596109b6565b73ffffffffffffffffffffffffffffffffffffffff1614610faf576040517f08c379a0000000000000000000000000000000000000000000000000000000008152600401610fa690612f58565b60405180910390fd5b600073ffffffffffffffffffffffffffffffffffffffff168173ffffffffffffffffffffffffffffffffffffffff16141561101f576040517f08c379a000000000000000000000000000000000000000000000000000000000815260040161101690613233565b60405180910390fd5b611028816113b1565b50565b60007f01ffc9a7000000000000000000000000000000000000000000000000000000007bffffffffffffffffffffffffffffffffffffffffffffffffffffffff1916827bffffffffffffffffffffffffffffffffffffffffffffffffffffffff1916149050919050565b600033905090565b81518351146110e1576040517f08c379a00000000000000000000000000000000000000000000000000000000081526004016110d8906132c5565b60405180910390fd5b600073ffffffffffffffffffffffffffffffffffffffff168473ffffffffffffffffffffffffffffffffffffffff161415611151576040517f08c379a000000000000000000000000000000000000000000000000000000000815260040161114890613357565b60405180910390fd5b600061115b611095565b905061116b818787878787611b9b565b60005b845181101561131c57600085828151811061118c5761118b612e65565b5b6020026020010151905060008583815181106111ab576111aa612e65565b5b60200260200101519050600080600084815260200190815260200160002060008b73ffffffffffffffffffffffffffffffffffffffff1673ffffffffffffffffffffffffffffffffffffffff1681526020019081526020016000205490508181101561124c576040517f08c379a0000000000000000000000000000000000000000000000000000000008152600401611243906133e9565b60405180910390fd5b81810360008085815260200190815260200160002060008c73ffffffffffffffffffffffffffffffffffffffff1673ffffffffffffffffffffffffffffffffffffffff168152602001908152602001600020819055508160008085815260200190815260200160002060008b73ffffffffffffffffffffffffffffffffffffffff1673ffffffffffffffffffffffffffffffffffffffff16815260200190815260200160002060008282546113019190613409565b925050819055505050508061131590612ec3565b905061116e565b508473ffffffffffffffffffffffffffffffffffffffff168673ffffffffffffffffffffffffffffffffffffffff168273ffffffffffffffffffffffffffffffffffffffff167f4a39dc06d4c0dbc64b70af90fd698a233a518aa5d07e595d983b8c0526c8f7fb878760405161139392919061345f565b60405180910390a46113a9818787878787611ba3565b505050505050565b6000600360009054906101000a900473ffffffffffffffffffffffffffffffffffffffff16905081600360006101000a81548173ffffffffffffffffffffffffffffffffffffffff021916908373ffffffffffffffffffffffffffffffffffffffff1602179055508173ffffffffffffffffffffffffffffffffffffffff168173ffffffffffffffffffffffffffffffffffffffff167f8be0079c531659141344cd1fd0a4f28419497f9722a3daafe3b4186f6b6457e060405160405180910390a35050565b806002908051906020019061148d92919061200e565b5050565b8173ffffffffffffffffffffffffffffffffffffffff168373ffffffffffffffffffffffffffffffffffffffff161415611500576040517f08c379a00000000000000000000000000000000000000000000000000000000081526004016114f790613508565b60405180910390fd5b80600160008573ffffffffffffffffffffffffffffffffffffffff1673ffffffffffffffffffffffffffffffffffffffff16815260200190815260200160002060008473ffffffffffffffffffffffffffffffffffffffff1673ffffffffffffffffffffffffffffffffffffffff16815260200190815260200160002060006101000a81548160ff0219169083151502179055508173ffffffffffffffffffffffffffffffffffffffff168373ffffffffffffffffffffffffffffffffffffffff167f17307eab39ab6107e8899845ad3d59bd9653f200f220920489ca2b5937696c31836040516115f19190612263565b60405180910390a3505050565b6001816000016000828254019250508190555050565b600081600001549050919050565b600073ffffffffffffffffffffffffffffffffffffffff168473ffffffffffffffffffffffffffffffffffffffff161415611692576040517f08c379a00000000000000000000000000000000000000000000000000000000081526004016116899061359a565b60405180910390fd5b600061169c611095565b90506116bd816000876116ae88611d8a565b6116b788611d8a565b87611b9b565b8260008086815260200190815260200160002060008773ffffffffffffffffffffffffffffffffffffffff1673ffffffffffffffffffffffffffffffffffffffff168152602001908152602001600020600082825461171c9190613409565b925050819055508473ffffffffffffffffffffffffffffffffffffffff16600073ffffffffffffffffffffffffffffffffffffffff168273ffffffffffffffffffffffffffffffffffffffff167fc3d58168c5ae7397731d063d5bbf3d657854427343f4c083240f7aacaa2d0f62878760405161179a9291906135ba565b60405180910390a46117b181600087878787611e04565b5050505050565b60606000821415611800576040518060400160405280600181526020017f30000000000000000000000000000000000000000000000000000000000000008152509050611914565b600082905060005b6000821461183257808061181b90612ec3565b915050600a8261182b9190613612565b9150611808565b60008167ffffffffffffffff81111561184e5761184d61236b565b5b6040519080825280601f01601f1916602001820160405280156118805781602001600182028036833780820191505090505b5090505b6000851461190d576001826118999190613643565b9150600a856118a89190613677565b60306118b49190613409565b60f81b8183815181106118ca576118c9612e65565b5b60200101907effffffffffffffffffffffffffffffffffffffffffffffffffffffffffffff1916908160001a905350600a856119069190613612565b9450611884565b8093505050505b919050565b600073ffffffffffffffffffffffffffffffffffffffff168473ffffffffffffffffffffffffffffffffffffffff161415611989576040517f08c379a000000000000000000000000000000000000000000000000000000000815260040161198090613357565b60405180910390fd5b6000611993611095565b90506119b38187876119a488611d8a565b6119ad88611d8a565b87611b9b565b600080600086815260200190815260200160002060008873ffffffffffffffffffffffffffffffffffffffff1673ffffffffffffffffffffffffffffffffffffffff16815260200190815260200160002054905083811015611a4a576040517f08c379a0000000000000000000000000000000000000000000000000000000008152600401611a41906133e9565b60405180910390fd5b83810360008087815260200190815260200160002060008973ffffffffffffffffffffffffffffffffffffffff1673ffffffffffffffffffffffffffffffffffffffff168152602001908152602001600020819055508360008087815260200190815260200160002060008873ffffffffffffffffffffffffffffffffffffffff1673ffffffffffffffffffffffffffffffffffffffff1681526020019081526020016000206000828254611aff9190613409565b925050819055508573ffffffffffffffffffffffffffffffffffffffff168773ffffffffffffffffffffffffffffffffffffffff168373ffffffffffffffffffffffffffffffffffffffff167fc3d58168c5ae7397731d063d5bbf3d657854427343f4c083240f7aacaa2d0f628888604051611b7c9291906135ba565b60405180910390a4611b92828888888888611e04565b50505050505050565b505050505050565b611bc28473ffffffffffffffffffffffffffffffffffffffff16611feb565b15611d82578373ffffffffffffffffffffffffffffffffffffffff1663bc197c8187878686866040518663ffffffff1660e01b8152600401611c089594939291906136fd565b602060405180830381600087803b158015611c2257600080fd5b505af1925050508015611c5357506040513d601f19601f82011682018060405250810190611c50919061377a565b60015b611cf957611c5f6137b4565b806308c379a01415611cbc5750611c746137d6565b80611c7f5750611cbe565b806040517f08c379a0000000000000000000000000000000000000000000000000000000008152600401611cb39190612344565b60405180910390fd5b505b6040517f08c379a0000000000000000000000000000000000000000000000000000000008152600401611cf0906138de565b60405180910390fd5b63bc197c8160e01b7bffffffffffffffffffffffffffffffffffffffffffffffffffffffff1916817bffffffffffffffffffffffffffffffffffffffffffffffffffffffff191614611d80576040517f08c379a0000000000000000000000000000000000000000000000000000000008152600401611d7790613970565b60405180910390fd5b505b505050505050565b60606000600167ffffffffffffffff811115611da957611da861236b565b5b604051908082528060200260200182016040528015611dd75781602001602082028036833780820191505090505b5090508281600081518110611def57611dee612e65565b5b60200260200101818152505080915050919050565b611e238473ffffffffffffffffffffffffffffffffffffffff16611feb565b15611fe3578373ffffffffffffffffffffffffffffffffffffffff1663f23a6e6187878686866040518663ffffffff1660e01b8152600401611e69959493929190613990565b602060405180830381600087803b158015611e8357600080fd5b505af1925050508015611eb457506040513d601f19601f82011682018060405250810190611eb1919061377a565b60015b611f5a57611ec06137b4565b806308c379a01415611f1d5750611ed56137d6565b80611ee05750611f1f565b806040517f08c379a0000000000000000000000000000000000000000000000000000000008152600401611f149190612344565b60405180910390fd5b505b6040517f08c379a0000000000000000000000000000000000000000000000000000000008152600401611f51906138de565b60405180910390fd5b63f23a6e6160e01b7bffffffffffffffffffffffffffffffffffffffffffffffffffffffff1916817bffffffffffffffffffffffffffffffffffffffffffffffffffffffff191614611fe1576040517f08c379a0000000000000000000000000000000000000000000000000000000008152600401611fd890613970565b60405180910390fd5b505b505050505050565b6000808273ffffffffffffffffffffffffffffffffffffffff163b119050919050565b82805461201a90612d0f565b90600052602060002090601f01602090048101928261203c5760008555612083565b82601f1061205557805160ff1916838001178555612083565b82800160010185558215612083579182015b82811115612082578251825591602001919060010190612067565b5b5090506120909190612094565b5090565b5b808211156120ad576000816000905550600101612095565b5090565b6000604051905090565b600080fd5b600080fd5b600073ffffffffffffffffffffffffffffffffffffffff82169050919050565b60006120f0826120c5565b9050919050565b612100816120e5565b811461210b57600080fd5b50565b60008135905061211d816120f7565b92915050565b6000819050919050565b61213681612123565b811461214157600080fd5b50565b6000813590506121538161212d565b92915050565b600080604083850312156121705761216f6120bb565b5b600061217e8582860161210e565b925050602061218f85828601612144565b9150509250929050565b6121a281612123565b82525050565b60006020820190506121bd6000830184612199565b92915050565b60007fffffffff0000000000000000000000000000000000000000000000000000000082169050919050565b6121f8816121c3565b811461220357600080fd5b50565b600081359050612215816121ef565b92915050565b600060208284031215612231576122306120bb565b5b600061223f84828501612206565b91505092915050565b60008115159050919050565b61225d81612248565b82525050565b60006020820190506122786000830184612254565b92915050565b600060208284031215612294576122936120bb565b5b60006122a284828501612144565b91505092915050565b600081519050919050565b600082825260208201905092915050565b60005b838110156122e55780820151818401526020810190506122ca565b838111156122f4576000848401525b50505050565b6000601f19601f8301169050919050565b6000612316826122ab565b61232081856122b6565b93506123308185602086016122c7565b612339816122fa565b840191505092915050565b6000602082019050818103600083015261235e818461230b565b905092915050565b600080fd5b7f4e487b7100000000000000000000000000000000000000000000000000000000600052604160045260246000fd5b6123a3826122fa565b810181811067ffffffffffffffff821117156123c2576123c161236b565b5b80604052505050565b60006123d56120b1565b90506123e1828261239a565b919050565b600067ffffffffffffffff8211156124015761240061236b565b5b602082029050602081019050919050565b600080fd5b600061242a612425846123e6565b6123cb565b9050808382526020820190506020840283018581111561244d5761244c612412565b5b835b8181101561247657806124628882612144565b84526020840193505060208101905061244f565b5050509392505050565b600082601f83011261249557612494612366565b5b81356124a5848260208601612417565b91505092915050565b600080fd5b600067ffffffffffffffff8211156124ce576124cd61236b565b5b6124d7826122fa565b9050602081019050919050565b82818337600083830152505050565b6000612506612501846124b3565b6123cb565b905082815260208101848484011115612522576125216124ae565b5b61252d8482856124e4565b509392505050565b600082601f83011261254a57612549612366565b5b813561255a8482602086016124f3565b91505092915050565b600080600080600060a0868803121561257f5761257e6120bb565b5b600061258d8882890161210e565b955050602061259e8882890161210e565b945050604086013567ffffffffffffffff8111156125bf576125be6120c0565b5b6125cb88828901612480565b935050606086013567ffffffffffffffff8111156125ec576125eb6120c0565b5b6125f888828901612480565b925050608086013567ffffffffffffffff811115612619576126186120c0565b5b61262588828901612535565b9150509295509295909350565b600067ffffffffffffffff82111561264d5761264c61236b565b5b602082029050602081019050919050565b600061267161266c84612632565b6123cb565b9050808382526020820190506020840283018581111561269457612693612412565b5b835b818110156126bd57806126a9888261210e565b845260208401935050602081019050612696565b5050509392505050565b600082601f8301126126dc576126db612366565b5b81356126ec84826020860161265e565b91505092915050565b6000806040838503121561270c5761270b6120bb565b5b600083013567ffffffffffffffff81111561272a576127296120c0565b5b612736858286016126c7565b925050602083013567ffffffffffffffff811115612757576127566120c0565b5b61276385828601612480565b9150509250929050565b600081519050919050565b600082825260208201905092915050565b6000819050602082019050919050565b6127a281612123565b82525050565b60006127b48383612799565b60208301905092915050565b6000602082019050919050565b60006127d88261276d565b6127e28185612778565b93506127ed83612789565b8060005b8381101561281e57815161280588826127a8565b9750612810836127c0565b9250506001810190506127f1565b5085935050505092915050565b6000602082019050818103600083015261284581846127cd565b905092915050565b600060a0820190506128626000830188612199565b8181036020830152612874818761230b565b90508181036040830152612888818661230b565b90506128976060830185612199565b6128a46080830184612199565b9695505050505050565b6128b7816120e5565b82525050565b60006020820190506128d260008301846128ae565b92915050565b600067ffffffffffffffff8211156128f3576128f261236b565b5b6128fc826122fa565b9050602081019050919050565b600061291c612917846128d8565b6123cb565b905082815260208101848484011115612938576129376124ae565b5b6129438482856124e4565b509392505050565b600082601f8301126129605761295f612366565b5b8135612970848260208601612909565b91505092915050565b60006020828403121561298f5761298e6120bb565b5b600082013567ffffffffffffffff8111156129ad576129ac6120c0565b5b6129b98482850161294b565b91505092915050565b6129cb81612248565b81146129d657600080fd5b50565b6000813590506129e8816129c2565b92915050565b60008060408385031215612a0557612a046120bb565b5b6000612a138582860161210e565b9250506020612a24858286016129d9565b9150509250929050565b600080fd5b60008083601f840112612a4957612a48612366565b5b8235905067ffffffffffffffff811115612a6657612a65612a2e565b5b602083019150836001820283011115612a8257612a81612412565b5b9250929050565b60008060008060408587031215612aa357612aa26120bb565b5b600085013567ffffffffffffffff811115612ac157612ac06120c0565b5b612acd87828801612a33565b9450945050602085013567ffffffffffffffff811115612af057612aef6120c0565b5b612afc87828801612a33565b925092505092959194509250565b60008060408385031215612b2157612b206120bb565b5b6000612b2f85828601612144565b9250506020612b4085828601612144565b9150509250929050565b60008060408385031215612b6157612b606120bb565b5b6000612b6f8582860161210e565b9250506020612b808582860161210e565b9150509250929050565b600080600080600060a08688031215612ba657612ba56120bb565b5b6000612bb48882890161210e565b9550506020612bc58882890161210e565b9450506040612bd688828901612144565b9350506060612be788828901612144565b925050608086013567ffffffffffffffff811115612c0857612c076120c0565b5b612c1488828901612535565b9150509295509295909350565b600060208284031215612c3757612c366120bb565b5b6000612c458482850161210e565b91505092915050565b7f455243313135353a2062616c616e636520717565727920666f7220746865207a60008201527f65726f2061646472657373000000000000000000000000000000000000000000602082015250565b6000612caa602b836122b6565b9150612cb582612c4e565b604082019050919050565b60006020820190508181036000830152612cd981612c9d565b9050919050565b7f4e487b7100000000000000000000000000000000000000000000000000000000600052602260045260246000fd5b60006002820490506001821680612d2757607f821691505b60208210811415612d3b57612d3a612ce0565b5b50919050565b7f455243313135353a207472616e736665722063616c6c6572206973206e6f742060008201527f6f776e6572206e6f7220617070726f7665640000000000000000000000000000602082015250565b6000612d9d6032836122b6565b9150612da882612d41565b604082019050919050565b60006020820190508181036000830152612dcc81612d90565b9050919050565b7f455243313135353a206163636f756e747320616e6420696473206c656e67746860008201527f206d69736d617463680000000000000000000000000000000000000000000000602082015250565b6000612e2f6029836122b6565b9150612e3a82612dd3565b604082019050919050565b60006020820190508181036000830152612e5e81612e22565b9050919050565b7f4e487b7100000000000000000000000000000000000000000000000000000000600052603260045260246000fd5b7f4e487b7100000000000000000000000000000000000000000000000000000000600052601160045260246000fd5b6000612ece82612123565b91507fffffffffffffffffffffffffffffffffffffffffffffffffffffffffffffffff821415612f0157612f00612e94565b5b600182019050919050565b7f4f776e61626c653a2063616c6c6572206973206e6f7420746865206f776e6572600082015250565b6000612f426020836122b6565b9150612f4d82612f0c565b602082019050919050565b60006020820190508181036000830152612f7181612f35565b9050919050565b7f5265656e7472616e637947756172643a207265656e7472616e742063616c6c00600082015250565b6000612fae601f836122b6565b9150612fb982612f78565b602082019050919050565b60006020820190508181036000830152612fdd81612fa1565b9050919050565b600081905092915050565b60008190508160005260206000209050919050565b6000815461301181612d0f565b61301b8186612fe4565b9450600182166000811461303657600181146130475761307a565b60ff1983168652818601935061307a565b61305085612fef565b60005b8381101561307257815481890152600182019150602081019050613053565b838801955050505b50505092915050565b600061308e826122ab565b6130988185612fe4565b93506130a88185602086016122c7565b80840191505092915050565b7f2e6a736f6e000000000000000000000000000000000000000000000000000000600082015250565b60006130ea600583612fe4565b91506130f5826130b4565b600582019050919050565b600061310c8285613004565b91506131188284613083565b9150613123826130dd565b91508190509392505050565b7f455243313135353a2063616c6c6572206973206e6f74206f776e6572206e6f7260008201527f20617070726f7665640000000000000000000000000000000000000000000000602082015250565b600061318b6029836122b6565b91506131968261312f565b604082019050919050565b600060208201905081810360008301526131ba8161317e565b9050919050565b7f4f776e61626c653a206e6577206f776e657220697320746865207a65726f206160008201527f6464726573730000000000000000000000000000000000000000000000000000602082015250565b600061321d6026836122b6565b9150613228826131c1565b604082019050919050565b6000602082019050818103600083015261324c81613210565b9050919050565b7f455243313135353a2069647320616e6420616d6f756e7473206c656e6774682060008201527f6d69736d61746368000000000000000000000000000000000000000000000000602082015250565b60006132af6028836122b6565b91506132ba82613253565b604082019050919050565b600060208201905081810360008301526132de816132a2565b9050919050565b7f455243313135353a207472616e7366657220746f20746865207a65726f20616460008201527f6472657373000000000000000000000000000000000000000000000000000000602082015250565b60006133416025836122b6565b915061334c826132e5565b604082019050919050565b6000602082019050818103600083015261337081613334565b9050919050565b7f455243313135353a20696e73756666696369656e742062616c616e636520666f60008201527f72207472616e7366657200000000000000000000000000000000000000000000602082015250565b60006133d3602a836122b6565b91506133de82613377565b604082019050919050565b60006020820190508181036000830152613402816133c6565b9050919050565b600061341482612123565b915061341f83612123565b9250827fffffffffffffffffffffffffffffffffffffffffffffffffffffffffffffffff0382111561345457613453612e94565b5b828201905092915050565b6000604082019050818103600083015261347981856127cd565b9050818103602083015261348d81846127cd565b90509392505050565b7f455243313135353a2073657474696e6720617070726f76616c2073746174757360008201527f20666f722073656c660000000000000000000000000000000000000000000000602082015250565b60006134f26029836122b6565b91506134fd82613496565b604082019050919050565b60006020820190508181036000830152613521816134e5565b9050919050565b7f455243313135353a206d696e7420746f20746865207a65726f2061646472657360008201527f7300000000000000000000000000000000000000000000000000000000000000602082015250565b60006135846021836122b6565b915061358f82613528565b604082019050919050565b600060208201905081810360008301526135b381613577565b9050919050565b60006040820190506135cf6000830185612199565b6135dc6020830184612199565b9392505050565b7f4e487b7100000000000000000000000000000000000000000000000000000000600052601260045260246000fd5b600061361d82612123565b915061362883612123565b925082613638576136376135e3565b5b828204905092915050565b600061364e82612123565b915061365983612123565b92508282101561366c5761366b612e94565b5b828203905092915050565b600061368282612123565b915061368d83612123565b92508261369d5761369c6135e3565b5b828206905092915050565b600081519050919050565b600082825260208201905092915050565b60006136cf826136a8565b6136d981856136b3565b93506136e98185602086016122c7565b6136f2816122fa565b840191505092915050565b600060a08201905061371260008301886128ae565b61371f60208301876128ae565b818103604083015261373181866127cd565b9050818103606083015261374581856127cd565b9050818103608083015261375981846136c4565b90509695505050505050565b600081519050613774816121ef565b92915050565b6000602082840312156137905761378f6120bb565b5b600061379e84828501613765565b91505092915050565b60008160e01c9050919050565b600060033d11156137d35760046000803e6137d06000516137a7565b90505b90565b600060443d10156137e657613869565b6137ee6120b1565b60043d036004823e80513d602482011167ffffffffffffffff82111715613816575050613869565b808201805167ffffffffffffffff8111156138345750505050613869565b80602083010160043d038501811115613851575050505050613869565b6138608260200185018661239a565b82955050505050505b90565b7f455243313135353a207472616e7366657220746f206e6f6e204552433131353560008201527f526563656976657220696d706c656d656e746572000000000000000000000000602082015250565b60006138c86034836122b6565b91506138d38261386c565b604082019050919050565b600060208201905081810360008301526138f7816138bb565b9050919050565b7f455243313135353a204552433131353552656365697665722072656a6563746560008201527f6420746f6b656e73000000000000000000000000000000000000000000000000602082015250565b600061395a6028836122b6565b9150613965826138fe565b604082019050919050565b600060208201905081810360008301526139898161394d565b9050919050565b600060a0820190506139a560008301886128ae565b6139b260208301876128ae565b6139bf6040830186612199565b6139cc6060830185612199565b81810360808301526139de81846136c4565b9050969550505050505056fea2646970667358221220ba70ffcb5cf9a787357724e512f1d5c007cba8716f99a3437e0da62ab88170ff64736f6c6343000809003368747470733a2f2f7777772e7265616c657374617465636861696e2e65732f6170692f6974656d2f68747470733a2f2f7777772e7265616c657374617465636861696e2e65732f6170692f6974656d2f7b69647d2e6a736f6e",
  "devdoc": {
    "kind": "dev",
    "methods": {
      "addREAT(string,string)": {
        "details": "addREAT() mints the token and updates the token counter",
        "params": {
          "_hashJsonToken": "is the keccak256 of the property metadata",
          "_idCatastro": "is the ID to be provided by the Catastro office"
        },
        "returns": {
          "_0": "ID of the struct REATdata that got created/updated"
        }
      },
      "balanceOf(address,uint256)": {
        "details": "See {IERC1155-balanceOf}. Requirements: - `account` cannot be the zero address."
      },
      "balanceOfBatch(address[],uint256[])": {
        "details": "See {IERC1155-balanceOfBatch}. Requirements: - `accounts` and `ids` must have the same length."
      },
      "getUri(uint256)": {
        "details": "Function to get the URI by passing the tokenId",
        "params": {
          "_tokenId": "variable passed to assign the ID, that is the token type "
        }
      },
      "isApprovedForAll(address,address)": {
        "details": "See {IERC1155-isApprovedForAll}."
      },
      "owner()": {
        "details": "Returns the address of the current owner."
      },
      "paused()": {
        "details": "Returns true if the contract is paused, and false otherwise."
      },
      "renounceOwnership()": {
        "details": "Leaves the contract without owner. It will not be possible to call `onlyOwner` functions anymore. Can only be called by the current owner. NOTE: Renouncing ownership will leave the contract without an owner, thereby removing any functionality that is only available to the owner."
      },
      "safeBatchTransferFrom(address,address,uint256[],uint256[],bytes)": {
        "details": "See {IERC1155-safeBatchTransferFrom}."
      },
      "safeTransferFrom(address,address,uint256,uint256,bytes)": {
        "details": "See {IERC1155-safeTransferFrom}."
      },
      "setApprovalForAll(address,bool)": {
        "details": "See {IERC1155-setApprovalForAll}."
      },
      "supportsInterface(bytes4)": {
        "details": "See {IERC165-supportsInterface}."
      },
      "transferOwnership(address)": {
        "details": "Transfers ownership of the contract to a new account (`newOwner`). Can only be called by the current owner."
      },
      "updateHashJsonDoc(uint256,uint256)": {
        "details": "This function will update the json hash whenever there are updates in property docs",
        "params": {
          "_id": "used to search in the reatdata mapping to find the struct that will be updated",
          "_newHashJsonDoc": "is the new hash that will replace the hashJsonDoc inside the struct reatdata"
        }
      },
      "updateMasterUri(string)": {
        "details": "updateMasterUri() sets a new URI for the token type passed as argumentwhere is the OWNER defined ?",
        "params": {
          "uri_": "is the ID that will be set for the token type"
        }
      },
      "uri(uint256)": {
        "details": "See {IERC1155MetadataURI-uri}. This implementation returns the same URI for *all* token types. It relies on the token type ID substitution mechanism https://eips.ethereum.org/EIPS/eip-1155#metadata[defined in the EIP]. Clients calling this function must replace the `\\{id\\}` substring with the actual token type ID."
      }
    },
    "stateVariables": {
      "reatdata": {
        "details": "a mapping to index all REATData structs created in the contract"
      }
    },
    "version": 1
  },
  "userdoc": {
    "kind": "user",
    "methods": {
      "addREAT(string,string)": {
        "notice": "why are we passing the parameters as calldata ?token minted with URI property \"hashJsonDoc\" empty. It'll be added later on"
      },
      "getUri(uint256)": {
        "notice": "it takes the base URI and concatenates the _tokenId and adds \".json\" in the end"
      },
      "updateMasterUri(string)": {
        "notice": "a new token type is created for every single propertyinherited modifier \"nonReentrant\" from ReentrancyGuard contract"
      }
    },
    "version": 1
  },
  "storageLayout": {
    "storage": [
      {
        "astId": 262,
        "contract": "contracts/MasterREAT_EG_ext_Savings.sol:MasterREAT_EG_ext_Savings",
        "label": "_balances",
        "offset": 0,
        "slot": "0",
        "type": "t_mapping(t_uint256,t_mapping(t_address,t_uint256))"
      },
      {
        "astId": 268,
        "contract": "contracts/MasterREAT_EG_ext_Savings.sol:MasterREAT_EG_ext_Savings",
        "label": "_operatorApprovals",
        "offset": 0,
        "slot": "1",
        "type": "t_mapping(t_address,t_mapping(t_address,t_bool))"
      },
      {
        "astId": 270,
        "contract": "contracts/MasterREAT_EG_ext_Savings.sol:MasterREAT_EG_ext_Savings",
        "label": "_uri",
        "offset": 0,
        "slot": "2",
        "type": "t_string_storage"
      },
      {
        "astId": 7,
        "contract": "contracts/MasterREAT_EG_ext_Savings.sol:MasterREAT_EG_ext_Savings",
        "label": "_owner",
        "offset": 0,
        "slot": "3",
        "type": "t_address"
      },
      {
        "astId": 122,
        "contract": "contracts/MasterREAT_EG_ext_Savings.sol:MasterREAT_EG_ext_Savings",
        "label": "_paused",
        "offset": 20,
        "slot": "3",
        "type": "t_bool"
      },
      {
        "astId": 207,
        "contract": "contracts/MasterREAT_EG_ext_Savings.sol:MasterREAT_EG_ext_Savings",
        "label": "_status",
        "offset": 0,
        "slot": "4",
        "type": "t_uint256"
      },
      {
        "astId": 2207,
        "contract": "contracts/MasterREAT_EG_ext_Savings.sol:MasterREAT_EG_ext_Savings",
        "label": "baseUri",
        "offset": 0,
        "slot": "5",
        "type": "t_string_storage"
      },
      {
        "astId": 2217,
        "contract": "contracts/MasterREAT_EG_ext_Savings.sol:MasterREAT_EG_ext_Savings",
        "label": "_owner",
        "offset": 0,
        "slot": "6",
        "type": "t_address"
      },
      {
        "astId": 2224,
        "contract": "contracts/MasterREAT_EG_ext_Savings.sol:MasterREAT_EG_ext_Savings",
        "label": "_reatAutoId",
        "offset": 0,
        "slot": "7",
        "type": "t_struct(Counter)1880_storage"
      },
      {
        "astId": 2241,
        "contract": "contracts/MasterREAT_EG_ext_Savings.sol:MasterREAT_EG_ext_Savings",
        "label": "reatdata",
        "offset": 0,
        "slot": "8",
        "type": "t_mapping(t_uint256,t_struct(REATData)2235_storage)"
      }
    ],
    "types": {
      "t_address": {
        "encoding": "inplace",
        "label": "address",
        "numberOfBytes": "20"
      },
      "t_bool": {
        "encoding": "inplace",
        "label": "bool",
        "numberOfBytes": "1"
      },
      "t_mapping(t_address,t_bool)": {
        "encoding": "mapping",
        "key": "t_address",
        "label": "mapping(address => bool)",
        "numberOfBytes": "32",
        "value": "t_bool"
      },
      "t_mapping(t_address,t_mapping(t_address,t_bool))": {
        "encoding": "mapping",
        "key": "t_address",
        "label": "mapping(address => mapping(address => bool))",
        "numberOfBytes": "32",
        "value": "t_mapping(t_address,t_bool)"
      },
      "t_mapping(t_address,t_uint256)": {
        "encoding": "mapping",
        "key": "t_address",
        "label": "mapping(address => uint256)",
        "numberOfBytes": "32",
        "value": "t_uint256"
      },
      "t_mapping(t_uint256,t_mapping(t_address,t_uint256))": {
        "encoding": "mapping",
        "key": "t_uint256",
        "label": "mapping(uint256 => mapping(address => uint256))",
        "numberOfBytes": "32",
        "value": "t_mapping(t_address,t_uint256)"
      },
      "t_mapping(t_uint256,t_struct(REATData)2235_storage)": {
        "encoding": "mapping",
        "key": "t_uint256",
        "label": "mapping(uint256 => struct MasterREAT_EG_ext_Savings.REATData)",
        "numberOfBytes": "32",
        "value": "t_struct(REATData)2235_storage"
      },
      "t_string_storage": {
        "encoding": "bytes",
        "label": "string",
        "numberOfBytes": "32"
      },
      "t_struct(Counter)1880_storage": {
        "encoding": "inplace",
        "label": "struct Counters.Counter",
        "members": [
          {
            "astId": 1879,
            "contract": "contracts/MasterREAT_EG_ext_Savings.sol:MasterREAT_EG_ext_Savings",
            "label": "_value",
            "offset": 0,
            "slot": "0",
            "type": "t_uint256"
          }
        ],
        "numberOfBytes": "32"
      },
      "t_struct(REATData)2235_storage": {
        "encoding": "inplace",
        "label": "struct MasterREAT_EG_ext_Savings.REATData",
        "members": [
          {
            "astId": 2226,
            "contract": "contracts/MasterREAT_EG_ext_Savings.sol:MasterREAT_EG_ext_Savings",
            "label": "REATid",
            "offset": 0,
            "slot": "0",
            "type": "t_uint256"
          },
          {
            "astId": 2228,
            "contract": "contracts/MasterREAT_EG_ext_Savings.sol:MasterREAT_EG_ext_Savings",
            "label": "idCatastro",
            "offset": 0,
            "slot": "1",
            "type": "t_string_storage"
          },
          {
            "astId": 2230,
            "contract": "contracts/MasterREAT_EG_ext_Savings.sol:MasterREAT_EG_ext_Savings",
            "label": "hashJsonToken",
            "offset": 0,
            "slot": "2",
            "type": "t_string_storage"
          },
          {
            "astId": 2232,
            "contract": "contracts/MasterREAT_EG_ext_Savings.sol:MasterREAT_EG_ext_Savings",
            "label": "hashJsonDoc",
            "offset": 0,
            "slot": "3",
            "type": "t_uint256"
          },
          {
            "astId": 2234,
            "contract": "contracts/MasterREAT_EG_ext_Savings.sol:MasterREAT_EG_ext_Savings",
            "label": "exists",
            "offset": 0,
            "slot": "4",
            "type": "t_uint256"
          }
        ],
        "numberOfBytes": "160"
      },
      "t_uint256": {
        "encoding": "inplace",
        "label": "uint256",
        "numberOfBytes": "32"
      }
    }
  }
}