{
  "address": "0xD5feF439D07a66A86bF3fd61D17758f9E813B53b",
  "abi": [
    {
      "inputs": [],
      "stateMutability": "nonpayable",
      "type": "constructor"
    },
    {
      "anonymous": false,
      "inputs": [
        {
          "indexed": true,
          "internalType": "address",
          "name": "account",
          "type": "address"
        },
        {
          "indexed": true,
          "internalType": "address",
          "name": "operator",
          "type": "address"
        },
        {
          "indexed": false,
          "internalType": "bool",
          "name": "approved",
          "type": "bool"
        }
      ],
      "name": "ApprovalForAll",
      "type": "event"
    },
    {
      "anonymous": false,
      "inputs": [
        {
          "indexed": true,
          "internalType": "address",
          "name": "previousOwner",
          "type": "address"
        },
        {
          "indexed": true,
          "internalType": "address",
          "name": "newOwner",
          "type": "address"
        }
      ],
      "name": "OwnershipTransferred",
      "type": "event"
    },
    {
      "anonymous": false,
      "inputs": [
        {
          "indexed": false,
          "internalType": "address",
          "name": "account",
          "type": "address"
        }
      ],
      "name": "Paused",
      "type": "event"
    },
    {
      "anonymous": false,
      "inputs": [
        {
          "indexed": true,
          "internalType": "address",
          "name": "operator",
          "type": "address"
        },
        {
          "indexed": true,
          "internalType": "address",
          "name": "from",
          "type": "address"
        },
        {
          "indexed": true,
          "internalType": "address",
          "name": "to",
          "type": "address"
        },
        {
          "indexed": false,
          "internalType": "uint256[]",
          "name": "ids",
          "type": "uint256[]"
        },
        {
          "indexed": false,
          "internalType": "uint256[]",
          "name": "values",
          "type": "uint256[]"
        }
      ],
      "name": "TransferBatch",
      "type": "event"
    },
    {
      "anonymous": false,
      "inputs": [
        {
          "indexed": true,
          "internalType": "address",
          "name": "operator",
          "type": "address"
        },
        {
          "indexed": true,
          "internalType": "address",
          "name": "from",
          "type": "address"
        },
        {
          "indexed": true,
          "internalType": "address",
          "name": "to",
          "type": "address"
        },
        {
          "indexed": false,
          "internalType": "uint256",
          "name": "id",
          "type": "uint256"
        },
        {
          "indexed": false,
          "internalType": "uint256",
          "name": "value",
          "type": "uint256"
        }
      ],
      "name": "TransferSingle",
      "type": "event"
    },
    {
      "anonymous": false,
      "inputs": [
        {
          "indexed": false,
          "internalType": "string",
          "name": "value",
          "type": "string"
        },
        {
          "indexed": true,
          "internalType": "uint256",
          "name": "id",
          "type": "uint256"
        }
      ],
      "name": "URI",
      "type": "event"
    },
    {
      "anonymous": false,
      "inputs": [
        {
          "indexed": false,
          "internalType": "address",
          "name": "account",
          "type": "address"
        }
      ],
      "name": "Unpaused",
      "type": "event"
    },
    {
      "inputs": [
        {
          "internalType": "string",
          "name": "_idCatastro",
          "type": "string"
        },
        {
          "internalType": "string",
          "name": "_hashJsonToken",
          "type": "string"
        }
      ],
      "name": "addREAT",
      "outputs": [
        {
          "internalType": "uint256",
          "name": "",
          "type": "uint256"
        }
      ],
      "stateMutability": "nonpayable",
      "type": "function"
    },
    {
      "inputs": [
        {
          "internalType": "address",
          "name": "account",
          "type": "address"
        },
        {
          "internalType": "uint256",
          "name": "id",
          "type": "uint256"
        }
      ],
      "name": "balanceOf",
      "outputs": [
        {
          "internalType": "uint256",
          "name": "",
          "type": "uint256"
        }
      ],
      "stateMutability": "view",
      "type": "function"
    },
    {
      "inputs": [
        {
          "internalType": "address[]",
          "name": "accounts",
          "type": "address[]"
        },
        {
          "internalType": "uint256[]",
          "name": "ids",
          "type": "uint256[]"
        }
      ],
      "name": "balanceOfBatch",
      "outputs": [
        {
          "internalType": "uint256[]",
          "name": "",
          "type": "uint256[]"
        }
      ],
      "stateMutability": "view",
      "type": "function"
    },
    {
      "inputs": [
        {
          "internalType": "uint256",
          "name": "_tokenId",
          "type": "uint256"
        }
      ],
      "name": "getUri",
      "outputs": [
        {
          "internalType": "string",
          "name": "",
          "type": "string"
        }
      ],
      "stateMutability": "view",
      "type": "function"
    },
    {
      "inputs": [
        {
          "internalType": "address",
          "name": "account",
          "type": "address"
        },
        {
          "internalType": "address",
          "name": "operator",
          "type": "address"
        }
      ],
      "name": "isApprovedForAll",
      "outputs": [
        {
          "internalType": "bool",
          "name": "",
          "type": "bool"
        }
      ],
      "stateMutability": "view",
      "type": "function"
    },
    {
      "inputs": [],
      "name": "owner",
      "outputs": [
        {
          "internalType": "address",
          "name": "",
          "type": "address"
        }
      ],
      "stateMutability": "view",
      "type": "function"
    },
    {
      "inputs": [],
      "name": "paused",
      "outputs": [
        {
          "internalType": "bool",
          "name": "",
          "type": "bool"
        }
      ],
      "stateMutability": "view",
      "type": "function"
    },
    {
      "inputs": [
        {
          "internalType": "uint256",
          "name": "",
          "type": "uint256"
        }
      ],
      "name": "reatdata",
      "outputs": [
        {
          "internalType": "uint256",
          "name": "REATid",
          "type": "uint256"
        },
        {
          "internalType": "string",
          "name": "idCatastro",
          "type": "string"
        },
        {
          "internalType": "string",
          "name": "hashJsonToken",
          "type": "string"
        },
        {
          "internalType": "string",
          "name": "hashJsonDoc",
          "type": "string"
        },
        {
          "internalType": "bool",
          "name": "exists",
          "type": "bool"
        }
      ],
      "stateMutability": "view",
      "type": "function"
    },
    {
      "inputs": [],
      "name": "renounceOwnership",
      "outputs": [],
      "stateMutability": "nonpayable",
      "type": "function"
    },
    {
      "inputs": [
        {
          "internalType": "address",
          "name": "from",
          "type": "address"
        },
        {
          "internalType": "address",
          "name": "to",
          "type": "address"
        },
        {
          "internalType": "uint256[]",
          "name": "ids",
          "type": "uint256[]"
        },
        {
          "internalType": "uint256[]",
          "name": "amounts",
          "type": "uint256[]"
        },
        {
          "internalType": "bytes",
          "name": "data",
          "type": "bytes"
        }
      ],
      "name": "safeBatchTransferFrom",
      "outputs": [],
      "stateMutability": "nonpayable",
      "type": "function"
    },
    {
      "inputs": [
        {
          "internalType": "address",
          "name": "from",
          "type": "address"
        },
        {
          "internalType": "address",
          "name": "to",
          "type": "address"
        },
        {
          "internalType": "uint256",
          "name": "id",
          "type": "uint256"
        },
        {
          "internalType": "uint256",
          "name": "amount",
          "type": "uint256"
        },
        {
          "internalType": "bytes",
          "name": "data",
          "type": "bytes"
        }
      ],
      "name": "safeTransferFrom",
      "outputs": [],
      "stateMutability": "nonpayable",
      "type": "function"
    },
    {
      "inputs": [
        {
          "internalType": "address",
          "name": "operator",
          "type": "address"
        },
        {
          "internalType": "bool",
          "name": "approved",
          "type": "bool"
        }
      ],
      "name": "setApprovalForAll",
      "outputs": [],
      "stateMutability": "nonpayable",
      "type": "function"
    },
    {
      "inputs": [
        {
          "internalType": "bytes4",
          "name": "interfaceId",
          "type": "bytes4"
        }
      ],
      "name": "supportsInterface",
      "outputs": [
        {
          "internalType": "bool",
          "name": "",
          "type": "bool"
        }
      ],
      "stateMutability": "view",
      "type": "function"
    },
    {
      "inputs": [
        {
          "internalType": "address",
          "name": "newOwner",
          "type": "address"
        }
      ],
      "name": "transferOwnership",
      "outputs": [],
      "stateMutability": "nonpayable",
      "type": "function"
    },
    {
      "inputs": [
        {
          "internalType": "uint256",
          "name": "_id",
          "type": "uint256"
        },
        {
          "internalType": "string",
          "name": "_newHashJsonDoc",
          "type": "string"
        }
      ],
      "name": "updateHashJsonDoc",
      "outputs": [],
      "stateMutability": "nonpayable",
      "type": "function"
    },
    {
      "inputs": [
        {
          "internalType": "string",
          "name": "uri_",
          "type": "string"
        }
      ],
      "name": "updateMasterUri",
      "outputs": [],
      "stateMutability": "nonpayable",
      "type": "function"
    },
    {
      "inputs": [
        {
          "internalType": "uint256",
          "name": "",
          "type": "uint256"
        }
      ],
      "name": "uri",
      "outputs": [
        {
          "internalType": "string",
          "name": "",
          "type": "string"
        }
      ],
      "stateMutability": "view",
      "type": "function"
    }
  ],
  "transactionHash": "0x996cae9c460748b7dbda0ee4e14152dadeda66729fb305dabdd65410921b24e1",
  "args": [],
  "numDeployments": 1,
  "solcInputHash": "f84979a4a00ab7047ab9f413dd4fa523",
  "bytecode": "0x608060405260405180606001604052806028815260200162003e24602891396005908051906020019062000035929190620001a3565b503480156200004357600080fd5b5060405180606001604052806031815260200162003e4c603191396200006f81620000b960201b60201c565b506200009062000084620000d560201b60201c565b620000dd60201b60201c565b6000600360146101000a81548160ff0219169083151502179055506001600481905550620002b8565b8060029080519060200190620000d1929190620001a3565b5050565b600033905090565b6000600360009054906101000a900473ffffffffffffffffffffffffffffffffffffffff16905081600360006101000a81548173ffffffffffffffffffffffffffffffffffffffff021916908373ffffffffffffffffffffffffffffffffffffffff1602179055508173ffffffffffffffffffffffffffffffffffffffff168173ffffffffffffffffffffffffffffffffffffffff167f8be0079c531659141344cd1fd0a4f28419497f9722a3daafe3b4186f6b6457e060405160405180910390a35050565b828054620001b19062000282565b90600052602060002090601f016020900481019282620001d5576000855562000221565b82601f10620001f057805160ff191683800117855562000221565b8280016001018555821562000221579182015b828111156200022057825182559160200191906001019062000203565b5b50905062000230919062000234565b5090565b5b808211156200024f57600081600090555060010162000235565b5090565b7f4e487b7100000000000000000000000000000000000000000000000000000000600052602260045260246000fd5b600060028204905060018216806200029b57607f821691505b60208210811415620002b257620002b162000253565b5b50919050565b613b5c80620002c86000396000f3fe608060405234801561001057600080fd5b506004361061010a5760003560e01c8063715018a6116100a2578063acbe9dd611610071578063acbe9dd6146102b9578063da0544aa146102e9578063e985e9c514610319578063f242432a14610349578063f2fde38b146103655761010a565b8063715018a6146102595780638da5cb5b146102635780639dcbf87614610281578063a22cb4651461029d5761010a565b80632eb2c2d6116100de5780632eb2c2d6146101bb5780634e1273f4146101d75780635c975abb146102075780635d9a8a45146102255761010a565b8062fdd58e1461010f57806301ffc9a71461013f5780630e89341c1461016f57806327786ae11461019f575b600080fd5b6101296004803603810190610124919061226e565b610381565b60405161013691906122bd565b60405180910390f35b61015960048036038101906101549190612330565b61044a565b6040516101669190612378565b60405180910390f35b61018960048036038101906101849190612393565b61052c565b6040516101969190612459565b60405180910390f35b6101b960048036038101906101b491906124e0565b6105c0565b005b6101d560048036038101906101d09190612733565b61069b565b005b6101f160048036038101906101ec91906128c5565b61073c565b6040516101fe91906129fb565b60405180910390f35b61020f610855565b60405161021c9190612378565b60405180910390f35b61023f600480360381019061023a9190612393565b61086c565b604051610250959493929190612a1d565b60405180910390f35b610261610a47565b005b61026b610acf565b6040516102789190612a94565b60405180910390f35b61029b60048036038101906102969190612b50565b610af9565b005b6102b760048036038101906102b29190612bc5565b610bd7565b005b6102d360048036038101906102ce9190612c05565b610bed565b6040516102e091906122bd565b60405180910390f35b61030360048036038101906102fe9190612393565b610e59565b6040516103109190612459565b60405180910390f35b610333600480360381019061032e9190612c86565b610e8d565b6040516103409190612378565b60405180910390f35b610363600480360381019061035e9190612cc6565b610f21565b005b61037f600480360381019061037a9190612d5d565b610fc2565b005b60008073ffffffffffffffffffffffffffffffffffffffff168373ffffffffffffffffffffffffffffffffffffffff1614156103f2576040517f08c379a00000000000000000000000000000000000000000000000000000000081526004016103e990612dfc565b60405180910390fd5b60008083815260200190815260200160002060008473ffffffffffffffffffffffffffffffffffffffff1673ffffffffffffffffffffffffffffffffffffffff16815260200190815260200160002054905092915050565b60007fd9b67a26000000000000000000000000000000000000000000000000000000007bffffffffffffffffffffffffffffffffffffffffffffffffffffffff1916827bffffffffffffffffffffffffffffffffffffffffffffffffffffffff1916148061051557507f0e89341c000000000000000000000000000000000000000000000000000000007bffffffffffffffffffffffffffffffffffffffffffffffffffffffff1916827bffffffffffffffffffffffffffffffffffffffffffffffffffffffff1916145b806105255750610524826110ba565b5b9050919050565b60606002805461053b90612e4b565b80601f016020809104026020016040519081016040528092919081815260200182805461056790612e4b565b80156105b45780601f10610589576101008083540402835291602001916105b4565b820191906000526020600020905b81548152906001019060200180831161059757829003601f168201915b50505050509050919050565b6105c8611124565b73ffffffffffffffffffffffffffffffffffffffff166105e6610acf565b73ffffffffffffffffffffffffffffffffffffffff161461063c576040517f08c379a000000000000000000000000000000000000000000000000000000000815260040161063390612ec9565b60405180910390fd5b600115156007600085815260200190815260200160002060040160009054906101000a900460ff1615151461067057600080fd5b818160076000868152602001908152602001600020600301919061069592919061209d565b50505050565b6106a3611124565b73ffffffffffffffffffffffffffffffffffffffff168573ffffffffffffffffffffffffffffffffffffffff1614806106e957506106e8856106e3611124565b610e8d565b5b610728576040517f08c379a000000000000000000000000000000000000000000000000000000000815260040161071f90612f5b565b60405180910390fd5b610735858585858561112c565b5050505050565b60608151835114610782576040517f08c379a000000000000000000000000000000000000000000000000000000000815260040161077990612fed565b60405180910390fd5b6000835167ffffffffffffffff81111561079f5761079e612540565b5b6040519080825280602002602001820160405280156107cd5781602001602082028036833780820191505090505b50905060005b845181101561084a5761081a8582815181106107f2576107f161300d565b5b602002602001015185838151811061080d5761080c61300d565b5b6020026020010151610381565b82828151811061082d5761082c61300d565b5b602002602001018181525050806108439061306b565b90506107d3565b508091505092915050565b6000600360149054906101000a900460ff16905090565b600760205280600052604060002060009150905080600001549080600101805461089590612e4b565b80601f01602080910402602001604051908101604052809291908181526020018280546108c190612e4b565b801561090e5780601f106108e35761010080835404028352916020019161090e565b820191906000526020600020905b8154815290600101906020018083116108f157829003601f168201915b50505050509080600201805461092390612e4b565b80601f016020809104026020016040519081016040528092919081815260200182805461094f90612e4b565b801561099c5780601f106109715761010080835404028352916020019161099c565b820191906000526020600020905b81548152906001019060200180831161097f57829003601f168201915b5050505050908060030180546109b190612e4b565b80601f01602080910402602001604051908101604052809291908181526020018280546109dd90612e4b565b8015610a2a5780601f106109ff57610100808354040283529160200191610a2a565b820191906000526020600020905b815481529060010190602001808311610a0d57829003601f168201915b5050505050908060040160009054906101000a900460ff16905085565b610a4f611124565b73ffffffffffffffffffffffffffffffffffffffff16610a6d610acf565b73ffffffffffffffffffffffffffffffffffffffff1614610ac3576040517f08c379a0000000000000000000000000000000000000000000000000000000008152600401610aba90612ec9565b60405180910390fd5b610acd6000611440565b565b6000600360009054906101000a900473ffffffffffffffffffffffffffffffffffffffff16905090565b610b01611124565b73ffffffffffffffffffffffffffffffffffffffff16610b1f610acf565b73ffffffffffffffffffffffffffffffffffffffff1614610b75576040517f08c379a0000000000000000000000000000000000000000000000000000000008152600401610b6c90612ec9565b60405180910390fd5b60026004541415610bbb576040517f08c379a0000000000000000000000000000000000000000000000000000000008152600401610bb290613100565b60405180910390fd5b6002600481905550610bcc81611506565b600160048190555050565b610be9610be2611124565b8383611520565b5050565b6000610bf7611124565b73ffffffffffffffffffffffffffffffffffffffff16610c15610acf565b73ffffffffffffffffffffffffffffffffffffffff1614610c6b576040517f08c379a0000000000000000000000000000000000000000000000000000000008152600401610c6290612ec9565b60405180910390fd5b60026004541415610cb1576040517f08c379a0000000000000000000000000000000000000000000000000000000008152600401610ca890613100565b60405180910390fd5b6002600481905550610cc3600661168d565b6000610ccf60066116a3565b9050610ced33826001604051806020016040528060008152506116b1565b6040518060a0016040528082815260200187878080601f016020809104026020016040519081016040528093929190818152602001838380828437600081840152601f19601f82011690508083019250505050505050815260200185858080601f016020809104026020016040519081016040528093929190818152602001838380828437600081840152601f19601f8201169050808301925050505050505081526020016040518060200160405280600081525081526020016001151581525060076000838152602001908152602001600020600082015181600001556020820151816001019080519060200190610de7929190612123565b506040820151816002019080519060200190610e04929190612123565b506060820151816003019080519060200190610e21929190612123565b5060808201518160040160006101000a81548160ff021916908315150217905550905050809150506001600481905550949350505050565b60606005610e6683611847565b604051602001610e7792919061323c565b6040516020818303038152906040529050919050565b6000600160008473ffffffffffffffffffffffffffffffffffffffff1673ffffffffffffffffffffffffffffffffffffffff16815260200190815260200160002060008373ffffffffffffffffffffffffffffffffffffffff1673ffffffffffffffffffffffffffffffffffffffff16815260200190815260200160002060009054906101000a900460ff16905092915050565b610f29611124565b73ffffffffffffffffffffffffffffffffffffffff168573ffffffffffffffffffffffffffffffffffffffff161480610f6f5750610f6e85610f69611124565b610e8d565b5b610fae576040517f08c379a0000000000000000000000000000000000000000000000000000000008152600401610fa5906132dd565b60405180910390fd5b610fbb85858585856119a8565b5050505050565b610fca611124565b73ffffffffffffffffffffffffffffffffffffffff16610fe8610acf565b73ffffffffffffffffffffffffffffffffffffffff161461103e576040517f08c379a000000000000000000000000000000000000000000000000000000000815260040161103590612ec9565b60405180910390fd5b600073ffffffffffffffffffffffffffffffffffffffff168173ffffffffffffffffffffffffffffffffffffffff1614156110ae576040517f08c379a00000000000000000000000000000000000000000000000000000000081526004016110a59061336f565b60405180910390fd5b6110b781611440565b50565b60007f01ffc9a7000000000000000000000000000000000000000000000000000000007bffffffffffffffffffffffffffffffffffffffffffffffffffffffff1916827bffffffffffffffffffffffffffffffffffffffffffffffffffffffff1916149050919050565b600033905090565b8151835114611170576040517f08c379a000000000000000000000000000000000000000000000000000000000815260040161116790613401565b60405180910390fd5b600073ffffffffffffffffffffffffffffffffffffffff168473ffffffffffffffffffffffffffffffffffffffff1614156111e0576040517f08c379a00000000000000000000000000000000000000000000000000000000081526004016111d790613493565b60405180910390fd5b60006111ea611124565b90506111fa818787878787611c2a565b60005b84518110156113ab57600085828151811061121b5761121a61300d565b5b60200260200101519050600085838151811061123a5761123961300d565b5b60200260200101519050600080600084815260200190815260200160002060008b73ffffffffffffffffffffffffffffffffffffffff1673ffffffffffffffffffffffffffffffffffffffff168152602001908152602001600020549050818110156112db576040517f08c379a00000000000000000000000000000000000000000000000000000000081526004016112d290613525565b60405180910390fd5b81810360008085815260200190815260200160002060008c73ffffffffffffffffffffffffffffffffffffffff1673ffffffffffffffffffffffffffffffffffffffff168152602001908152602001600020819055508160008085815260200190815260200160002060008b73ffffffffffffffffffffffffffffffffffffffff1673ffffffffffffffffffffffffffffffffffffffff16815260200190815260200160002060008282546113909190613545565b92505081905550505050806113a49061306b565b90506111fd565b508473ffffffffffffffffffffffffffffffffffffffff168673ffffffffffffffffffffffffffffffffffffffff168273ffffffffffffffffffffffffffffffffffffffff167f4a39dc06d4c0dbc64b70af90fd698a233a518aa5d07e595d983b8c0526c8f7fb878760405161142292919061359b565b60405180910390a4611438818787878787611c32565b505050505050565b6000600360009054906101000a900473ffffffffffffffffffffffffffffffffffffffff16905081600360006101000a81548173ffffffffffffffffffffffffffffffffffffffff021916908373ffffffffffffffffffffffffffffffffffffffff1602179055508173ffffffffffffffffffffffffffffffffffffffff168173ffffffffffffffffffffffffffffffffffffffff167f8be0079c531659141344cd1fd0a4f28419497f9722a3daafe3b4186f6b6457e060405160405180910390a35050565b806002908051906020019061151c929190612123565b5050565b8173ffffffffffffffffffffffffffffffffffffffff168373ffffffffffffffffffffffffffffffffffffffff16141561158f576040517f08c379a000000000000000000000000000000000000000000000000000000000815260040161158690613644565b60405180910390fd5b80600160008573ffffffffffffffffffffffffffffffffffffffff1673ffffffffffffffffffffffffffffffffffffffff16815260200190815260200160002060008473ffffffffffffffffffffffffffffffffffffffff1673ffffffffffffffffffffffffffffffffffffffff16815260200190815260200160002060006101000a81548160ff0219169083151502179055508173ffffffffffffffffffffffffffffffffffffffff168373ffffffffffffffffffffffffffffffffffffffff167f17307eab39ab6107e8899845ad3d59bd9653f200f220920489ca2b5937696c31836040516116809190612378565b60405180910390a3505050565b6001816000016000828254019250508190555050565b600081600001549050919050565b600073ffffffffffffffffffffffffffffffffffffffff168473ffffffffffffffffffffffffffffffffffffffff161415611721576040517f08c379a0000000000000000000000000000000000000000000000000000000008152600401611718906136d6565b60405180910390fd5b600061172b611124565b905061174c8160008761173d88611e19565b61174688611e19565b87611c2a565b8260008086815260200190815260200160002060008773ffffffffffffffffffffffffffffffffffffffff1673ffffffffffffffffffffffffffffffffffffffff16815260200190815260200160002060008282546117ab9190613545565b925050819055508473ffffffffffffffffffffffffffffffffffffffff16600073ffffffffffffffffffffffffffffffffffffffff168273ffffffffffffffffffffffffffffffffffffffff167fc3d58168c5ae7397731d063d5bbf3d657854427343f4c083240f7aacaa2d0f6287876040516118299291906136f6565b60405180910390a461184081600087878787611e93565b5050505050565b6060600082141561188f576040518060400160405280600181526020017f300000000000000000000000000000000000000000000000000000000000000081525090506119a3565b600082905060005b600082146118c15780806118aa9061306b565b915050600a826118ba919061374e565b9150611897565b60008167ffffffffffffffff8111156118dd576118dc612540565b5b6040519080825280601f01601f19166020018201604052801561190f5781602001600182028036833780820191505090505b5090505b6000851461199c57600182611928919061377f565b9150600a8561193791906137b3565b60306119439190613545565b60f81b8183815181106119595761195861300d565b5b60200101907effffffffffffffffffffffffffffffffffffffffffffffffffffffffffffff1916908160001a905350600a85611995919061374e565b9450611913565b8093505050505b919050565b600073ffffffffffffffffffffffffffffffffffffffff168473ffffffffffffffffffffffffffffffffffffffff161415611a18576040517f08c379a0000000000000000000000000000000000000000000000000000000008152600401611a0f90613493565b60405180910390fd5b6000611a22611124565b9050611a42818787611a3388611e19565b611a3c88611e19565b87611c2a565b600080600086815260200190815260200160002060008873ffffffffffffffffffffffffffffffffffffffff1673ffffffffffffffffffffffffffffffffffffffff16815260200190815260200160002054905083811015611ad9576040517f08c379a0000000000000000000000000000000000000000000000000000000008152600401611ad090613525565b60405180910390fd5b83810360008087815260200190815260200160002060008973ffffffffffffffffffffffffffffffffffffffff1673ffffffffffffffffffffffffffffffffffffffff168152602001908152602001600020819055508360008087815260200190815260200160002060008873ffffffffffffffffffffffffffffffffffffffff1673ffffffffffffffffffffffffffffffffffffffff1681526020019081526020016000206000828254611b8e9190613545565b925050819055508573ffffffffffffffffffffffffffffffffffffffff168773ffffffffffffffffffffffffffffffffffffffff168373ffffffffffffffffffffffffffffffffffffffff167fc3d58168c5ae7397731d063d5bbf3d657854427343f4c083240f7aacaa2d0f628888604051611c0b9291906136f6565b60405180910390a4611c21828888888888611e93565b50505050505050565b505050505050565b611c518473ffffffffffffffffffffffffffffffffffffffff1661207a565b15611e11578373ffffffffffffffffffffffffffffffffffffffff1663bc197c8187878686866040518663ffffffff1660e01b8152600401611c97959493929190613839565b602060405180830381600087803b158015611cb157600080fd5b505af1925050508015611ce257506040513d601f19601f82011682018060405250810190611cdf91906138b6565b60015b611d8857611cee6138f0565b806308c379a01415611d4b5750611d03613912565b80611d0e5750611d4d565b806040517f08c379a0000000000000000000000000000000000000000000000000000000008152600401611d429190612459565b60405180910390fd5b505b6040517f08c379a0000000000000000000000000000000000000000000000000000000008152600401611d7f90613a1a565b60405180910390fd5b63bc197c8160e01b7bffffffffffffffffffffffffffffffffffffffffffffffffffffffff1916817bffffffffffffffffffffffffffffffffffffffffffffffffffffffff191614611e0f576040517f08c379a0000000000000000000000000000000000000000000000000000000008152600401611e0690613aac565b60405180910390fd5b505b505050505050565b60606000600167ffffffffffffffff811115611e3857611e37612540565b5b604051908082528060200260200182016040528015611e665781602001602082028036833780820191505090505b5090508281600081518110611e7e57611e7d61300d565b5b60200260200101818152505080915050919050565b611eb28473ffffffffffffffffffffffffffffffffffffffff1661207a565b15612072578373ffffffffffffffffffffffffffffffffffffffff1663f23a6e6187878686866040518663ffffffff1660e01b8152600401611ef8959493929190613acc565b602060405180830381600087803b158015611f1257600080fd5b505af1925050508015611f4357506040513d601f19601f82011682018060405250810190611f4091906138b6565b60015b611fe957611f4f6138f0565b806308c379a01415611fac5750611f64613912565b80611f6f5750611fae565b806040517f08c379a0000000000000000000000000000000000000000000000000000000008152600401611fa39190612459565b60405180910390fd5b505b6040517f08c379a0000000000000000000000000000000000000000000000000000000008152600401611fe090613a1a565b60405180910390fd5b63f23a6e6160e01b7bffffffffffffffffffffffffffffffffffffffffffffffffffffffff1916817bffffffffffffffffffffffffffffffffffffffffffffffffffffffff191614612070576040517f08c379a000000000000000000000000000000000000000000000000000000000815260040161206790613aac565b60405180910390fd5b505b505050505050565b6000808273ffffffffffffffffffffffffffffffffffffffff163b119050919050565b8280546120a990612e4b565b90600052602060002090601f0160209004810192826120cb5760008555612112565b82601f106120e457803560ff1916838001178555612112565b82800160010185558215612112579182015b828111156121115782358255916020019190600101906120f6565b5b50905061211f91906121a9565b5090565b82805461212f90612e4b565b90600052602060002090601f0160209004810192826121515760008555612198565b82601f1061216a57805160ff1916838001178555612198565b82800160010185558215612198579182015b8281111561219757825182559160200191906001019061217c565b5b5090506121a591906121a9565b5090565b5b808211156121c25760008160009055506001016121aa565b5090565b6000604051905090565b600080fd5b600080fd5b600073ffffffffffffffffffffffffffffffffffffffff82169050919050565b6000612205826121da565b9050919050565b612215816121fa565b811461222057600080fd5b50565b6000813590506122328161220c565b92915050565b6000819050919050565b61224b81612238565b811461225657600080fd5b50565b60008135905061226881612242565b92915050565b60008060408385031215612285576122846121d0565b5b600061229385828601612223565b92505060206122a485828601612259565b9150509250929050565b6122b781612238565b82525050565b60006020820190506122d260008301846122ae565b92915050565b60007fffffffff0000000000000000000000000000000000000000000000000000000082169050919050565b61230d816122d8565b811461231857600080fd5b50565b60008135905061232a81612304565b92915050565b600060208284031215612346576123456121d0565b5b60006123548482850161231b565b91505092915050565b60008115159050919050565b6123728161235d565b82525050565b600060208201905061238d6000830184612369565b92915050565b6000602082840312156123a9576123a86121d0565b5b60006123b784828501612259565b91505092915050565b600081519050919050565b600082825260208201905092915050565b60005b838110156123fa5780820151818401526020810190506123df565b83811115612409576000848401525b50505050565b6000601f19601f8301169050919050565b600061242b826123c0565b61243581856123cb565b93506124458185602086016123dc565b61244e8161240f565b840191505092915050565b600060208201905081810360008301526124738184612420565b905092915050565b600080fd5b600080fd5b600080fd5b60008083601f8401126124a05761249f61247b565b5b8235905067ffffffffffffffff8111156124bd576124bc612480565b5b6020830191508360018202830111156124d9576124d8612485565b5b9250929050565b6000806000604084860312156124f9576124f86121d0565b5b600061250786828701612259565b935050602084013567ffffffffffffffff811115612528576125276121d5565b5b6125348682870161248a565b92509250509250925092565b7f4e487b7100000000000000000000000000000000000000000000000000000000600052604160045260246000fd5b6125788261240f565b810181811067ffffffffffffffff8211171561259757612596612540565b5b80604052505050565b60006125aa6121c6565b90506125b6828261256f565b919050565b600067ffffffffffffffff8211156125d6576125d5612540565b5b602082029050602081019050919050565b60006125fa6125f5846125bb565b6125a0565b9050808382526020820190506020840283018581111561261d5761261c612485565b5b835b8181101561264657806126328882612259565b84526020840193505060208101905061261f565b5050509392505050565b600082601f8301126126655761266461247b565b5b81356126758482602086016125e7565b91505092915050565b600080fd5b600067ffffffffffffffff82111561269e5761269d612540565b5b6126a78261240f565b9050602081019050919050565b82818337600083830152505050565b60006126d66126d184612683565b6125a0565b9050828152602081018484840111156126f2576126f161267e565b5b6126fd8482856126b4565b509392505050565b600082601f83011261271a5761271961247b565b5b813561272a8482602086016126c3565b91505092915050565b600080600080600060a0868803121561274f5761274e6121d0565b5b600061275d88828901612223565b955050602061276e88828901612223565b945050604086013567ffffffffffffffff81111561278f5761278e6121d5565b5b61279b88828901612650565b935050606086013567ffffffffffffffff8111156127bc576127bb6121d5565b5b6127c888828901612650565b925050608086013567ffffffffffffffff8111156127e9576127e86121d5565b5b6127f588828901612705565b9150509295509295909350565b600067ffffffffffffffff82111561281d5761281c612540565b5b602082029050602081019050919050565b600061284161283c84612802565b6125a0565b9050808382526020820190506020840283018581111561286457612863612485565b5b835b8181101561288d57806128798882612223565b845260208401935050602081019050612866565b5050509392505050565b600082601f8301126128ac576128ab61247b565b5b81356128bc84826020860161282e565b91505092915050565b600080604083850312156128dc576128db6121d0565b5b600083013567ffffffffffffffff8111156128fa576128f96121d5565b5b61290685828601612897565b925050602083013567ffffffffffffffff811115612927576129266121d5565b5b61293385828601612650565b9150509250929050565b600081519050919050565b600082825260208201905092915050565b6000819050602082019050919050565b61297281612238565b82525050565b60006129848383612969565b60208301905092915050565b6000602082019050919050565b60006129a88261293d565b6129b28185612948565b93506129bd83612959565b8060005b838110156129ee5781516129d58882612978565b97506129e083612990565b9250506001810190506129c1565b5085935050505092915050565b60006020820190508181036000830152612a15818461299d565b905092915050565b600060a082019050612a3260008301886122ae565b8181036020830152612a448187612420565b90508181036040830152612a588186612420565b90508181036060830152612a6c8185612420565b9050612a7b6080830184612369565b9695505050505050565b612a8e816121fa565b82525050565b6000602082019050612aa96000830184612a85565b92915050565b600067ffffffffffffffff821115612aca57612ac9612540565b5b612ad38261240f565b9050602081019050919050565b6000612af3612aee84612aaf565b6125a0565b905082815260208101848484011115612b0f57612b0e61267e565b5b612b1a8482856126b4565b509392505050565b600082601f830112612b3757612b3661247b565b5b8135612b47848260208601612ae0565b91505092915050565b600060208284031215612b6657612b656121d0565b5b600082013567ffffffffffffffff811115612b8457612b836121d5565b5b612b9084828501612b22565b91505092915050565b612ba28161235d565b8114612bad57600080fd5b50565b600081359050612bbf81612b99565b92915050565b60008060408385031215612bdc57612bdb6121d0565b5b6000612bea85828601612223565b9250506020612bfb85828601612bb0565b9150509250929050565b60008060008060408587031215612c1f57612c1e6121d0565b5b600085013567ffffffffffffffff811115612c3d57612c3c6121d5565b5b612c498782880161248a565b9450945050602085013567ffffffffffffffff811115612c6c57612c6b6121d5565b5b612c788782880161248a565b925092505092959194509250565b60008060408385031215612c9d57612c9c6121d0565b5b6000612cab85828601612223565b9250506020612cbc85828601612223565b9150509250929050565b600080600080600060a08688031215612ce257612ce16121d0565b5b6000612cf088828901612223565b9550506020612d0188828901612223565b9450506040612d1288828901612259565b9350506060612d2388828901612259565b925050608086013567ffffffffffffffff811115612d4457612d436121d5565b5b612d5088828901612705565b9150509295509295909350565b600060208284031215612d7357612d726121d0565b5b6000612d8184828501612223565b91505092915050565b7f455243313135353a2062616c616e636520717565727920666f7220746865207a60008201527f65726f2061646472657373000000000000000000000000000000000000000000602082015250565b6000612de6602b836123cb565b9150612df182612d8a565b604082019050919050565b60006020820190508181036000830152612e1581612dd9565b9050919050565b7f4e487b7100000000000000000000000000000000000000000000000000000000600052602260045260246000fd5b60006002820490506001821680612e6357607f821691505b60208210811415612e7757612e76612e1c565b5b50919050565b7f4f776e61626c653a2063616c6c6572206973206e6f7420746865206f776e6572600082015250565b6000612eb36020836123cb565b9150612ebe82612e7d565b602082019050919050565b60006020820190508181036000830152612ee281612ea6565b9050919050565b7f455243313135353a207472616e736665722063616c6c6572206973206e6f742060008201527f6f776e6572206e6f7220617070726f7665640000000000000000000000000000602082015250565b6000612f456032836123cb565b9150612f5082612ee9565b604082019050919050565b60006020820190508181036000830152612f7481612f38565b9050919050565b7f455243313135353a206163636f756e747320616e6420696473206c656e67746860008201527f206d69736d617463680000000000000000000000000000000000000000000000602082015250565b6000612fd76029836123cb565b9150612fe282612f7b565b604082019050919050565b6000602082019050818103600083015261300681612fca565b9050919050565b7f4e487b7100000000000000000000000000000000000000000000000000000000600052603260045260246000fd5b7f4e487b7100000000000000000000000000000000000000000000000000000000600052601160045260246000fd5b600061307682612238565b91507fffffffffffffffffffffffffffffffffffffffffffffffffffffffffffffffff8214156130a9576130a861303c565b5b600182019050919050565b7f5265656e7472616e637947756172643a207265656e7472616e742063616c6c00600082015250565b60006130ea601f836123cb565b91506130f5826130b4565b602082019050919050565b60006020820190508181036000830152613119816130dd565b9050919050565b600081905092915050565b60008190508160005260206000209050919050565b6000815461314d81612e4b565b6131578186613120565b945060018216600081146131725760018114613183576131b6565b60ff198316865281860193506131b6565b61318c8561312b565b60005b838110156131ae5781548189015260018201915060208101905061318f565b838801955050505b50505092915050565b60006131ca826123c0565b6131d48185613120565b93506131e48185602086016123dc565b80840191505092915050565b7f2e6a736f6e000000000000000000000000000000000000000000000000000000600082015250565b6000613226600583613120565b9150613231826131f0565b600582019050919050565b60006132488285613140565b915061325482846131bf565b915061325f82613219565b91508190509392505050565b7f455243313135353a2063616c6c6572206973206e6f74206f776e6572206e6f7260008201527f20617070726f7665640000000000000000000000000000000000000000000000602082015250565b60006132c76029836123cb565b91506132d28261326b565b604082019050919050565b600060208201905081810360008301526132f6816132ba565b9050919050565b7f4f776e61626c653a206e6577206f776e657220697320746865207a65726f206160008201527f6464726573730000000000000000000000000000000000000000000000000000602082015250565b60006133596026836123cb565b9150613364826132fd565b604082019050919050565b600060208201905081810360008301526133888161334c565b9050919050565b7f455243313135353a2069647320616e6420616d6f756e7473206c656e6774682060008201527f6d69736d61746368000000000000000000000000000000000000000000000000602082015250565b60006133eb6028836123cb565b91506133f68261338f565b604082019050919050565b6000602082019050818103600083015261341a816133de565b9050919050565b7f455243313135353a207472616e7366657220746f20746865207a65726f20616460008201527f6472657373000000000000000000000000000000000000000000000000000000602082015250565b600061347d6025836123cb565b915061348882613421565b604082019050919050565b600060208201905081810360008301526134ac81613470565b9050919050565b7f455243313135353a20696e73756666696369656e742062616c616e636520666f60008201527f72207472616e7366657200000000000000000000000000000000000000000000602082015250565b600061350f602a836123cb565b915061351a826134b3565b604082019050919050565b6000602082019050818103600083015261353e81613502565b9050919050565b600061355082612238565b915061355b83612238565b9250827fffffffffffffffffffffffffffffffffffffffffffffffffffffffffffffffff038211156135905761358f61303c565b5b828201905092915050565b600060408201905081810360008301526135b5818561299d565b905081810360208301526135c9818461299d565b90509392505050565b7f455243313135353a2073657474696e6720617070726f76616c2073746174757360008201527f20666f722073656c660000000000000000000000000000000000000000000000602082015250565b600061362e6029836123cb565b9150613639826135d2565b604082019050919050565b6000602082019050818103600083015261365d81613621565b9050919050565b7f455243313135353a206d696e7420746f20746865207a65726f2061646472657360008201527f7300000000000000000000000000000000000000000000000000000000000000602082015250565b60006136c06021836123cb565b91506136cb82613664565b604082019050919050565b600060208201905081810360008301526136ef816136b3565b9050919050565b600060408201905061370b60008301856122ae565b61371860208301846122ae565b9392505050565b7f4e487b7100000000000000000000000000000000000000000000000000000000600052601260045260246000fd5b600061375982612238565b915061376483612238565b9250826137745761377361371f565b5b828204905092915050565b600061378a82612238565b915061379583612238565b9250828210156137a8576137a761303c565b5b828203905092915050565b60006137be82612238565b91506137c983612238565b9250826137d9576137d861371f565b5b828206905092915050565b600081519050919050565b600082825260208201905092915050565b600061380b826137e4565b61381581856137ef565b93506138258185602086016123dc565b61382e8161240f565b840191505092915050565b600060a08201905061384e6000830188612a85565b61385b6020830187612a85565b818103604083015261386d818661299d565b90508181036060830152613881818561299d565b905081810360808301526138958184613800565b90509695505050505050565b6000815190506138b081612304565b92915050565b6000602082840312156138cc576138cb6121d0565b5b60006138da848285016138a1565b91505092915050565b60008160e01c9050919050565b600060033d111561390f5760046000803e61390c6000516138e3565b90505b90565b600060443d1015613922576139a5565b61392a6121c6565b60043d036004823e80513d602482011167ffffffffffffffff821117156139525750506139a5565b808201805167ffffffffffffffff81111561397057505050506139a5565b80602083010160043d03850181111561398d5750505050506139a5565b61399c8260200185018661256f565b82955050505050505b90565b7f455243313135353a207472616e7366657220746f206e6f6e204552433131353560008201527f526563656976657220696d706c656d656e746572000000000000000000000000602082015250565b6000613a046034836123cb565b9150613a0f826139a8565b604082019050919050565b60006020820190508181036000830152613a33816139f7565b9050919050565b7f455243313135353a204552433131353552656365697665722072656a6563746560008201527f6420746f6b656e73000000000000000000000000000000000000000000000000602082015250565b6000613a966028836123cb565b9150613aa182613a3a565b604082019050919050565b60006020820190508181036000830152613ac581613a89565b9050919050565b600060a082019050613ae16000830188612a85565b613aee6020830187612a85565b613afb60408301866122ae565b613b0860608301856122ae565b8181036080830152613b1a8184613800565b9050969550505050505056fea26469706673582212207320f011ccfc2bd26fa3e6b3e69401e7ebaab28a4acba66c85aef29deef6dc6964736f6c6343000809003368747470733a2f2f7777772e7265616c657374617465636861696e2e65732f6170692f6974656d2f68747470733a2f2f7777772e7265616c657374617465636861696e2e65732f6170692f6974656d2f7b69647d2e6a736f6e",
  "devdoc": {
    "kind": "dev",
    "methods": {
      "addREAT(string,string)": {
        "details": "addREAT() mints the token and updates the token counter",
        "params": {
          "_hashJsonToken": "is the keccak256 of the property metadata",
          "_idCatastro": "is the ID to be provided by the Catastro office"
        },
        "returns": {
          "_0": "ID of the struct REATdata that got created/updated"
        }
      },
      "balanceOf(address,uint256)": {
        "details": "See {IERC1155-balanceOf}. Requirements: - `account` cannot be the zero address."
      },
      "balanceOfBatch(address[],uint256[])": {
        "details": "See {IERC1155-balanceOfBatch}. Requirements: - `accounts` and `ids` must have the same length."
      },
      "getUri(uint256)": {
        "details": "Function to add the tokenId on the URI that's returned",
        "params": {
          "_tokenId": "variable passed to assign the ID, that is the token type "
        }
      },
      "isApprovedForAll(address,address)": {
        "details": "See {IERC1155-isApprovedForAll}."
      },
      "owner()": {
        "details": "Returns the address of the current owner."
      },
      "paused()": {
        "details": "Returns true if the contract is paused, and false otherwise."
      },
      "renounceOwnership()": {
        "details": "Leaves the contract without owner. It will not be possible to call `onlyOwner` functions anymore. Can only be called by the current owner. NOTE: Renouncing ownership will leave the contract without an owner, thereby removing any functionality that is only available to the owner."
      },
      "safeBatchTransferFrom(address,address,uint256[],uint256[],bytes)": {
        "details": "See {IERC1155-safeBatchTransferFrom}."
      },
      "safeTransferFrom(address,address,uint256,uint256,bytes)": {
        "details": "See {IERC1155-safeTransferFrom}."
      },
      "setApprovalForAll(address,bool)": {
        "details": "See {IERC1155-setApprovalForAll}."
      },
      "supportsInterface(bytes4)": {
        "details": "See {IERC165-supportsInterface}."
      },
      "transferOwnership(address)": {
        "details": "Transfers ownership of the contract to a new account (`newOwner`). Can only be called by the current owner."
      },
      "updateHashJsonDoc(uint256,string)": {
        "details": "This function will update the json hash whenever there are updates in property docs",
        "params": {
          "_id": "used to search in the reatdata mapping to find the struct that will be updated",
          "_newHashJsonDoc": "is the new hash that will replace the hashJsonDoc inside the struct reatdata"
        }
      },
      "updateMasterUri(string)": {
        "details": "updateMasterUri() sets a new URI for the token type passed as argumentwhere is the OWNER defined ?",
        "params": {
          "uri_": "is the ID that will be set for the token type"
        }
      },
      "uri(uint256)": {
        "details": "See {IERC1155MetadataURI-uri}. This implementation returns the same URI for *all* token types. It relies on the token type ID substitution mechanism https://eips.ethereum.org/EIPS/eip-1155#metadata[defined in the EIP]. Clients calling this function must replace the `\\{id\\}` substring with the actual token type ID."
      }
    },
    "stateVariables": {
      "reatdata": {
        "details": "a mapping to index all REATData structs created in the contract"
      }
    },
    "version": 1
  },
  "userdoc": {
    "kind": "user",
    "methods": {
      "addREAT(string,string)": {
        "notice": "why are passing the parameters as calldata ?token minted with URI property \"hashJsonDoc\" empty. It'll be added later on"
      },
      "getUri(uint256)": {
        "notice": "it takes the base URI and concatenates the _tokenId and adds \".json\" in the end"
      },
      "updateMasterUri(string)": {
        "notice": "a new token type is created for every single propertyinherited modifier \"nonReentrant\" from ReentrancyGuard contract"
      }
    },
    "version": 1
  },
  "storageLayout": {
    "storage": [
      {
        "astId": 262,
        "contract": "contracts/MasterREAT_EG_ext.sol:MasterREAT_EG_ext",
        "label": "_balances",
        "offset": 0,
        "slot": "0",
        "type": "t_mapping(t_uint256,t_mapping(t_address,t_uint256))"
      },
      {
        "astId": 268,
        "contract": "contracts/MasterREAT_EG_ext.sol:MasterREAT_EG_ext",
        "label": "_operatorApprovals",
        "offset": 0,
        "slot": "1",
        "type": "t_mapping(t_address,t_mapping(t_address,t_bool))"
      },
      {
        "astId": 270,
        "contract": "contracts/MasterREAT_EG_ext.sol:MasterREAT_EG_ext",
        "label": "_uri",
        "offset": 0,
        "slot": "2",
        "type": "t_string_storage"
      },
      {
        "astId": 7,
        "contract": "contracts/MasterREAT_EG_ext.sol:MasterREAT_EG_ext",
        "label": "_owner",
        "offset": 0,
        "slot": "3",
        "type": "t_address"
      },
      {
        "astId": 122,
        "contract": "contracts/MasterREAT_EG_ext.sol:MasterREAT_EG_ext",
        "label": "_paused",
        "offset": 20,
        "slot": "3",
        "type": "t_bool"
      },
      {
        "astId": 207,
        "contract": "contracts/MasterREAT_EG_ext.sol:MasterREAT_EG_ext",
        "label": "_status",
        "offset": 0,
        "slot": "4",
        "type": "t_uint256"
      },
      {
        "astId": 2207,
        "contract": "contracts/MasterREAT_EG_ext.sol:MasterREAT_EG_ext",
        "label": "baseUri",
        "offset": 0,
        "slot": "5",
        "type": "t_string_storage"
      },
      {
        "astId": 2214,
        "contract": "contracts/MasterREAT_EG_ext.sol:MasterREAT_EG_ext",
        "label": "_reatAutoId",
        "offset": 0,
        "slot": "6",
        "type": "t_struct(Counter)1880_storage"
      },
      {
        "astId": 2231,
        "contract": "contracts/MasterREAT_EG_ext.sol:MasterREAT_EG_ext",
        "label": "reatdata",
        "offset": 0,
        "slot": "7",
        "type": "t_mapping(t_uint256,t_struct(REATData)2225_storage)"
      }
    ],
    "types": {
      "t_address": {
        "encoding": "inplace",
        "label": "address",
        "numberOfBytes": "20"
      },
      "t_bool": {
        "encoding": "inplace",
        "label": "bool",
        "numberOfBytes": "1"
      },
      "t_mapping(t_address,t_bool)": {
        "encoding": "mapping",
        "key": "t_address",
        "label": "mapping(address => bool)",
        "numberOfBytes": "32",
        "value": "t_bool"
      },
      "t_mapping(t_address,t_mapping(t_address,t_bool))": {
        "encoding": "mapping",
        "key": "t_address",
        "label": "mapping(address => mapping(address => bool))",
        "numberOfBytes": "32",
        "value": "t_mapping(t_address,t_bool)"
      },
      "t_mapping(t_address,t_uint256)": {
        "encoding": "mapping",
        "key": "t_address",
        "label": "mapping(address => uint256)",
        "numberOfBytes": "32",
        "value": "t_uint256"
      },
      "t_mapping(t_uint256,t_mapping(t_address,t_uint256))": {
        "encoding": "mapping",
        "key": "t_uint256",
        "label": "mapping(uint256 => mapping(address => uint256))",
        "numberOfBytes": "32",
        "value": "t_mapping(t_address,t_uint256)"
      },
      "t_mapping(t_uint256,t_struct(REATData)2225_storage)": {
        "encoding": "mapping",
        "key": "t_uint256",
        "label": "mapping(uint256 => struct MasterREAT_EG_ext.REATData)",
        "numberOfBytes": "32",
        "value": "t_struct(REATData)2225_storage"
      },
      "t_string_storage": {
        "encoding": "bytes",
        "label": "string",
        "numberOfBytes": "32"
      },
      "t_struct(Counter)1880_storage": {
        "encoding": "inplace",
        "label": "struct Counters.Counter",
        "members": [
          {
            "astId": 1879,
            "contract": "contracts/MasterREAT_EG_ext.sol:MasterREAT_EG_ext",
            "label": "_value",
            "offset": 0,
            "slot": "0",
            "type": "t_uint256"
          }
        ],
        "numberOfBytes": "32"
      },
      "t_struct(REATData)2225_storage": {
        "encoding": "inplace",
        "label": "struct MasterREAT_EG_ext.REATData",
        "members": [
          {
            "astId": 2216,
            "contract": "contracts/MasterREAT_EG_ext.sol:MasterREAT_EG_ext",
            "label": "REATid",
            "offset": 0,
            "slot": "0",
            "type": "t_uint256"
          },
          {
            "astId": 2218,
            "contract": "contracts/MasterREAT_EG_ext.sol:MasterREAT_EG_ext",
            "label": "idCatastro",
            "offset": 0,
            "slot": "1",
            "type": "t_string_storage"
          },
          {
            "astId": 2220,
            "contract": "contracts/MasterREAT_EG_ext.sol:MasterREAT_EG_ext",
            "label": "hashJsonToken",
            "offset": 0,
            "slot": "2",
            "type": "t_string_storage"
          },
          {
            "astId": 2222,
            "contract": "contracts/MasterREAT_EG_ext.sol:MasterREAT_EG_ext",
            "label": "hashJsonDoc",
            "offset": 0,
            "slot": "3",
            "type": "t_string_storage"
          },
          {
            "astId": 2224,
            "contract": "contracts/MasterREAT_EG_ext.sol:MasterREAT_EG_ext",
            "label": "exists",
            "offset": 0,
            "slot": "4",
            "type": "t_bool"
          }
        ],
        "numberOfBytes": "160"
      },
      "t_uint256": {
        "encoding": "inplace",
        "label": "uint256",
        "numberOfBytes": "32"
      }
    }
  }
}